{
  "_format": "hh-sol-artifact-1",
  "contractName": "FormRegistryIPNS",
  "sourceName": "contracts/FormRegistryIPNS.sol",
  "abi": [
    {
      "inputs": [
        {
          "internalType": "address",
          "name": "_serverWallet",
          "type": "address"
        }
      ],
      "stateMutability": "nonpayable",
      "type": "constructor"
    },
    {
      "anonymous": false,
      "inputs": [
        {
          "indexed": true,
          "internalType": "string",
          "name": "ipnsName",
          "type": "string"
        },
        {
          "indexed": false,
          "internalType": "string",
          "name": "customDomain",
          "type": "string"
        },
        {
          "indexed": true,
          "internalType": "address",
          "name": "owner",
          "type": "address"
        },
        {
          "indexed": false,
          "internalType": "uint256",
          "name": "pricePaid",
          "type": "uint256"
        }
      ],
      "name": "CustomDomainRegistered",
      "type": "event"
    },
    {
      "anonymous": false,
      "inputs": [
        {
          "indexed": true,
          "internalType": "string",
          "name": "ipnsName",
          "type": "string"
        },
        {
          "indexed": false,
          "internalType": "string",
          "name": "customDomain",
          "type": "string"
        }
      ],
      "name": "CustomDomainReleased",
      "type": "event"
    },
    {
      "anonymous": false,
      "inputs": [
        {
          "indexed": false,
          "internalType": "uint256",
          "name": "oldPrice",
          "type": "uint256"
        },
        {
          "indexed": false,
          "internalType": "uint256",
          "name": "newPrice",
          "type": "uint256"
        }
      ],
      "name": "DomainPriceUpdated",
      "type": "event"
    },
    {
      "anonymous": false,
      "inputs": [
        {
          "indexed": true,
          "internalType": "string",
          "name": "ipnsName",
          "type": "string"
        },
        {
          "indexed": false,
          "internalType": "string",
          "name": "newEncryptedKeyCID",
          "type": "string"
        }
      ],
      "name": "EncryptedKeyUpdated",
      "type": "event"
    },
    {
      "anonymous": false,
      "inputs": [
        {
          "indexed": true,
          "internalType": "address",
          "name": "creator",
          "type": "address"
        },
        {
          "indexed": true,
          "internalType": "string",
          "name": "ipnsName",
          "type": "string"
        },
        {
          "indexed": false,
          "internalType": "string",
          "name": "encryptedKeyCID",
          "type": "string"
        },
        {
          "indexed": false,
          "internalType": "enum FormRegistryIPNS.PrivacyMode",
          "name": "privacyMode",
          "type": "uint8"
        },
        {
          "indexed": false,
          "internalType": "uint256",
          "name": "timestamp",
          "type": "uint256"
        }
      ],
      "name": "FormCreated",
      "type": "event"
    },
    {
      "anonymous": false,
      "inputs": [
        {
          "indexed": true,
          "internalType": "string",
          "name": "ipnsName",
          "type": "string"
        },
        {
          "indexed": false,
          "internalType": "bool",
          "name": "active",
          "type": "bool"
        }
      ],
      "name": "FormStatusChanged",
      "type": "event"
    },
    {
      "anonymous": false,
      "inputs": [
        {
          "indexed": true,
          "internalType": "string",
          "name": "ipnsName",
          "type": "string"
        },
        {
          "indexed": false,
          "internalType": "uint256",
          "name": "responseId",
          "type": "uint256"
        },
        {
          "indexed": true,
          "internalType": "address",
          "name": "submitter",
          "type": "address"
        },
        {
          "indexed": false,
          "internalType": "string",
          "name": "responseCID",
          "type": "string"
        },
        {
          "indexed": false,
          "internalType": "uint256",
          "name": "timestamp",
          "type": "uint256"
        }
      ],
      "name": "ResponseSubmitted",
      "type": "event"
    },
    {
      "inputs": [
        {
          "internalType": "address",
          "name": "",
          "type": "address"
        },
        {
          "internalType": "uint256",
          "name": "",
          "type": "uint256"
        }
      ],
      "name": "creatorForms",
      "outputs": [
        {
          "internalType": "string",
          "name": "",
          "type": "string"
        }
      ],
      "stateMutability": "view",
      "type": "function"
    },
    {
      "inputs": [
        {
          "internalType": "string",
          "name": "",
          "type": "string"
        }
      ],
      "name": "customDomains",
      "outputs": [
        {
          "internalType": "string",
          "name": "",
          "type": "string"
        }
      ],
      "stateMutability": "view",
      "type": "function"
    },
    {
      "inputs": [
        {
          "internalType": "string",
          "name": "",
          "type": "string"
        }
      ],
      "name": "domainOwners",
      "outputs": [
        {
          "internalType": "address",
          "name": "",
          "type": "address"
        }
      ],
      "stateMutability": "view",
      "type": "function"
    },
    {
      "inputs": [],
      "name": "domainPrice",
      "outputs": [
        {
          "internalType": "uint256",
          "name": "",
          "type": "uint256"
        }
      ],
      "stateMutability": "view",
      "type": "function"
    },
    {
      "inputs": [
        {
          "internalType": "string",
          "name": "",
          "type": "string"
        },
        {
          "internalType": "uint256",
          "name": "",
          "type": "uint256"
        }
      ],
      "name": "formResponses",
      "outputs": [
        {
          "internalType": "uint256",
          "name": "",
          "type": "uint256"
        }
      ],
      "stateMutability": "view",
      "type": "function"
    },
    {
      "inputs": [
        {
          "internalType": "string",
          "name": "",
          "type": "string"
        }
      ],
      "name": "forms",
      "outputs": [
        {
          "internalType": "address",
          "name": "creator",
          "type": "address"
        },
        {
          "internalType": "string",
          "name": "encryptedKeyCID",
          "type": "string"
        },
        {
          "internalType": "enum FormRegistryIPNS.PrivacyMode",
          "name": "privacyMode",
          "type": "uint8"
        },
        {
          "internalType": "uint256",
          "name": "createdAt",
          "type": "uint256"
        },
        {
          "internalType": "bool",
          "name": "active",
          "type": "bool"
        },
        {
          "internalType": "string",
          "name": "customDomain",
          "type": "string"
        }
      ],
      "stateMutability": "view",
      "type": "function"
    },
    {
      "inputs": [
        {
          "internalType": "address",
          "name": "creator",
          "type": "address"
        }
      ],
      "name": "getCreatorForms",
      "outputs": [
        {
          "internalType": "string[]",
          "name": "",
          "type": "string[]"
        }
      ],
      "stateMutability": "view",
      "type": "function"
    },
    {
      "inputs": [
        {
          "internalType": "string",
          "name": "idOrDomain",
          "type": "string"
        }
      ],
      "name": "getForm",
      "outputs": [
        {
          "components": [
            {
              "internalType": "address",
              "name": "creator",
              "type": "address"
            },
            {
              "internalType": "string",
              "name": "encryptedKeyCID",
              "type": "string"
            },
            {
              "internalType": "enum FormRegistryIPNS.PrivacyMode",
              "name": "privacyMode",
              "type": "uint8"
            },
            {
              "internalType": "uint256",
              "name": "createdAt",
              "type": "uint256"
            },
            {
              "internalType": "bool",
              "name": "active",
              "type": "bool"
            },
            {
              "internalType": "string",
              "name": "customDomain",
              "type": "string"
            }
          ],
          "internalType": "struct FormRegistryIPNS.Form",
          "name": "",
          "type": "tuple"
        }
      ],
      "stateMutability": "view",
      "type": "function"
    },
    {
      "inputs": [
        {
          "internalType": "string",
          "name": "ipnsName",
          "type": "string"
        }
      ],
      "name": "getFormResponseCount",
      "outputs": [
        {
          "internalType": "uint256",
          "name": "",
          "type": "uint256"
        }
      ],
      "stateMutability": "view",
      "type": "function"
    },
    {
      "inputs": [
        {
          "internalType": "string",
          "name": "ipnsName",
          "type": "string"
        }
      ],
      "name": "getFormResponseDetails",
      "outputs": [
        {
          "components": [
            {
              "internalType": "string",
              "name": "ipnsName",
              "type": "string"
            },
            {
              "internalType": "string",
              "name": "responseCID",
              "type": "string"
            },
            {
              "internalType": "address",
              "name": "submitter",
              "type": "address"
            },
            {
              "internalType": "uint256",
              "name": "timestamp",
              "type": "uint256"
            },
            {
              "internalType": "bool",
              "name": "verified",
              "type": "bool"
            },
            {
              "internalType": "string",
              "name": "identityType",
              "type": "string"
            }
          ],
          "internalType": "struct FormRegistryIPNS.Response[]",
          "name": "",
          "type": "tuple[]"
        }
      ],
      "stateMutability": "view",
      "type": "function"
    },
    {
      "inputs": [
        {
          "internalType": "string",
          "name": "ipnsName",
          "type": "string"
        }
      ],
      "name": "getFormResponses",
      "outputs": [
        {
          "internalType": "uint256[]",
          "name": "",
          "type": "uint256[]"
        }
      ],
      "stateMutability": "view",
      "type": "function"
    },
    {
      "inputs": [
        {
          "internalType": "uint256",
          "name": "responseId",
          "type": "uint256"
        }
      ],
      "name": "getResponse",
      "outputs": [
        {
          "components": [
            {
              "internalType": "string",
              "name": "ipnsName",
              "type": "string"
            },
            {
              "internalType": "string",
              "name": "responseCID",
              "type": "string"
            },
            {
              "internalType": "address",
              "name": "submitter",
              "type": "address"
            },
            {
              "internalType": "uint256",
              "name": "timestamp",
              "type": "uint256"
            },
            {
              "internalType": "bool",
              "name": "verified",
              "type": "bool"
            },
            {
              "internalType": "string",
              "name": "identityType",
              "type": "string"
            }
          ],
          "internalType": "struct FormRegistryIPNS.Response",
          "name": "",
          "type": "tuple"
        }
      ],
      "stateMutability": "view",
      "type": "function"
    },
    {
      "inputs": [
        {
          "internalType": "string",
          "name": "",
          "type": "string"
        }
      ],
      "name": "hasCustomDomain",
      "outputs": [
        {
          "internalType": "bool",
          "name": "",
          "type": "bool"
        }
      ],
      "stateMutability": "view",
      "type": "function"
    },
    {
      "inputs": [
        {
          "internalType": "string",
          "name": "ipnsName",
          "type": "string"
        },
        {
          "internalType": "address",
          "name": "user",
          "type": "address"
        }
      ],
      "name": "isFormCreator",
      "outputs": [
        {
          "internalType": "bool",
          "name": "",
          "type": "bool"
        }
      ],
      "stateMutability": "view",
      "type": "function"
    },
    {
      "inputs": [],
      "name": "owner",
      "outputs": [
        {
          "internalType": "address",
          "name": "",
          "type": "address"
        }
      ],
      "stateMutability": "view",
      "type": "function"
    },
    {
      "inputs": [
        {
          "internalType": "string",
          "name": "ipnsName",
          "type": "string"
        },
        {
          "internalType": "string",
          "name": "customDomain",
          "type": "string"
        }
      ],
      "name": "registerCustomDomain",
      "outputs": [],
      "stateMutability": "payable",
      "type": "function"
    },
    {
      "inputs": [
        {
          "internalType": "address",
          "name": "creator",
          "type": "address"
        },
        {
          "internalType": "string",
          "name": "ipnsName",
          "type": "string"
        },
        {
          "internalType": "string",
          "name": "encryptedKeyCID",
          "type": "string"
        },
        {
          "internalType": "enum FormRegistryIPNS.PrivacyMode",
          "name": "privacyMode",
          "type": "uint8"
        }
      ],
      "name": "registerForm",
      "outputs": [],
      "stateMutability": "nonpayable",
      "type": "function"
    },
    {
      "inputs": [
        {
          "internalType": "string",
          "name": "ipnsName",
          "type": "string"
        }
      ],
      "name": "releaseCustomDomain",
      "outputs": [],
      "stateMutability": "nonpayable",
      "type": "function"
    },
    {
      "inputs": [
        {
          "internalType": "string",
          "name": "idOrDomain",
          "type": "string"
        }
      ],
      "name": "resolveToIPNS",
      "outputs": [
        {
          "internalType": "string",
          "name": "",
          "type": "string"
        }
      ],
      "stateMutability": "view",
      "type": "function"
    },
    {
      "inputs": [
        {
          "internalType": "uint256",
          "name": "",
          "type": "uint256"
        }
      ],
      "name": "responses",
      "outputs": [
        {
          "internalType": "string",
          "name": "ipnsName",
          "type": "string"
        },
        {
          "internalType": "string",
          "name": "responseCID",
          "type": "string"
        },
        {
          "internalType": "address",
          "name": "submitter",
          "type": "address"
        },
        {
          "internalType": "uint256",
          "name": "timestamp",
          "type": "uint256"
        },
        {
          "internalType": "bool",
          "name": "verified",
          "type": "bool"
        },
        {
          "internalType": "string",
          "name": "identityType",
          "type": "string"
        }
      ],
      "stateMutability": "view",
      "type": "function"
    },
    {
      "inputs": [],
      "name": "serverWallet",
      "outputs": [
        {
          "internalType": "address",
          "name": "",
          "type": "address"
        }
      ],
      "stateMutability": "view",
      "type": "function"
    },
    {
      "inputs": [
        {
          "internalType": "string",
          "name": "ipnsName",
          "type": "string"
        },
        {
          "internalType": "bool",
          "name": "active",
          "type": "bool"
        }
      ],
      "name": "setFormStatus",
      "outputs": [],
      "stateMutability": "nonpayable",
      "type": "function"
    },
    {
      "inputs": [
        {
          "internalType": "string",
          "name": "ipnsName",
          "type": "string"
        },
        {
          "internalType": "string",
          "name": "responseCID",
          "type": "string"
        },
        {
          "internalType": "address",
          "name": "submitter",
          "type": "address"
        },
        {
          "internalType": "bool",
          "name": "verified",
          "type": "bool"
        },
        {
          "internalType": "string",
          "name": "identityType",
          "type": "string"
        }
      ],
      "name": "submitResponse",
      "outputs": [],
      "stateMutability": "nonpayable",
      "type": "function"
    },
    {
      "inputs": [
        {
          "internalType": "uint256",
          "name": "newPrice",
          "type": "uint256"
        }
      ],
      "name": "updateDomainPrice",
      "outputs": [],
      "stateMutability": "nonpayable",
      "type": "function"
    },
    {
      "inputs": [
        {
          "internalType": "string",
          "name": "ipnsName",
          "type": "string"
        },
        {
          "internalType": "string",
          "name": "newEncryptedKeyCID",
          "type": "string"
        }
      ],
      "name": "updateEncryptedKey",
      "outputs": [],
      "stateMutability": "nonpayable",
      "type": "function"
    },
    {
      "inputs": [
        {
          "internalType": "address",
          "name": "newServerWallet",
          "type": "address"
        }
      ],
      "name": "updateServerWallet",
      "outputs": [],
      "stateMutability": "nonpayable",
      "type": "function"
    },
    {
      "inputs": [],
      "name": "withdraw",
      "outputs": [],
      "stateMutability": "nonpayable",
      "type": "function"
    }
  ],
  "bytecode": "0x6080604052662386f26fc100006006553480156200001c57600080fd5b50604051620032ad380380620032ad8339810160408190526200003f916200006e565b600080546001600160a01b039092166001600160a01b03199283161790556001805490911633179055620000a0565b6000602082840312156200008157600080fd5b81516001600160a01b03811681146200009957600080fd5b9392505050565b6131fd80620000b06000396000f3fe60806040526004361061019c5760003560e01c806370c18199116100ec578063e3c27d321161008a578063f2b4989611610064578063f2b498961461050f578063f68e967214610550578063fcbfedae1461057d578063fcf298731461059d57600080fd5b8063e3c27d321461049d578063ed35d7e5146104bd578063efae532d146104ef57600080fd5b80639c432feb116100c65780639c432feb146103f5578063a293a99614610415578063b045c57214610435578063b9eb3d4e1461046257600080fd5b806370c18199146103885780638da5cb5b146103b55780639744c85b146103d557600080fd5b806329d93cfa116101595780633c8aea30116101335780633c8aea301461030b5780633ccfd60b1461033d5780635656675a146103525780635c97404a1461037257600080fd5b806329d93cfa14610291578063315ae765146102be578063366d7103146102de57600080fd5b8063023b81f6146101a157806302eb092b146101d45780631a3d767e146101e95780631a59f0f01461020957806323813a1014610241578063250553a814610271575b600080fd5b3480156101ad57600080fd5b506101c16101bc3660046128ae565b6105ca565b6040519081526020015b60405180910390f35b6101e76101e23660046128eb565b6105f2565b005b3480156101f557600080fd5b506101e761020436600461297b565b610a0b565b34801561021557600080fd5b50600054610229906001600160a01b031681565b6040516001600160a01b0390911681526020016101cb565b34801561024d57600080fd5b5061026161025c366004612a25565b610d50565b60405190151581526020016101cb565b34801561027d57600080fd5b506101e761028c3660046128ae565b610d8f565b34801561029d57600080fd5b506102b16102ac3660046128ae565b61100f565b6040516101cb9190612ac3565b3480156102ca57600080fd5b506101c16102d9366004612add565b6110b4565b3480156102ea57600080fd5b506102fe6102f93660046128ae565b6110f4565b6040516101cb9190612b9b565b34801561031757600080fd5b5061032b6103263660046128ae565b6114b4565b6040516101cb96959493929190612c35565b34801561034957600080fd5b506101e761161a565b34801561035e57600080fd5b506102b161036d366004612c93565b6116c9565b34801561037e57600080fd5b506101c160065481565b34801561039457600080fd5b506103a86103a3366004612cbd565b611701565b6040516101cb9190612cd6565b3480156103c157600080fd5b50600154610229906001600160a01b031681565b3480156103e157600080fd5b506101e76103f03660046128eb565b611969565b34801561040157600080fd5b506101e7610410366004612ce9565b611a6d565b34801561042157600080fd5b506101e7610430366004612d2e565b611b37565b34801561044157600080fd5b506104556104503660046128ae565b611bcb565b6040516101cb9190612d49565b34801561046e57600080fd5b5061026161047d3660046128ae565b805160208183018101805160058252928201919093012091525460ff1681565b3480156104a957600080fd5b506101e76104b8366004612d8d565b611c3b565b3480156104c957600080fd5b506104dd6104d8366004612cbd565b611f39565b6040516101cb96959493929190612e18565b3480156104fb57600080fd5b506101e761050a366004612cbd565b6120ad565b34801561051b57600080fd5b5061022961052a3660046128ae565b80516020818301810180516007825292820191909301209152546001600160a01b031681565b34801561055c57600080fd5b5061057061056b366004612d2e565b61211c565b6040516101cb9190612e6f565b34801561058957600080fd5b506102b16105983660046128ae565b61220b565b3480156105a957600080fd5b506105bd6105b83660046128ae565b612339565b6040516101cb9190612ec4565b60006009826040516105dc9190612f38565b9081526040519081900360200190205492915050565b81336001600160a01b031660028260405161060d9190612f38565b908152604051908190036020019020546001600160a01b03161461064c5760405162461bcd60e51b815260040161064390612f54565b60405180910390fd5b60028360405161065c9190612f38565b9081526040519081900360200190206004015460ff166106b05760405162461bcd60e51b815260206004820152600f60248201526e466f726d206e6f742061637469766560881b6044820152606401610643565b60008251116106f25760405162461bcd60e51b815260206004820152600e60248201526d24b73b30b634b2103237b6b0b4b760911b6044820152606401610643565b6004826040516107029190612f38565b9081526020016040518091039020805461071b90612f7e565b1590506107615760405162461bcd60e51b81526020600482015260146024820152732237b6b0b4b71030b63932b0b23c903a30b5b2b760611b6044820152606401610643565b6006543410156107aa5760405162461bcd60e51b8152602060048201526014602482015273125b9cdd59999a58da595b9d081c185e5b595b9d60621b6044820152606401610643565b60006002846040516107bc9190612f38565b908152602001604051809103902060050180546107d890612f7e565b905011156108e75760006002846040516107f29190612f38565b9081526020016040518091039020600501805461080e90612f7e565b80601f016020809104026020016040519081016040528092919081815260200182805461083a90612f7e565b80156108875780601f1061085c57610100808354040283529160200191610887565b820191906000526020600020905b81548152906001019060200180831161086a57829003601f168201915b5050505050905060048160405161089e9190612f38565b908152602001604051809103902060006108b89190612774565b6007816040516108c89190612f38565b90815260405190819003602001902080546001600160a01b0319169055505b826004836040516108f89190612f38565b908152602001604051809103902090816109129190613007565b50336007836040516109249190612f38565b908152602001604051809103902060006101000a8154816001600160a01b0302191690836001600160a01b03160217905550816002846040516109679190612f38565b908152602001604051809103902060050190816109849190613007565b5060016005846040516109979190612f38565b908152604051908190036020018120805492151560ff199093169290921790915533906109c5908590612f38565b60405180910390207fc5d8736081e77e77a41652d4d7e1fb830023061029d0ecce188243321840b8c384346040516109fe9291906130c7565b60405180910390a3505050565b6000546001600160a01b03163314610a5a5760405162461bcd60e51b815260206004820152601260248201527113db9b1e481cd95c9d995c881dd85b1b195d60721b6044820152606401610643565b600285604051610a6a9190612f38565b9081526040519081900360200190206004015460ff16610abe5760405162461bcd60e51b815260206004820152600f60248201526e466f726d206e6f742061637469766560881b6044820152606401610643565b6000845111610b065760405162461bcd60e51b8152602060048201526014602482015273125b9d985b1a59081c995cdc1bdb9cd94810d25160621b6044820152606401610643565b6001600286604051610b189190612f38565b9081526040519081900360200190206002015460ff166001811115610b3f57610b3f612bfd565b03610bb1576001600160a01b03831615610bb15760405162461bcd60e51b815260206004820152602d60248201527f416e6f6e796d6f757320666f726d732063616e6e6f742068617665207375626d60448201526c6974746572206164647265737360981b6064820152608401610643565b6040805160c081018252868152602081018690526001600160a01b03851691810191909152426060820152821515608082015260a0810182905260088054600181018255600091909152815160069091027ff3f7a9fe364faab93b216da50a3214154f22a0a2b415b23a84c8169e8b636ee301908190610c319082613007565b5060208201516001820190610c469082613007565b5060408201516002820180546001600160a01b0319166001600160a01b0390921691909117905560608201516003820155608082015160048201805460ff191691151591909117905560a08201516005820190610ca39082613007565b505060085460009150610cb8906001906130ff565b9050600986604051610cca9190612f38565b908152604051908190036020908101822080546001810182556000918252919020018290556001600160a01b03851690610d05908890612f38565b60405180910390207fb3c8aaabafdb9bbbf465d1bf7e1777793e6ea5663c8c15d26b3ab88f0f112954838842604051610d4093929190613112565b60405180910390a3505050505050565b6000816001600160a01b0316600284604051610d6c9190612f38565b908152604051908190036020019020546001600160a01b03161490505b92915050565b80336001600160a01b0316600282604051610daa9190612f38565b908152604051908190036020019020546001600160a01b031614610de05760405162461bcd60e51b815260040161064390612f54565b6000600283604051610df29190612f38565b90815260200160405180910390206005018054610e0e90612f7e565b905011610e505760405162461bcd60e51b815260206004820152601060248201526f27379031bab9ba37b6903237b6b0b4b760811b6044820152606401610643565b6000600283604051610e629190612f38565b90815260200160405180910390206005018054610e7e90612f7e565b80601f0160208091040260200160405190810160405280929190818152602001828054610eaa90612f7e565b8015610ef75780601f10610ecc57610100808354040283529160200191610ef7565b820191906000526020600020905b815481529060010190602001808311610eda57829003601f168201915b50505050509050600481604051610f0e9190612f38565b90815260200160405180910390206000610f289190612774565b600781604051610f389190612f38565b90815260408051918290036020908101832080546001600160a01b0319169055820181526000825251600290610f6f908690612f38565b90815260200160405180910390206005019081610f8c9190613007565b506000600584604051610f9f9190612f38565b908152604051908190036020018120805492151560ff1990931692909217909155610fcb908490612f38565b60405180910390207ff151a5ad22ef072c645e7fabdbabef05aac2fc8a12c894155f94a39a16b2f100826040516110029190612ac3565b60405180910390a2505050565b80516020818301810180516004825292820191909301209152805461103390612f7e565b80601f016020809104026020016040519081016040528092919081815260200182805461105f90612f7e565b80156110ac5780601f10611081576101008083540402835291602001916110ac565b820191906000526020600020905b81548152906001019060200180831161108f57829003601f168201915b505050505081565b815160208184018101805160098252928201918501919091209190528054829081106110df57600080fd5b90600052602060002001600091509150505481565b6060336001600160a01b03166002836040516111109190612f38565b908152604051908190036020019020546001600160a01b0316146111825760405162461bcd60e51b8152602060048201526024808201527f4f6e6c7920666f726d2063726561746f722063616e207669657720726573706f6044820152636e73657360e01b6064820152608401610643565b60006009836040516111949190612f38565b90815260408051918290036020908101832080548083028501830190935282845291908301828280156111e657602002820191906000526020600020905b8154815260200190600101908083116111d2575b505050505090506000815167ffffffffffffffff8111156112095761120961280b565b60405190808252806020026020018201604052801561124257816020015b61122f6127b1565b8152602001906001900390816112275790505b50905060005b82518110156114ac5760088382815181106112655761126561313b565b60200260200101518154811061127d5761127d61313b565b90600052602060002090600602016040518060c00160405290816000820180546112a690612f7e565b80601f01602080910402602001604051908101604052809291908181526020018280546112d290612f7e565b801561131f5780601f106112f45761010080835404028352916020019161131f565b820191906000526020600020905b81548152906001019060200180831161130257829003601f168201915b5050505050815260200160018201805461133890612f7e565b80601f016020809104026020016040519081016040528092919081815260200182805461136490612f7e565b80156113b15780601f10611386576101008083540402835291602001916113b1565b820191906000526020600020905b81548152906001019060200180831161139457829003601f168201915b505050918352505060028201546001600160a01b0316602082015260038201546040820152600482015460ff16151560608201526005820180546080909201916113fa90612f7e565b80601f016020809104026020016040519081016040528092919081815260200182805461142690612f7e565b80156114735780601f1061144857610100808354040283529160200191611473565b820191906000526020600020905b81548152906001019060200180831161145657829003601f168201915b50505050508152505082828151811061148e5761148e61313b565b602002602001018190525080806114a490613151565b915050611248565b509392505050565b8051602081830181018051600282529282019190930120915280546001820180546001600160a01b0390921692916114eb90612f7e565b80601f016020809104026020016040519081016040528092919081815260200182805461151790612f7e565b80156115645780601f1061153957610100808354040283529160200191611564565b820191906000526020600020905b81548152906001019060200180831161154757829003601f168201915b50505050600283015460038401546004850154600586018054959660ff9485169693955093909116929161159790612f7e565b80601f01602080910402602001604051908101604052809291908181526020018280546115c390612f7e565b80156116105780601f106115e557610100808354040283529160200191611610565b820191906000526020600020905b8154815290600101906020018083116115f357829003601f168201915b5050505050905086565b6001546001600160a01b031633146116445760405162461bcd60e51b81526004016106439061316a565b478061168b5760405162461bcd60e51b81526020600482015260166024820152754e6f2062616c616e636520746f20776974686472617760501b6044820152606401610643565b6001546040516001600160a01b039091169082156108fc029083906000818181858888f193505050501580156116c5573d6000803e3d6000fd5b5050565b600360205281600052604060002081815481106116e557600080fd5b9060005260206000200160009150915050805461103390612f7e565b6117096127b1565b60085482106117505760405162461bcd60e51b8152602060048201526013602482015272125b9d985b1a59081c995cdc1bdb9cd9481251606a1b6044820152606401610643565b600882815481106117635761176361313b565b90600052602060002090600602016040518060c001604052908160008201805461178c90612f7e565b80601f01602080910402602001604051908101604052809291908181526020018280546117b890612f7e565b80156118055780601f106117da57610100808354040283529160200191611805565b820191906000526020600020905b8154815290600101906020018083116117e857829003601f168201915b5050505050815260200160018201805461181e90612f7e565b80601f016020809104026020016040519081016040528092919081815260200182805461184a90612f7e565b80156118975780601f1061186c57610100808354040283529160200191611897565b820191906000526020600020905b81548152906001019060200180831161187a57829003601f168201915b505050918352505060028201546001600160a01b0316602082015260038201546040820152600482015460ff16151560608201526005820180546080909201916118e090612f7e565b80601f016020809104026020016040519081016040528092919081815260200182805461190c90612f7e565b80156119595780601f1061192e57610100808354040283529160200191611959565b820191906000526020600020905b81548152906001019060200180831161193c57829003601f168201915b5050505050815250509050919050565b81336001600160a01b03166002826040516119849190612f38565b908152604051908190036020019020546001600160a01b0316146119ba5760405162461bcd60e51b815260040161064390612f54565b60008251116119f95760405162461bcd60e51b815260206004820152600b60248201526a125b9d985b1a590810d25160aa1b6044820152606401610643565b81600284604051611a0a9190612f38565b90815260200160405180910390206001019081611a279190613007565b5082604051611a369190612f38565b60405180910390207fd28cb7b3a1e7a87156174f07534e2fed5fa92a11735371d20c7b72b21b5387ef836040516110029190612ac3565b81336001600160a01b0316600282604051611a889190612f38565b908152604051908190036020019020546001600160a01b031614611abe5760405162461bcd60e51b815260040161064390612f54565b81600284604051611acf9190612f38565b908152604051908190036020018120600401805492151560ff1990931692909217909155611afe908490612f38565b6040519081900381208315158252907f0531fbaee29f7653d6d9890d997d58b9965642da03275c47c0f6280e12ce958d90602001611002565b6001546001600160a01b03163314611b615760405162461bcd60e51b81526004016106439061316a565b6001600160a01b038116611ba95760405162461bcd60e51b815260206004820152600f60248201526e496e76616c6964206164647265737360881b6044820152606401610643565b600080546001600160a01b0319166001600160a01b0392909216919091179055565b6060600982604051611bdd9190612f38565b9081526040805191829003602090810183208054808302850183019093528284529190830182828015611c2f57602002820191906000526020600020905b815481526020019060010190808311611c1b575b50505050509050919050565b6000546001600160a01b03163314611c8a5760405162461bcd60e51b815260206004820152601260248201527113db9b1e481cd95c9d995c881dd85b1b195d60721b6044820152606401610643565b60006001600160a01b0316600284604051611ca59190612f38565b908152604051908190036020019020546001600160a01b031614611d015760405162461bcd60e51b8152602060048201526013602482015272466f726d20616c72656164792065786973747360681b6044820152606401610643565b6001600160a01b038416611d575760405162461bcd60e51b815260206004820152601760248201527f496e76616c69642063726561746f7220616464726573730000000000000000006044820152606401610643565b6000835111611d9c5760405162461bcd60e51b8152602060048201526011602482015270496e76616c69642049504e53206e616d6560781b6044820152606401610643565b6040518060c00160405280856001600160a01b03168152602001838152602001826001811115611dce57611dce612bfd565b815260200142815260200160011515815260200160405180602001604052806000815250815250600284604051611e059190612f38565b90815260405160209181900382019020825181546001600160a01b0319166001600160a01b03909116178155908201516001820190611e449082613007565b50604082015160028201805460ff191660018381811115611e6757611e67612bfd565b021790555060608201516003820155608082015160048201805460ff191691151591909117905560a08201516005820190611ea29082613007565b5050506001600160a01b038416600090815260036020908152604082208054600181018255908352912001611ed78482613007565b5082604051611ee69190612f38565b6040518091039020846001600160a01b03167fcfc85a8b1c16e20e4bfae35d9ad4a0723a0f70d42ac79a187fe1890ba32bf259848442604051611f2b93929190613197565b60405180910390a350505050565b60088181548110611f4957600080fd5b9060005260206000209060060201600091509050806000018054611f6c90612f7e565b80601f0160208091040260200160405190810160405280929190818152602001828054611f9890612f7e565b8015611fe55780601f10611fba57610100808354040283529160200191611fe5565b820191906000526020600020905b815481529060010190602001808311611fc857829003601f168201915b505050505090806001018054611ffa90612f7e565b80601f016020809104026020016040519081016040528092919081815260200182805461202690612f7e565b80156120735780601f1061204857610100808354040283529160200191612073565b820191906000526020600020905b81548152906001019060200180831161205657829003601f168201915b50505060028401546003850154600486015460058701805496976001600160a01b039094169692955060ff90911693509061159790612f7e565b6001546001600160a01b031633146120d75760405162461bcd60e51b81526004016106439061316a565b600680549082905560408051828152602081018490527fda6ef35e324646a839d51fc31a263b65e8e7920da1676e95c81f1356c9bece0b910160405180910390a15050565b6001600160a01b0381166000908152600360209081526040808320805482518185028101850190935280835260609492939192909184015b8282101561220057838290600052602060002001805461217390612f7e565b80601f016020809104026020016040519081016040528092919081815260200182805461219f90612f7e565b80156121ec5780601f106121c1576101008083540402835291602001916121ec565b820191906000526020600020905b8154815290600101906020018083116121cf57829003601f168201915b505050505081526020019060010190612154565b505050509050919050565b606060006001600160a01b03166002836040516122289190612f38565b908152604051908190036020019020546001600160a01b03161461224a575090565b600060048360405161225c9190612f38565b9081526020016040518091039020805461227590612f7e565b80601f01602080910402602001604051908101604052809291908181526020018280546122a190612f7e565b80156122ee5780601f106122c3576101008083540402835291602001916122ee565b820191906000526020600020905b8154815290600101906020018083116122d157829003601f168201915b505050505090506000815111610d895760405162461bcd60e51b815260206004820152601060248201526f111bdb585a5b881b9bdd08199bdd5b9960821b6044820152606401610643565b6123706040805160c08101825260008082526060602083015290918201908152600060208201819052604082015260609081015290565b60006001600160a01b031660028360405161238b9190612f38565b908152604051908190036020019020546001600160a01b0316146124d3576002826040516123b99190612f38565b90815260408051918290036020908101832060c0840190925281546001600160a01b03168352600182018054918401916123f290612f7e565b80601f016020809104026020016040519081016040528092919081815260200182805461241e90612f7e565b801561246b5780601f106124405761010080835404028352916020019161246b565b820191906000526020600020905b81548152906001019060200180831161244e57829003601f168201915b5050509183525050600282015460209091019060ff16600181111561249257612492612bfd565b60018111156124a3576124a3612bfd565b815260038201546020820152600482015460ff16151560408201526005820180546060909201916118e090612f7e565b60006004836040516124e59190612f38565b908152602001604051809103902080546124fe90612f7e565b80601f016020809104026020016040519081016040528092919081815260200182805461252a90612f7e565b80156125775780601f1061254c57610100808354040283529160200191612577565b820191906000526020600020905b81548152906001019060200180831161255a57829003601f168201915b5050505050905060008151116125c05760405162461bcd60e51b815260206004820152600e60248201526d119bdc9b481b9bdd08199bdd5b9960921b6044820152606401610643565b6002816040516125d09190612f38565b90815260408051918290036020908101832060c0840190925281546001600160a01b031683526001820180549184019161260990612f7e565b80601f016020809104026020016040519081016040528092919081815260200182805461263590612f7e565b80156126825780601f1061265757610100808354040283529160200191612682565b820191906000526020600020905b81548152906001019060200180831161266557829003601f168201915b5050509183525050600282015460209091019060ff1660018111156126a9576126a9612bfd565b60018111156126ba576126ba612bfd565b815260038201546020820152600482015460ff16151560408201526005820180546060909201916126ea90612f7e565b80601f016020809104026020016040519081016040528092919081815260200182805461271690612f7e565b80156127635780601f1061273857610100808354040283529160200191612763565b820191906000526020600020905b81548152906001019060200180831161274657829003601f168201915b505050505081525050915050919050565b50805461278090612f7e565b6000825580601f10612790575050565b601f0160209004906000526020600020908101906127ae91906127f2565b50565b6040518060c00160405280606081526020016060815260200160006001600160a01b0316815260200160008152602001600015158152602001606081525090565b5b8082111561280757600081556001016127f3565b5090565b634e487b7160e01b600052604160045260246000fd5b600082601f83011261283257600080fd5b813567ffffffffffffffff8082111561284d5761284d61280b565b604051601f8301601f19908116603f011681019082821181831017156128755761287561280b565b8160405283815286602085880101111561288e57600080fd5b836020870160208301376000602085830101528094505050505092915050565b6000602082840312156128c057600080fd5b813567ffffffffffffffff8111156128d757600080fd5b6128e384828501612821565b949350505050565b600080604083850312156128fe57600080fd5b823567ffffffffffffffff8082111561291657600080fd5b61292286838701612821565b9350602085013591508082111561293857600080fd5b5061294585828601612821565b9150509250929050565b80356001600160a01b038116811461296657600080fd5b919050565b8035801515811461296657600080fd5b600080600080600060a0868803121561299357600080fd5b853567ffffffffffffffff808211156129ab57600080fd5b6129b789838a01612821565b965060208801359150808211156129cd57600080fd5b6129d989838a01612821565b95506129e76040890161294f565b94506129f56060890161296b565b93506080880135915080821115612a0b57600080fd5b50612a1888828901612821565b9150509295509295909350565b60008060408385031215612a3857600080fd5b823567ffffffffffffffff811115612a4f57600080fd5b612a5b85828601612821565b925050612a6a6020840161294f565b90509250929050565b60005b83811015612a8e578181015183820152602001612a76565b50506000910152565b60008151808452612aaf816020860160208601612a73565b601f01601f19169290920160200192915050565b602081526000612ad66020830184612a97565b9392505050565b60008060408385031215612af057600080fd5b823567ffffffffffffffff811115612b0757600080fd5b612b1385828601612821565b95602094909401359450505050565b6000815160c08452612b3760c0850182612a97565b905060208301518482036020860152612b508282612a97565b91505060018060a01b0360408401511660408501526060830151606085015260808301511515608085015260a083015184820360a0860152612b928282612a97565b95945050505050565b6000602080830181845280855180835260408601915060408160051b870101925083870160005b82811015612bf057603f19888603018452612bde858351612b22565b94509285019290850190600101612bc2565b5092979650505050505050565b634e487b7160e01b600052602160045260246000fd5b60028110612c3157634e487b7160e01b600052602160045260246000fd5b9052565b6001600160a01b038716815260c060208201819052600090612c5990830188612a97565b612c666040840188612c13565b856060840152841515608084015282810360a0840152612c868185612a97565b9998505050505050505050565b60008060408385031215612ca657600080fd5b612caf8361294f565b946020939093013593505050565b600060208284031215612ccf57600080fd5b5035919050565b602081526000612ad66020830184612b22565b60008060408385031215612cfc57600080fd5b823567ffffffffffffffff811115612d1357600080fd5b612d1f85828601612821565b925050612a6a6020840161296b565b600060208284031215612d4057600080fd5b612ad68261294f565b6020808252825182820181905260009190848201906040850190845b81811015612d8157835183529284019291840191600101612d65565b50909695505050505050565b60008060008060808587031215612da357600080fd5b612dac8561294f565b9350602085013567ffffffffffffffff80821115612dc957600080fd5b612dd588838901612821565b94506040870135915080821115612deb57600080fd5b50612df887828801612821565b925050606085013560028110612e0d57600080fd5b939692955090935050565b60c081526000612e2b60c0830189612a97565b8281036020840152612e3d8189612a97565b6001600160a01b038816604085015260608401879052851515608085015283810360a08501529050612c868185612a97565b6000602080830181845280855180835260408601915060408160051b870101925083870160005b82811015612bf057603f19888603018452612eb2858351612a97565b94509285019290850190600101612e96565b602080825282516001600160a01b03168282015282015160c06040830152600090612ef260e0840182612a97565b90506040840151612f066060850182612c13565b50606084015160808401526080840151151560a084015260a0840151601f198483030160c0850152612b928282612a97565b60008251612f4a818460208701612a73565b9190910192915050565b60208082526010908201526f2737ba103337b9369031b932b0ba37b960811b604082015260600190565b600181811c90821680612f9257607f821691505b602082108103612fb257634e487b7160e01b600052602260045260246000fd5b50919050565b601f82111561300257600081815260208120601f850160051c81016020861015612fdf5750805b601f850160051c820191505b81811015612ffe57828155600101612feb565b5050505b505050565b815167ffffffffffffffff8111156130215761302161280b565b6130358161302f8454612f7e565b84612fb8565b602080601f83116001811461306a57600084156130525750858301515b600019600386901b1c1916600185901b178555612ffe565b600085815260208120601f198616915b828110156130995788860151825594840194600190910190840161307a565b50858210156130b75787850151600019600388901b60f8161c191681555b5050505050600190811b01905550565b6040815260006130da6040830185612a97565b90508260208301529392505050565b634e487b7160e01b600052601160045260246000fd5b81810381811115610d8957610d896130e9565b83815260606020820152600061312b6060830185612a97565b9050826040830152949350505050565b634e487b7160e01b600052603260045260246000fd5b600060018201613163576131636130e9565b5060010190565b60208082526013908201527227b7363c9031b7b73a3930b1ba1037bbb732b960691b604082015260600190565b6060815260006131aa6060830186612a97565b90506131b96020830185612c13565b82604083015294935050505056fea2646970667358221220c1d28644f76f80038729cdf6a1e41c24ca49e14a0fc40ee705a415e40ddb939b64736f6c63430008140033",
  "linkReferences": {},
  "deployedLinkReferences": {}
}