{
  "_format": "hh-sol-artifact-1",
  "contractName": "FormRegistryIPNS",
  "sourceName": "contracts/FormRegistryIPNS.sol",
  "abi": [
    {
      "inputs": [
        {
          "internalType": "address",
          "name": "_serverWallet",
          "type": "address"
        }
      ],
      "stateMutability": "nonpayable",
      "type": "constructor"
    },
    {
      "anonymous": false,
      "inputs": [
        {
          "indexed": true,
          "internalType": "string",
          "name": "ipnsName",
          "type": "string"
        },
        {
          "indexed": false,
          "internalType": "uint256",
          "name": "submissionId",
          "type": "uint256"
        },
        {
          "indexed": false,
          "internalType": "uint256",
          "name": "timestamp",
          "type": "uint256"
        }
      ],
      "name": "AnonymousSubmissionReceived",
      "type": "event"
    },
    {
      "anonymous": false,
      "inputs": [
        {
          "indexed": true,
          "internalType": "string",
          "name": "ipnsName",
          "type": "string"
        },
        {
          "indexed": false,
          "internalType": "string",
          "name": "customDomain",
          "type": "string"
        },
        {
          "indexed": true,
          "internalType": "address",
          "name": "owner",
          "type": "address"
        },
        {
          "indexed": false,
          "internalType": "uint256",
          "name": "pricePaid",
          "type": "uint256"
        }
      ],
      "name": "CustomDomainRegistered",
      "type": "event"
    },
    {
      "anonymous": false,
      "inputs": [
        {
          "indexed": true,
          "internalType": "string",
          "name": "ipnsName",
          "type": "string"
        },
        {
          "indexed": false,
          "internalType": "string",
          "name": "customDomain",
          "type": "string"
        }
      ],
      "name": "CustomDomainReleased",
      "type": "event"
    },
    {
      "anonymous": false,
      "inputs": [
        {
          "indexed": false,
          "internalType": "uint256",
          "name": "oldPrice",
          "type": "uint256"
        },
        {
          "indexed": false,
          "internalType": "uint256",
          "name": "newPrice",
          "type": "uint256"
        }
      ],
      "name": "DomainPriceUpdated",
      "type": "event"
    },
    {
      "anonymous": false,
      "inputs": [
        {
          "indexed": true,
          "internalType": "string",
          "name": "ipnsName",
          "type": "string"
        },
        {
          "indexed": false,
          "internalType": "string",
          "name": "newEncryptedKeyCID",
          "type": "string"
        }
      ],
      "name": "EncryptedKeyUpdated",
      "type": "event"
    },
    {
      "anonymous": false,
      "inputs": [
        {
          "indexed": true,
          "internalType": "address",
          "name": "creator",
          "type": "address"
        },
        {
          "indexed": true,
          "internalType": "string",
          "name": "ipnsName",
          "type": "string"
        },
        {
          "indexed": false,
          "internalType": "string",
          "name": "encryptedKeyCID",
          "type": "string"
        },
        {
          "indexed": false,
          "internalType": "enum FormRegistryIPNS.PrivacyMode",
          "name": "privacyMode",
          "type": "uint8"
        },
        {
          "indexed": false,
          "internalType": "uint256",
          "name": "timestamp",
          "type": "uint256"
        }
      ],
      "name": "FormCreated",
      "type": "event"
    },
    {
      "anonymous": false,
      "inputs": [
        {
          "indexed": true,
          "internalType": "string",
          "name": "ipnsName",
          "type": "string"
        },
        {
          "indexed": false,
          "internalType": "bool",
          "name": "active",
          "type": "bool"
        }
      ],
      "name": "FormStatusChanged",
      "type": "event"
    },
    {
      "anonymous": false,
      "inputs": [
        {
          "indexed": true,
          "internalType": "string",
          "name": "ipnsName",
          "type": "string"
        },
        {
          "indexed": false,
          "internalType": "uint256",
          "name": "submissionId",
          "type": "uint256"
        },
        {
          "indexed": true,
          "internalType": "address",
          "name": "submitter",
          "type": "address"
        },
        {
          "indexed": false,
          "internalType": "bool",
          "name": "verified",
          "type": "bool"
        },
        {
          "indexed": false,
          "internalType": "uint256",
          "name": "timestamp",
          "type": "uint256"
        }
      ],
      "name": "IdentifiedSubmissionReceived",
      "type": "event"
    },
    {
      "inputs": [
        {
          "internalType": "uint256",
          "name": "",
          "type": "uint256"
        }
      ],
      "name": "anonymousSubmissions",
      "outputs": [
        {
          "internalType": "string",
          "name": "ipnsName",
          "type": "string"
        },
        {
          "internalType": "string",
          "name": "encryptedDataCID",
          "type": "string"
        },
        {
          "internalType": "uint256",
          "name": "timestamp",
          "type": "uint256"
        }
      ],
      "stateMutability": "view",
      "type": "function"
    },
    {
      "inputs": [
        {
          "internalType": "address",
          "name": "",
          "type": "address"
        },
        {
          "internalType": "uint256",
          "name": "",
          "type": "uint256"
        }
      ],
      "name": "creatorForms",
      "outputs": [
        {
          "internalType": "string",
          "name": "",
          "type": "string"
        }
      ],
      "stateMutability": "view",
      "type": "function"
    },
    {
      "inputs": [
        {
          "internalType": "string",
          "name": "",
          "type": "string"
        }
      ],
      "name": "customDomains",
      "outputs": [
        {
          "internalType": "string",
          "name": "",
          "type": "string"
        }
      ],
      "stateMutability": "view",
      "type": "function"
    },
    {
      "inputs": [
        {
          "internalType": "string",
          "name": "",
          "type": "string"
        }
      ],
      "name": "domainOwners",
      "outputs": [
        {
          "internalType": "address",
          "name": "",
          "type": "address"
        }
      ],
      "stateMutability": "view",
      "type": "function"
    },
    {
      "inputs": [],
      "name": "domainPrice",
      "outputs": [
        {
          "internalType": "uint256",
          "name": "",
          "type": "uint256"
        }
      ],
      "stateMutability": "view",
      "type": "function"
    },
    {
      "inputs": [
        {
          "internalType": "string",
          "name": "",
          "type": "string"
        },
        {
          "internalType": "uint256",
          "name": "",
          "type": "uint256"
        }
      ],
      "name": "formAnonymousSubmissions",
      "outputs": [
        {
          "internalType": "uint256",
          "name": "",
          "type": "uint256"
        }
      ],
      "stateMutability": "view",
      "type": "function"
    },
    {
      "inputs": [
        {
          "internalType": "string",
          "name": "",
          "type": "string"
        },
        {
          "internalType": "uint256",
          "name": "",
          "type": "uint256"
        }
      ],
      "name": "formIdentifiedSubmissions",
      "outputs": [
        {
          "internalType": "uint256",
          "name": "",
          "type": "uint256"
        }
      ],
      "stateMutability": "view",
      "type": "function"
    },
    {
      "inputs": [
        {
          "internalType": "string",
          "name": "",
          "type": "string"
        }
      ],
      "name": "forms",
      "outputs": [
        {
          "internalType": "address",
          "name": "creator",
          "type": "address"
        },
        {
          "internalType": "string",
          "name": "encryptedKeyCID",
          "type": "string"
        },
        {
          "internalType": "enum FormRegistryIPNS.PrivacyMode",
          "name": "privacyMode",
          "type": "uint8"
        },
        {
          "internalType": "uint256",
          "name": "createdAt",
          "type": "uint256"
        },
        {
          "internalType": "bool",
          "name": "active",
          "type": "bool"
        },
        {
          "internalType": "string",
          "name": "customDomain",
          "type": "string"
        }
      ],
      "stateMutability": "view",
      "type": "function"
    },
    {
      "inputs": [
        {
          "internalType": "string",
          "name": "ipnsName",
          "type": "string"
        }
      ],
      "name": "getAnonymousSubmissions",
      "outputs": [
        {
          "internalType": "uint256[]",
          "name": "",
          "type": "uint256[]"
        }
      ],
      "stateMutability": "view",
      "type": "function"
    },
    {
      "inputs": [
        {
          "internalType": "address",
          "name": "creator",
          "type": "address"
        }
      ],
      "name": "getCreatorForms",
      "outputs": [
        {
          "internalType": "string[]",
          "name": "",
          "type": "string[]"
        }
      ],
      "stateMutability": "view",
      "type": "function"
    },
    {
      "inputs": [
        {
          "internalType": "string",
          "name": "idOrDomain",
          "type": "string"
        }
      ],
      "name": "getForm",
      "outputs": [
        {
          "components": [
            {
              "internalType": "address",
              "name": "creator",
              "type": "address"
            },
            {
              "internalType": "string",
              "name": "encryptedKeyCID",
              "type": "string"
            },
            {
              "internalType": "enum FormRegistryIPNS.PrivacyMode",
              "name": "privacyMode",
              "type": "uint8"
            },
            {
              "internalType": "uint256",
              "name": "createdAt",
              "type": "uint256"
            },
            {
              "internalType": "bool",
              "name": "active",
              "type": "bool"
            },
            {
              "internalType": "string",
              "name": "customDomain",
              "type": "string"
            }
          ],
          "internalType": "struct FormRegistryIPNS.Form",
          "name": "",
          "type": "tuple"
        }
      ],
      "stateMutability": "view",
      "type": "function"
    },
    {
      "inputs": [
        {
          "internalType": "string",
          "name": "ipnsName",
          "type": "string"
        }
      ],
      "name": "getFormSubmissionCount",
      "outputs": [
        {
          "internalType": "uint256",
          "name": "",
          "type": "uint256"
        }
      ],
      "stateMutability": "view",
      "type": "function"
    },
    {
      "inputs": [
        {
          "internalType": "string",
          "name": "ipnsName",
          "type": "string"
        }
      ],
      "name": "getIdentifiedSubmissions",
      "outputs": [
        {
          "internalType": "uint256[]",
          "name": "",
          "type": "uint256[]"
        }
      ],
      "stateMutability": "view",
      "type": "function"
    },
    {
      "inputs": [
        {
          "internalType": "string",
          "name": "",
          "type": "string"
        }
      ],
      "name": "hasCustomDomain",
      "outputs": [
        {
          "internalType": "bool",
          "name": "",
          "type": "bool"
        }
      ],
      "stateMutability": "view",
      "type": "function"
    },
    {
      "inputs": [
        {
          "internalType": "uint256",
          "name": "",
          "type": "uint256"
        }
      ],
      "name": "identifiedSubmissions",
      "outputs": [
        {
          "internalType": "string",
          "name": "ipnsName",
          "type": "string"
        },
        {
          "internalType": "string",
          "name": "encryptedDataCID",
          "type": "string"
        },
        {
          "internalType": "address",
          "name": "submitter",
          "type": "address"
        },
        {
          "internalType": "uint256",
          "name": "timestamp",
          "type": "uint256"
        },
        {
          "internalType": "bool",
          "name": "verified",
          "type": "bool"
        },
        {
          "internalType": "string",
          "name": "identityType",
          "type": "string"
        }
      ],
      "stateMutability": "view",
      "type": "function"
    },
    {
      "inputs": [
        {
          "internalType": "string",
          "name": "ipnsName",
          "type": "string"
        },
        {
          "internalType": "address",
          "name": "user",
          "type": "address"
        }
      ],
      "name": "isFormCreator",
      "outputs": [
        {
          "internalType": "bool",
          "name": "",
          "type": "bool"
        }
      ],
      "stateMutability": "view",
      "type": "function"
    },
    {
      "inputs": [],
      "name": "owner",
      "outputs": [
        {
          "internalType": "address",
          "name": "",
          "type": "address"
        }
      ],
      "stateMutability": "view",
      "type": "function"
    },
    {
      "inputs": [
        {
          "internalType": "string",
          "name": "ipnsName",
          "type": "string"
        },
        {
          "internalType": "string",
          "name": "customDomain",
          "type": "string"
        }
      ],
      "name": "registerCustomDomain",
      "outputs": [],
      "stateMutability": "payable",
      "type": "function"
    },
    {
      "inputs": [
        {
          "internalType": "address",
          "name": "creator",
          "type": "address"
        },
        {
          "internalType": "string",
          "name": "ipnsName",
          "type": "string"
        },
        {
          "internalType": "string",
          "name": "encryptedKeyCID",
          "type": "string"
        },
        {
          "internalType": "enum FormRegistryIPNS.PrivacyMode",
          "name": "privacyMode",
          "type": "uint8"
        }
      ],
      "name": "registerForm",
      "outputs": [],
      "stateMutability": "nonpayable",
      "type": "function"
    },
    {
      "inputs": [
        {
          "internalType": "string",
          "name": "ipnsName",
          "type": "string"
        }
      ],
      "name": "releaseCustomDomain",
      "outputs": [],
      "stateMutability": "nonpayable",
      "type": "function"
    },
    {
      "inputs": [
        {
          "internalType": "string",
          "name": "idOrDomain",
          "type": "string"
        }
      ],
      "name": "resolveToIPNS",
      "outputs": [
        {
          "internalType": "string",
          "name": "",
          "type": "string"
        }
      ],
      "stateMutability": "view",
      "type": "function"
    },
    {
      "inputs": [],
      "name": "serverWallet",
      "outputs": [
        {
          "internalType": "address",
          "name": "",
          "type": "address"
        }
      ],
      "stateMutability": "view",
      "type": "function"
    },
    {
      "inputs": [
        {
          "internalType": "string",
          "name": "ipnsName",
          "type": "string"
        },
        {
          "internalType": "bool",
          "name": "active",
          "type": "bool"
        }
      ],
      "name": "setFormStatus",
      "outputs": [],
      "stateMutability": "nonpayable",
      "type": "function"
    },
    {
      "inputs": [
        {
          "internalType": "string",
          "name": "ipnsName",
          "type": "string"
        },
        {
          "internalType": "string",
          "name": "encryptedDataCID",
          "type": "string"
        }
      ],
      "name": "submitAnonymousResponse",
      "outputs": [],
      "stateMutability": "nonpayable",
      "type": "function"
    },
    {
      "inputs": [
        {
          "internalType": "string",
          "name": "ipnsName",
          "type": "string"
        },
        {
          "internalType": "string",
          "name": "encryptedDataCID",
          "type": "string"
        },
        {
          "internalType": "address",
          "name": "submitter",
          "type": "address"
        },
        {
          "internalType": "bool",
          "name": "verified",
          "type": "bool"
        },
        {
          "internalType": "string",
          "name": "identityType",
          "type": "string"
        }
      ],
      "name": "submitIdentifiedResponse",
      "outputs": [],
      "stateMutability": "nonpayable",
      "type": "function"
    },
    {
      "inputs": [
        {
          "internalType": "uint256",
          "name": "newPrice",
          "type": "uint256"
        }
      ],
      "name": "updateDomainPrice",
      "outputs": [],
      "stateMutability": "nonpayable",
      "type": "function"
    },
    {
      "inputs": [
        {
          "internalType": "string",
          "name": "ipnsName",
          "type": "string"
        },
        {
          "internalType": "string",
          "name": "newEncryptedKeyCID",
          "type": "string"
        }
      ],
      "name": "updateEncryptedKey",
      "outputs": [],
      "stateMutability": "nonpayable",
      "type": "function"
    },
    {
      "inputs": [
        {
          "internalType": "address",
          "name": "newServerWallet",
          "type": "address"
        }
      ],
      "name": "updateServerWallet",
      "outputs": [],
      "stateMutability": "nonpayable",
      "type": "function"
    },
    {
      "inputs": [],
      "name": "withdraw",
      "outputs": [],
      "stateMutability": "nonpayable",
      "type": "function"
    }
  ],
  "bytecode": "0x6080604052662386f26fc100006006553480156200001c57600080fd5b506040516200305c3803806200305c8339810160408190526200003f916200006e565b600080546001600160a01b039092166001600160a01b03199283161790556001805490911633179055620000a0565b6000602082840312156200008157600080fd5b81516001600160a01b03811681146200009957600080fd5b9392505050565b612fac80620000b06000396000f3fe6080604052600436106101c25760003560e01c80639c432feb116100f7578063e3c27d3211610095578063f68e967211610064578063f68e96721461058f578063fcbfedae146105bc578063fcd20050146105dc578063fcf29873146105fc57600080fd5b8063e3c27d32146104df578063efae532d146104ff578063f127b8c01461051f578063f2b498961461054e57600080fd5b8063aee5d5cf116100d1578063aee5d5cf14610444578063b9eb3d4e14610464578063be73ecd91461049f578063bec8f84c146104bf57600080fd5b80639c432feb146103e4578063a293a99614610404578063a42504911461042457600080fd5b80633ccfd60b1161016457806372cee4a51161013e57806372cee4a51461035257806384d7f28a146103725780638da5cb5b146103a45780639744c85b146103c457600080fd5b80633ccfd60b146102f95780635656675a1461030e5780635c97404a1461032e57600080fd5b806323813a10116101a057806323813a101461024a578063250553a81461027a57806329d93cfa1461029a5780633c8aea30146102c757600080fd5b806302eb092b146101c757806319dc869b146101dc5780631a59f0f014610212575b600080fd5b6101da6101d536600461270f565b610629565b005b3480156101e857600080fd5b506101fc6101f7366004612773565b610a20565b60405161020991906127b0565b60405180910390f35b34801561021e57600080fd5b50600054610232906001600160a01b031681565b6040516001600160a01b039091168152602001610209565b34801561025657600080fd5b5061026a61026536600461280b565b610b0f565b6040519015158152602001610209565b34801561028657600080fd5b506101da610295366004612773565b610b4e565b3480156102a657600080fd5b506102ba6102b5366004612773565b610dce565b60405161020991906128a9565b3480156102d357600080fd5b506102e76102e2366004612773565b610e73565b604051610209969594939291906128fb565b34801561030557600080fd5b506101da610fd9565b34801561031a57600080fd5b506102ba610329366004612959565b611088565b34801561033a57600080fd5b5061034460065481565b604051908152602001610209565b34801561035e57600080fd5b506101da61036d366004612993565b6110c0565b34801561037e57600080fd5b5061039261038d366004612a3d565b611350565b60405161020996959493929190612a56565b3480156103b057600080fd5b50600154610232906001600160a01b031681565b3480156103d057600080fd5b506101da6103df36600461270f565b6114c4565b3480156103f057600080fd5b506101da6103ff366004612aad565b6115c8565b34801561041057600080fd5b506101da61041f366004612af2565b611692565b34801561043057600080fd5b506101da61043f36600461270f565b611726565b34801561045057600080fd5b506101fc61045f366004612773565b611926565b34801561047057600080fd5b5061026a61047f366004612773565b805160208183018101805160058252928201919093012091525460ff1681565b3480156104ab57600080fd5b506103446104ba366004612b0d565b6119be565b3480156104cb57600080fd5b506103446104da366004612b0d565b6119fe565b3480156104eb57600080fd5b506101da6104fa366004612b52565b611a29565b34801561050b57600080fd5b506101da61051a366004612a3d565b611d02565b34801561052b57600080fd5b5061053f61053a366004612a3d565b611d71565b60405161020993929190612bdd565b34801561055a57600080fd5b50610232610569366004612773565b80516020818301810180516007825292820191909301209152546001600160a01b031681565b34801561059b57600080fd5b506105af6105aa366004612af2565b611ebb565b6040516102099190612c13565b3480156105c857600080fd5b506102ba6105d7366004612773565b611faa565b3480156105e857600080fd5b506103446105f7366004612773565b6120d8565b34801561060857600080fd5b5061061c610617366004612773565b612152565b6040516102099190612c75565b81336001600160a01b03166002826040516106449190612cf2565b908152604051908190036020019020546001600160a01b0316146106835760405162461bcd60e51b815260040161067a90612d0e565b60405180910390fd5b6002836040516106939190612cf2565b9081526040519081900360200190206004015460ff166106c55760405162461bcd60e51b815260040161067a90612d38565b60008251116107075760405162461bcd60e51b815260206004820152600e60248201526d24b73b30b634b2103237b6b0b4b760911b604482015260640161067a565b6004826040516107179190612cf2565b9081526020016040518091039020805461073090612d61565b1590506107765760405162461bcd60e51b81526020600482015260146024820152732237b6b0b4b71030b63932b0b23c903a30b5b2b760611b604482015260640161067a565b6006543410156107bf5760405162461bcd60e51b8152602060048201526014602482015273125b9cdd59999a58da595b9d081c185e5b595b9d60621b604482015260640161067a565b60006002846040516107d19190612cf2565b908152602001604051809103902060050180546107ed90612d61565b905011156108fc5760006002846040516108079190612cf2565b9081526020016040518091039020600501805461082390612d61565b80601f016020809104026020016040519081016040528092919081815260200182805461084f90612d61565b801561089c5780601f106108715761010080835404028352916020019161089c565b820191906000526020600020905b81548152906001019060200180831161087f57829003601f168201915b505050505090506004816040516108b39190612cf2565b908152602001604051809103902060006108cd9190612616565b6007816040516108dd9190612cf2565b90815260405190819003602001902080546001600160a01b0319169055505b8260048360405161090d9190612cf2565b908152602001604051809103902090816109279190612dea565b50336007836040516109399190612cf2565b908152602001604051809103902060006101000a8154816001600160a01b0302191690836001600160a01b031602179055508160028460405161097c9190612cf2565b908152602001604051809103902060050190816109999190612dea565b5060016005846040516109ac9190612cf2565b908152604051908190036020018120805492151560ff199093169290921790915533906109da908590612cf2565b60405180910390207fc5d8736081e77e77a41652d4d7e1fb830023061029d0ecce188243321840b8c38434604051610a13929190612eaa565b60405180910390a3505050565b60606000600283604051610a349190612cf2565b9081526040519081900360200190206002015460ff166001811115610a5b57610a5b6128c3565b14610aa15760405162461bcd60e51b8152602060048201526016602482015275466f726d20697320616e6f6e796d6f7573206d6f646560501b604482015260640161067a565b600a82604051610ab19190612cf2565b9081526040805191829003602090810183208054808302850183019093528284529190830182828015610b0357602002820191906000526020600020905b815481526020019060010190808311610aef575b50505050509050919050565b6000816001600160a01b0316600284604051610b2b9190612cf2565b908152604051908190036020019020546001600160a01b03161490505b92915050565b80336001600160a01b0316600282604051610b699190612cf2565b908152604051908190036020019020546001600160a01b031614610b9f5760405162461bcd60e51b815260040161067a90612d0e565b6000600283604051610bb19190612cf2565b90815260200160405180910390206005018054610bcd90612d61565b905011610c0f5760405162461bcd60e51b815260206004820152601060248201526f27379031bab9ba37b6903237b6b0b4b760811b604482015260640161067a565b6000600283604051610c219190612cf2565b90815260200160405180910390206005018054610c3d90612d61565b80601f0160208091040260200160405190810160405280929190818152602001828054610c6990612d61565b8015610cb65780601f10610c8b57610100808354040283529160200191610cb6565b820191906000526020600020905b815481529060010190602001808311610c9957829003601f168201915b50505050509050600481604051610ccd9190612cf2565b90815260200160405180910390206000610ce79190612616565b600781604051610cf79190612cf2565b90815260408051918290036020908101832080546001600160a01b0319169055820181526000825251600290610d2e908690612cf2565b90815260200160405180910390206005019081610d4b9190612dea565b506000600584604051610d5e9190612cf2565b908152604051908190036020018120805492151560ff1990931692909217909155610d8a908490612cf2565b60405180910390207ff151a5ad22ef072c645e7fabdbabef05aac2fc8a12c894155f94a39a16b2f10082604051610dc191906128a9565b60405180910390a2505050565b805160208183018101805160048252928201919093012091528054610df290612d61565b80601f0160208091040260200160405190810160405280929190818152602001828054610e1e90612d61565b8015610e6b5780601f10610e4057610100808354040283529160200191610e6b565b820191906000526020600020905b815481529060010190602001808311610e4e57829003601f168201915b505050505081565b8051602081830181018051600282529282019190930120915280546001820180546001600160a01b039092169291610eaa90612d61565b80601f0160208091040260200160405190810160405280929190818152602001828054610ed690612d61565b8015610f235780601f10610ef857610100808354040283529160200191610f23565b820191906000526020600020905b815481529060010190602001808311610f0657829003601f168201915b50505050600283015460038401546004850154600586018054959660ff94851696939550939091169291610f5690612d61565b80601f0160208091040260200160405190810160405280929190818152602001828054610f8290612d61565b8015610fcf5780601f10610fa457610100808354040283529160200191610fcf565b820191906000526020600020905b815481529060010190602001808311610fb257829003601f168201915b5050505050905086565b6001546001600160a01b031633146110035760405162461bcd60e51b815260040161067a90612ecc565b478061104a5760405162461bcd60e51b81526020600482015260166024820152754e6f2062616c616e636520746f20776974686472617760501b604482015260640161067a565b6001546040516001600160a01b039091169082156108fc029083906000818181858888f19350505050158015611084573d6000803e3d6000fd5b5050565b600360205281600052604060002081815481106110a457600080fd5b90600052602060002001600091509150508054610df290612d61565b6000546001600160a01b031633146110ea5760405162461bcd60e51b815260040161067a90612ef9565b6002856040516110fa9190612cf2565b9081526040519081900360200190206004015460ff1661112c5760405162461bcd60e51b815260040161067a90612d38565b600060028660405161113e9190612cf2565b9081526040519081900360200190206002015460ff166001811115611165576111656128c3565b146111ab5760405162461bcd60e51b8152602060048201526016602482015275466f726d20697320616e6f6e796d6f7573206d6f646560501b604482015260640161067a565b6040805160c081018252868152602081018690526001600160a01b03851691810191909152426060820152821515608082015260a0810182905260088054600181018255600091909152815160069091027ff3f7a9fe364faab93b216da50a3214154f22a0a2b415b23a84c8169e8b636ee30190819061122b9082612dea565b50602082015160018201906112409082612dea565b5060408201516002820180546001600160a01b0319166001600160a01b0390921691909117905560608201516003820155608082015160048201805460ff191691151591909117905560a0820151600582019061129d9082612dea565b5050600854600091506112b290600190612f25565b9050600a866040516112c49190612cf2565b908152604051908190036020908101822080546001810182556000918252919020018290556001600160a01b038516906112ff908890612cf2565b6040805191829003822084835286151560208401524283830152905190917f539db8747c39e7f4ae827d099e57e48b7e68e635d662d86e6e13aae42ebbf2b2919081900360600190a3505050505050565b6008818154811061136057600080fd5b906000526020600020906006020160009150905080600001805461138390612d61565b80601f01602080910402602001604051908101604052809291908181526020018280546113af90612d61565b80156113fc5780601f106113d1576101008083540402835291602001916113fc565b820191906000526020600020905b8154815290600101906020018083116113df57829003601f168201915b50505050509080600101805461141190612d61565b80601f016020809104026020016040519081016040528092919081815260200182805461143d90612d61565b801561148a5780601f1061145f5761010080835404028352916020019161148a565b820191906000526020600020905b81548152906001019060200180831161146d57829003601f168201915b50505060028401546003850154600486015460058701805496976001600160a01b039094169692955060ff909116935090610f5690612d61565b81336001600160a01b03166002826040516114df9190612cf2565b908152604051908190036020019020546001600160a01b0316146115155760405162461bcd60e51b815260040161067a90612d0e565b60008251116115545760405162461bcd60e51b815260206004820152600b60248201526a125b9d985b1a590810d25160aa1b604482015260640161067a565b816002846040516115659190612cf2565b908152602001604051809103902060010190816115829190612dea565b50826040516115919190612cf2565b60405180910390207fd28cb7b3a1e7a87156174f07534e2fed5fa92a11735371d20c7b72b21b5387ef83604051610dc191906128a9565b81336001600160a01b03166002826040516115e39190612cf2565b908152604051908190036020019020546001600160a01b0316146116195760405162461bcd60e51b815260040161067a90612d0e565b8160028460405161162a9190612cf2565b908152604051908190036020018120600401805492151560ff1990931692909217909155611659908490612cf2565b6040519081900381208315158252907f0531fbaee29f7653d6d9890d997d58b9965642da03275c47c0f6280e12ce958d90602001610dc1565b6001546001600160a01b031633146116bc5760405162461bcd60e51b815260040161067a90612ecc565b6001600160a01b0381166117045760405162461bcd60e51b815260206004820152600f60248201526e496e76616c6964206164647265737360881b604482015260640161067a565b600080546001600160a01b0319166001600160a01b0392909216919091179055565b6000546001600160a01b031633146117505760405162461bcd60e51b815260040161067a90612ef9565b6002826040516117609190612cf2565b9081526040519081900360200190206004015460ff166117925760405162461bcd60e51b815260040161067a90612d38565b60016002836040516117a49190612cf2565b9081526040519081900360200190206002015460ff1660018111156117cb576117cb6128c3565b146118115760405162461bcd60e51b8152602060048201526016602482015275466f726d207265717569726573206964656e7469747960501b604482015260640161067a565b6040805160608101825283815260208101839052429181019190915260098054600181018255600091909152815160039091027f6e1540171b6c0c960b71a7020d9f60077f6af931a8bbf590da0223dacf75c7af019081906118739082612dea565b50602082015160018201906118889082612dea565b50604091909101516002909101556009546000906118a890600190612f25565b9050600b836040516118ba9190612cf2565b908152604051908190036020908101822080546001810182556000918252919020018290556118ea908490612cf2565b60408051918290038220838352426020840152917fcdde0fbe34d846225bc898c018db21b7b38d11fc174b31fa695917d7676fcbe19101610dc1565b6060600160028360405161193a9190612cf2565b9081526040519081900360200190206002015460ff166001811115611961576119616128c3565b146119ae5760405162461bcd60e51b815260206004820152601760248201527f466f726d206973206964656e746966696564206d6f6465000000000000000000604482015260640161067a565b600b82604051610ab19190612cf2565b8151602081840181018051600a8252928201918501919091209190528054829081106119e957600080fd5b90600052602060002001600091509150505481565b8151602081840181018051600b8252928201918501919091209190528054829081106119e957600080fd5b6000546001600160a01b03163314611a535760405162461bcd60e51b815260040161067a90612ef9565b60006001600160a01b0316600284604051611a6e9190612cf2565b908152604051908190036020019020546001600160a01b031614611aca5760405162461bcd60e51b8152602060048201526013602482015272466f726d20616c72656164792065786973747360681b604482015260640161067a565b6001600160a01b038416611b205760405162461bcd60e51b815260206004820152601760248201527f496e76616c69642063726561746f722061646472657373000000000000000000604482015260640161067a565b6000835111611b655760405162461bcd60e51b8152602060048201526011602482015270496e76616c69642049504e53206e616d6560781b604482015260640161067a565b6040518060c00160405280856001600160a01b03168152602001838152602001826001811115611b9757611b976128c3565b815260200142815260200160011515815260200160405180602001604052806000815250815250600284604051611bce9190612cf2565b90815260405160209181900382019020825181546001600160a01b0319166001600160a01b03909116178155908201516001820190611c0d9082612dea565b50604082015160028201805460ff191660018381811115611c3057611c306128c3565b021790555060608201516003820155608082015160048201805460ff191691151591909117905560a08201516005820190611c6b9082612dea565b5050506001600160a01b038416600090815260036020908152604082208054600181018255908352912001611ca08482612dea565b5082604051611caf9190612cf2565b6040518091039020846001600160a01b03167fcfc85a8b1c16e20e4bfae35d9ad4a0723a0f70d42ac79a187fe1890ba32bf259848442604051611cf493929190612f46565b60405180910390a350505050565b6001546001600160a01b03163314611d2c5760405162461bcd60e51b815260040161067a90612ecc565b600680549082905560408051828152602081018490527fda6ef35e324646a839d51fc31a263b65e8e7920da1676e95c81f1356c9bece0b910160405180910390a15050565b60098181548110611d8157600080fd5b9060005260206000209060030201600091509050806000018054611da490612d61565b80601f0160208091040260200160405190810160405280929190818152602001828054611dd090612d61565b8015611e1d5780601f10611df257610100808354040283529160200191611e1d565b820191906000526020600020905b815481529060010190602001808311611e0057829003601f168201915b505050505090806001018054611e3290612d61565b80601f0160208091040260200160405190810160405280929190818152602001828054611e5e90612d61565b8015611eab5780601f10611e8057610100808354040283529160200191611eab565b820191906000526020600020905b815481529060010190602001808311611e8e57829003601f168201915b5050505050908060020154905083565b6001600160a01b0381166000908152600360209081526040808320805482518185028101850190935280835260609492939192909184015b82821015611f9f578382906000526020600020018054611f1290612d61565b80601f0160208091040260200160405190810160405280929190818152602001828054611f3e90612d61565b8015611f8b5780601f10611f6057610100808354040283529160200191611f8b565b820191906000526020600020905b815481529060010190602001808311611f6e57829003601f168201915b505050505081526020019060010190611ef3565b505050509050919050565b606060006001600160a01b0316600283604051611fc79190612cf2565b908152604051908190036020019020546001600160a01b031614611fe9575090565b6000600483604051611ffb9190612cf2565b9081526020016040518091039020805461201490612d61565b80601f016020809104026020016040519081016040528092919081815260200182805461204090612d61565b801561208d5780601f106120625761010080835404028352916020019161208d565b820191906000526020600020905b81548152906001019060200180831161207057829003601f168201915b505050505090506000815111610b485760405162461bcd60e51b815260206004820152601060248201526f111bdb585a5b881b9bdd08199bdd5b9960821b604482015260640161067a565b6000806002836040516120eb9190612cf2565b9081526040519081900360200190206002015460ff166001811115612112576121126128c3565b0361213d57600a826040516121279190612cf2565b9081526040519081900360200190205492915050565b600b826040516121279190612cf2565b919050565b6121896040805160c08101825260008082526060602083015290918201908152600060208201819052604082015260609081015290565b60006001600160a01b03166002836040516121a49190612cf2565b908152604051908190036020019020546001600160a01b031614612375576002826040516121d29190612cf2565b90815260408051918290036020908101832060c0840190925281546001600160a01b031683526001820180549184019161220b90612d61565b80601f016020809104026020016040519081016040528092919081815260200182805461223790612d61565b80156122845780601f1061225957610100808354040283529160200191612284565b820191906000526020600020905b81548152906001019060200180831161226757829003601f168201915b5050509183525050600282015460209091019060ff1660018111156122ab576122ab6128c3565b60018111156122bc576122bc6128c3565b815260038201546020820152600482015460ff16151560408201526005820180546060909201916122ec90612d61565b80601f016020809104026020016040519081016040528092919081815260200182805461231890612d61565b80156123655780601f1061233a57610100808354040283529160200191612365565b820191906000526020600020905b81548152906001019060200180831161234857829003601f168201915b5050505050815250509050919050565b60006004836040516123879190612cf2565b908152602001604051809103902080546123a090612d61565b80601f01602080910402602001604051908101604052809291908181526020018280546123cc90612d61565b80156124195780601f106123ee57610100808354040283529160200191612419565b820191906000526020600020905b8154815290600101906020018083116123fc57829003601f168201915b5050505050905060008151116124625760405162461bcd60e51b815260206004820152600e60248201526d119bdc9b481b9bdd08199bdd5b9960921b604482015260640161067a565b6002816040516124729190612cf2565b90815260408051918290036020908101832060c0840190925281546001600160a01b03168352600182018054918401916124ab90612d61565b80601f01602080910402602001604051908101604052809291908181526020018280546124d790612d61565b80156125245780601f106124f957610100808354040283529160200191612524565b820191906000526020600020905b81548152906001019060200180831161250757829003601f168201915b5050509183525050600282015460209091019060ff16600181111561254b5761254b6128c3565b600181111561255c5761255c6128c3565b815260038201546020820152600482015460ff161515604082015260058201805460609092019161258c90612d61565b80601f01602080910402602001604051908101604052809291908181526020018280546125b890612d61565b80156126055780601f106125da57610100808354040283529160200191612605565b820191906000526020600020905b8154815290600101906020018083116125e857829003601f168201915b505050505081525050915050919050565b50805461262290612d61565b6000825580601f10612632575050565b601f0160209004906000526020600020908101906126509190612653565b50565b5b808211156126685760008155600101612654565b5090565b634e487b7160e01b600052604160045260246000fd5b600082601f83011261269357600080fd5b813567ffffffffffffffff808211156126ae576126ae61266c565b604051601f8301601f19908116603f011681019082821181831017156126d6576126d661266c565b816040528381528660208588010111156126ef57600080fd5b836020870160208301376000602085830101528094505050505092915050565b6000806040838503121561272257600080fd5b823567ffffffffffffffff8082111561273a57600080fd5b61274686838701612682565b9350602085013591508082111561275c57600080fd5b5061276985828601612682565b9150509250929050565b60006020828403121561278557600080fd5b813567ffffffffffffffff81111561279c57600080fd5b6127a884828501612682565b949350505050565b6020808252825182820181905260009190848201906040850190845b818110156127e8578351835292840192918401916001016127cc565b50909695505050505050565b80356001600160a01b038116811461214d57600080fd5b6000806040838503121561281e57600080fd5b823567ffffffffffffffff81111561283557600080fd5b61284185828601612682565b925050612850602084016127f4565b90509250929050565b60005b8381101561287457818101518382015260200161285c565b50506000910152565b60008151808452612895816020860160208601612859565b601f01601f19169290920160200192915050565b6020815260006128bc602083018461287d565b9392505050565b634e487b7160e01b600052602160045260246000fd5b600281106128f757634e487b7160e01b600052602160045260246000fd5b9052565b6001600160a01b038716815260c06020820181905260009061291f9083018861287d565b61292c60408401886128d9565b856060840152841515608084015282810360a084015261294c818561287d565b9998505050505050505050565b6000806040838503121561296c57600080fd5b612975836127f4565b946020939093013593505050565b8035801515811461214d57600080fd5b600080600080600060a086880312156129ab57600080fd5b853567ffffffffffffffff808211156129c357600080fd5b6129cf89838a01612682565b965060208801359150808211156129e557600080fd5b6129f189838a01612682565b95506129ff604089016127f4565b9450612a0d60608901612983565b93506080880135915080821115612a2357600080fd5b50612a3088828901612682565b9150509295509295909350565b600060208284031215612a4f57600080fd5b5035919050565b60c081526000612a6960c083018961287d565b8281036020840152612a7b818961287d565b6001600160a01b038816604085015260608401879052851515608085015283810360a0850152905061294c818561287d565b60008060408385031215612ac057600080fd5b823567ffffffffffffffff811115612ad757600080fd5b612ae385828601612682565b92505061285060208401612983565b600060208284031215612b0457600080fd5b6128bc826127f4565b60008060408385031215612b2057600080fd5b823567ffffffffffffffff811115612b3757600080fd5b612b4385828601612682565b95602094909401359450505050565b60008060008060808587031215612b6857600080fd5b612b71856127f4565b9350602085013567ffffffffffffffff80821115612b8e57600080fd5b612b9a88838901612682565b94506040870135915080821115612bb057600080fd5b50612bbd87828801612682565b925050606085013560028110612bd257600080fd5b939692955090935050565b606081526000612bf0606083018661287d565b8281036020840152612c02818661287d565b915050826040830152949350505050565b6000602080830181845280855180835260408601915060408160051b870101925083870160005b82811015612c6857603f19888603018452612c5685835161287d565b94509285019290850190600101612c3a565b5092979650505050505050565b602080825282516001600160a01b03168282015282015160c06040830152600090612ca360e084018261287d565b90506040840151612cb760608501826128d9565b50606084015160808401526080840151151560a084015260a0840151601f198483030160c0850152612ce9828261287d565b95945050505050565b60008251612d04818460208701612859565b9190910192915050565b60208082526010908201526f2737ba103337b9369031b932b0ba37b960811b604082015260600190565b6020808252600f908201526e466f726d206e6f742061637469766560881b604082015260600190565b600181811c90821680612d7557607f821691505b602082108103612d9557634e487b7160e01b600052602260045260246000fd5b50919050565b601f821115612de557600081815260208120601f850160051c81016020861015612dc25750805b601f850160051c820191505b81811015612de157828155600101612dce565b5050505b505050565b815167ffffffffffffffff811115612e0457612e0461266c565b612e1881612e128454612d61565b84612d9b565b602080601f831160018114612e4d5760008415612e355750858301515b600019600386901b1c1916600185901b178555612de1565b600085815260208120601f198616915b82811015612e7c57888601518255948401946001909101908401612e5d565b5085821015612e9a5787850151600019600388901b60f8161c191681555b5050505050600190811b01905550565b604081526000612ebd604083018561287d565b90508260208301529392505050565b60208082526013908201527227b7363c9031b7b73a3930b1ba1037bbb732b960691b604082015260600190565b60208082526012908201527113db9b1e481cd95c9d995c881dd85b1b195d60721b604082015260600190565b81810381811115610b4857634e487b7160e01b600052601160045260246000fd5b606081526000612f59606083018661287d565b9050612f6860208301856128d9565b82604083015294935050505056fea26469706673582212208fa3324e017d9589c9be4907de9389f2fb5b0de804902518e56b681cd30b5d3a64736f6c63430008140033",
  "linkReferences": {},
  "deployedLinkReferences": {}
}