{"contracts/FormRegistryIPNS.sol":{"FormRegistryIPNS":{"abi":[{"inputs":[{"internalType":"address","name":"_serverWallet","type":"address"}],"stateMutability":"nonpayable","type":"constructor"},{"anonymous":false,"inputs":[{"indexed":true,"internalType":"string","name":"ipnsName","type":"string"},{"indexed":false,"internalType":"string","name":"customDomain","type":"string"},{"indexed":true,"internalType":"address","name":"owner","type":"address"},{"indexed":false,"internalType":"uint256","name":"pricePaid","type":"uint256"}],"name":"CustomDomainRegistered","type":"event"},{"anonymous":false,"inputs":[{"indexed":true,"internalType":"string","name":"ipnsName","type":"string"},{"indexed":false,"internalType":"string","name":"customDomain","type":"string"}],"name":"CustomDomainReleased","type":"event"},{"anonymous":false,"inputs":[{"indexed":false,"internalType":"uint256","name":"oldPrice","type":"uint256"},{"indexed":false,"internalType":"uint256","name":"newPrice","type":"uint256"}],"name":"DomainPriceUpdated","type":"event"},{"anonymous":false,"inputs":[{"indexed":true,"internalType":"string","name":"ipnsName","type":"string"},{"indexed":false,"internalType":"string","name":"newEncryptedKeyCID","type":"string"}],"name":"EncryptedKeyUpdated","type":"event"},{"anonymous":false,"inputs":[{"indexed":true,"internalType":"address","name":"creator","type":"address"},{"indexed":true,"internalType":"string","name":"ipnsName","type":"string"},{"indexed":false,"internalType":"string","name":"encryptedKeyCID","type":"string"},{"indexed":false,"internalType":"enum FormRegistryIPNS.PrivacyMode","name":"privacyMode","type":"uint8"},{"indexed":false,"internalType":"uint256","name":"timestamp","type":"uint256"}],"name":"FormCreated","type":"event"},{"anonymous":false,"inputs":[{"indexed":true,"internalType":"string","name":"ipnsName","type":"string"},{"indexed":false,"internalType":"bool","name":"active","type":"bool"}],"name":"FormStatusChanged","type":"event"},{"anonymous":false,"inputs":[{"indexed":true,"internalType":"string","name":"ipnsName","type":"string"},{"indexed":false,"internalType":"uint256","name":"responseId","type":"uint256"},{"indexed":true,"internalType":"address","name":"submitter","type":"address"},{"indexed":false,"internalType":"string","name":"responseCID","type":"string"},{"indexed":false,"internalType":"uint256","name":"timestamp","type":"uint256"}],"name":"ResponseSubmitted","type":"event"},{"inputs":[{"internalType":"address","name":"","type":"address"},{"internalType":"uint256","name":"","type":"uint256"}],"name":"creatorForms","outputs":[{"internalType":"string","name":"","type":"string"}],"stateMutability":"view","type":"function"},{"inputs":[{"internalType":"string","name":"","type":"string"}],"name":"customDomains","outputs":[{"internalType":"string","name":"","type":"string"}],"stateMutability":"view","type":"function"},{"inputs":[{"internalType":"string","name":"","type":"string"}],"name":"domainOwners","outputs":[{"internalType":"address","name":"","type":"address"}],"stateMutability":"view","type":"function"},{"inputs":[],"name":"domainPrice","outputs":[{"internalType":"uint256","name":"","type":"uint256"}],"stateMutability":"view","type":"function"},{"inputs":[{"internalType":"string","name":"","type":"string"},{"internalType":"uint256","name":"","type":"uint256"}],"name":"formResponses","outputs":[{"internalType":"uint256","name":"","type":"uint256"}],"stateMutability":"view","type":"function"},{"inputs":[{"internalType":"string","name":"","type":"string"}],"name":"forms","outputs":[{"internalType":"address","name":"creator","type":"address"},{"internalType":"string","name":"encryptedKeyCID","type":"string"},{"internalType":"enum FormRegistryIPNS.PrivacyMode","name":"privacyMode","type":"uint8"},{"internalType":"uint256","name":"createdAt","type":"uint256"},{"internalType":"bool","name":"active","type":"bool"},{"internalType":"string","name":"customDomain","type":"string"}],"stateMutability":"view","type":"function"},{"inputs":[{"internalType":"address","name":"creator","type":"address"}],"name":"getCreatorForms","outputs":[{"internalType":"string[]","name":"","type":"string[]"}],"stateMutability":"view","type":"function"},{"inputs":[{"internalType":"string","name":"idOrDomain","type":"string"}],"name":"getForm","outputs":[{"components":[{"internalType":"address","name":"creator","type":"address"},{"internalType":"string","name":"encryptedKeyCID","type":"string"},{"internalType":"enum FormRegistryIPNS.PrivacyMode","name":"privacyMode","type":"uint8"},{"internalType":"uint256","name":"createdAt","type":"uint256"},{"internalType":"bool","name":"active","type":"bool"},{"internalType":"string","name":"customDomain","type":"string"}],"internalType":"struct FormRegistryIPNS.Form","name":"","type":"tuple"}],"stateMutability":"view","type":"function"},{"inputs":[{"internalType":"string","name":"ipnsName","type":"string"}],"name":"getFormResponseCount","outputs":[{"internalType":"uint256","name":"","type":"uint256"}],"stateMutability":"view","type":"function"},{"inputs":[{"internalType":"string","name":"ipnsName","type":"string"}],"name":"getFormResponseDetails","outputs":[{"components":[{"internalType":"string","name":"ipnsName","type":"string"},{"internalType":"string","name":"responseCID","type":"string"},{"internalType":"address","name":"submitter","type":"address"},{"internalType":"uint256","name":"timestamp","type":"uint256"},{"internalType":"bool","name":"verified","type":"bool"},{"internalType":"string","name":"identityType","type":"string"}],"internalType":"struct FormRegistryIPNS.Response[]","name":"","type":"tuple[]"}],"stateMutability":"view","type":"function"},{"inputs":[{"internalType":"string","name":"ipnsName","type":"string"}],"name":"getFormResponses","outputs":[{"internalType":"uint256[]","name":"","type":"uint256[]"}],"stateMutability":"view","type":"function"},{"inputs":[{"internalType":"uint256","name":"responseId","type":"uint256"}],"name":"getResponse","outputs":[{"components":[{"internalType":"string","name":"ipnsName","type":"string"},{"internalType":"string","name":"responseCID","type":"string"},{"internalType":"address","name":"submitter","type":"address"},{"internalType":"uint256","name":"timestamp","type":"uint256"},{"internalType":"bool","name":"verified","type":"bool"},{"internalType":"string","name":"identityType","type":"string"}],"internalType":"struct FormRegistryIPNS.Response","name":"","type":"tuple"}],"stateMutability":"view","type":"function"},{"inputs":[{"internalType":"string","name":"","type":"string"}],"name":"hasCustomDomain","outputs":[{"internalType":"bool","name":"","type":"bool"}],"stateMutability":"view","type":"function"},{"inputs":[{"internalType":"string","name":"ipnsName","type":"string"},{"internalType":"address","name":"user","type":"address"}],"name":"isFormCreator","outputs":[{"internalType":"bool","name":"","type":"bool"}],"stateMutability":"view","type":"function"},{"inputs":[],"name":"owner","outputs":[{"internalType":"address","name":"","type":"address"}],"stateMutability":"view","type":"function"},{"inputs":[{"internalType":"string","name":"ipnsName","type":"string"},{"internalType":"string","name":"customDomain","type":"string"}],"name":"registerCustomDomain","outputs":[],"stateMutability":"payable","type":"function"},{"inputs":[{"internalType":"address","name":"creator","type":"address"},{"internalType":"string","name":"ipnsName","type":"string"},{"internalType":"string","name":"encryptedKeyCID","type":"string"},{"internalType":"enum FormRegistryIPNS.PrivacyMode","name":"privacyMode","type":"uint8"}],"name":"registerForm","outputs":[],"stateMutability":"nonpayable","type":"function"},{"inputs":[{"internalType":"string","name":"ipnsName","type":"string"}],"name":"releaseCustomDomain","outputs":[],"stateMutability":"nonpayable","type":"function"},{"inputs":[{"internalType":"string","name":"idOrDomain","type":"string"}],"name":"resolveToIPNS","outputs":[{"internalType":"string","name":"","type":"string"}],"stateMutability":"view","type":"function"},{"inputs":[{"internalType":"uint256","name":"","type":"uint256"}],"name":"responses","outputs":[{"internalType":"string","name":"ipnsName","type":"string"},{"internalType":"string","name":"responseCID","type":"string"},{"internalType":"address","name":"submitter","type":"address"},{"internalType":"uint256","name":"timestamp","type":"uint256"},{"internalType":"bool","name":"verified","type":"bool"},{"internalType":"string","name":"identityType","type":"string"}],"stateMutability":"view","type":"function"},{"inputs":[],"name":"serverWallet","outputs":[{"internalType":"address","name":"","type":"address"}],"stateMutability":"view","type":"function"},{"inputs":[{"internalType":"string","name":"ipnsName","type":"string"},{"internalType":"bool","name":"active","type":"bool"}],"name":"setFormStatus","outputs":[],"stateMutability":"nonpayable","type":"function"},{"inputs":[{"internalType":"string","name":"ipnsName","type":"string"},{"internalType":"string","name":"responseCID","type":"string"},{"internalType":"address","name":"submitter","type":"address"},{"internalType":"bool","name":"verified","type":"bool"},{"internalType":"string","name":"identityType","type":"string"}],"name":"submitResponse","outputs":[],"stateMutability":"nonpayable","type":"function"},{"inputs":[{"internalType":"uint256","name":"newPrice","type":"uint256"}],"name":"updateDomainPrice","outputs":[],"stateMutability":"nonpayable","type":"function"},{"inputs":[{"internalType":"string","name":"ipnsName","type":"string"},{"internalType":"string","name":"newEncryptedKeyCID","type":"string"}],"name":"updateEncryptedKey","outputs":[],"stateMutability":"nonpayable","type":"function"},{"inputs":[{"internalType":"address","name":"newServerWallet","type":"address"}],"name":"updateServerWallet","outputs":[],"stateMutability":"nonpayable","type":"function"},{"inputs":[],"name":"withdraw","outputs":[],"stateMutability":"nonpayable","type":"function"}],"evm":{"bytecode":{"linkReferences":{},"object":"6080604052662386f26fc100006006553480156200001c57600080fd5b50604051620032ad380380620032ad8339810160408190526200003f916200006e565b600080546001600160a01b039092166001600160a01b03199283161790556001805490911633179055620000a0565b6000602082840312156200008157600080fd5b81516001600160a01b03811681146200009957600080fd5b9392505050565b6131fd80620000b06000396000f3fe60806040526004361061019c5760003560e01c806370c18199116100ec578063e3c27d321161008a578063f2b4989611610064578063f2b498961461050f578063f68e967214610550578063fcbfedae1461057d578063fcf298731461059d57600080fd5b8063e3c27d321461049d578063ed35d7e5146104bd578063efae532d146104ef57600080fd5b80639c432feb116100c65780639c432feb146103f5578063a293a99614610415578063b045c57214610435578063b9eb3d4e1461046257600080fd5b806370c18199146103885780638da5cb5b146103b55780639744c85b146103d557600080fd5b806329d93cfa116101595780633c8aea30116101335780633c8aea301461030b5780633ccfd60b1461033d5780635656675a146103525780635c97404a1461037257600080fd5b806329d93cfa14610291578063315ae765146102be578063366d7103146102de57600080fd5b8063023b81f6146101a157806302eb092b146101d45780631a3d767e146101e95780631a59f0f01461020957806323813a1014610241578063250553a814610271575b600080fd5b3480156101ad57600080fd5b506101c16101bc3660046128ae565b6105ca565b6040519081526020015b60405180910390f35b6101e76101e23660046128eb565b6105f2565b005b3480156101f557600080fd5b506101e761020436600461297b565b610a0b565b34801561021557600080fd5b50600054610229906001600160a01b031681565b6040516001600160a01b0390911681526020016101cb565b34801561024d57600080fd5b5061026161025c366004612a25565b610d50565b60405190151581526020016101cb565b34801561027d57600080fd5b506101e761028c3660046128ae565b610d8f565b34801561029d57600080fd5b506102b16102ac3660046128ae565b61100f565b6040516101cb9190612ac3565b3480156102ca57600080fd5b506101c16102d9366004612add565b6110b4565b3480156102ea57600080fd5b506102fe6102f93660046128ae565b6110f4565b6040516101cb9190612b9b565b34801561031757600080fd5b5061032b6103263660046128ae565b6114b4565b6040516101cb96959493929190612c35565b34801561034957600080fd5b506101e761161a565b34801561035e57600080fd5b506102b161036d366004612c93565b6116c9565b34801561037e57600080fd5b506101c160065481565b34801561039457600080fd5b506103a86103a3366004612cbd565b611701565b6040516101cb9190612cd6565b3480156103c157600080fd5b50600154610229906001600160a01b031681565b3480156103e157600080fd5b506101e76103f03660046128eb565b611969565b34801561040157600080fd5b506101e7610410366004612ce9565b611a6d565b34801561042157600080fd5b506101e7610430366004612d2e565b611b37565b34801561044157600080fd5b506104556104503660046128ae565b611bcb565b6040516101cb9190612d49565b34801561046e57600080fd5b5061026161047d3660046128ae565b805160208183018101805160058252928201919093012091525460ff1681565b3480156104a957600080fd5b506101e76104b8366004612d8d565b611c3b565b3480156104c957600080fd5b506104dd6104d8366004612cbd565b611f39565b6040516101cb96959493929190612e18565b3480156104fb57600080fd5b506101e761050a366004612cbd565b6120ad565b34801561051b57600080fd5b5061022961052a3660046128ae565b80516020818301810180516007825292820191909301209152546001600160a01b031681565b34801561055c57600080fd5b5061057061056b366004612d2e565b61211c565b6040516101cb9190612e6f565b34801561058957600080fd5b506102b16105983660046128ae565b61220b565b3480156105a957600080fd5b506105bd6105b83660046128ae565b612339565b6040516101cb9190612ec4565b60006009826040516105dc9190612f38565b9081526040519081900360200190205492915050565b81336001600160a01b031660028260405161060d9190612f38565b908152604051908190036020019020546001600160a01b03161461064c5760405162461bcd60e51b815260040161064390612f54565b60405180910390fd5b60028360405161065c9190612f38565b9081526040519081900360200190206004015460ff166106b05760405162461bcd60e51b815260206004820152600f60248201526e466f726d206e6f742061637469766560881b6044820152606401610643565b60008251116106f25760405162461bcd60e51b815260206004820152600e60248201526d24b73b30b634b2103237b6b0b4b760911b6044820152606401610643565b6004826040516107029190612f38565b9081526020016040518091039020805461071b90612f7e565b1590506107615760405162461bcd60e51b81526020600482015260146024820152732237b6b0b4b71030b63932b0b23c903a30b5b2b760611b6044820152606401610643565b6006543410156107aa5760405162461bcd60e51b8152602060048201526014602482015273125b9cdd59999a58da595b9d081c185e5b595b9d60621b6044820152606401610643565b60006002846040516107bc9190612f38565b908152602001604051809103902060050180546107d890612f7e565b905011156108e75760006002846040516107f29190612f38565b9081526020016040518091039020600501805461080e90612f7e565b80601f016020809104026020016040519081016040528092919081815260200182805461083a90612f7e565b80156108875780601f1061085c57610100808354040283529160200191610887565b820191906000526020600020905b81548152906001019060200180831161086a57829003601f168201915b5050505050905060048160405161089e9190612f38565b908152602001604051809103902060006108b89190612774565b6007816040516108c89190612f38565b90815260405190819003602001902080546001600160a01b0319169055505b826004836040516108f89190612f38565b908152602001604051809103902090816109129190613007565b50336007836040516109249190612f38565b908152602001604051809103902060006101000a8154816001600160a01b0302191690836001600160a01b03160217905550816002846040516109679190612f38565b908152602001604051809103902060050190816109849190613007565b5060016005846040516109979190612f38565b908152604051908190036020018120805492151560ff199093169290921790915533906109c5908590612f38565b60405180910390207fc5d8736081e77e77a41652d4d7e1fb830023061029d0ecce188243321840b8c384346040516109fe9291906130c7565b60405180910390a3505050565b6000546001600160a01b03163314610a5a5760405162461bcd60e51b815260206004820152601260248201527113db9b1e481cd95c9d995c881dd85b1b195d60721b6044820152606401610643565b600285604051610a6a9190612f38565b9081526040519081900360200190206004015460ff16610abe5760405162461bcd60e51b815260206004820152600f60248201526e466f726d206e6f742061637469766560881b6044820152606401610643565b6000845111610b065760405162461bcd60e51b8152602060048201526014602482015273125b9d985b1a59081c995cdc1bdb9cd94810d25160621b6044820152606401610643565b6001600286604051610b189190612f38565b9081526040519081900360200190206002015460ff166001811115610b3f57610b3f612bfd565b03610bb1576001600160a01b03831615610bb15760405162461bcd60e51b815260206004820152602d60248201527f416e6f6e796d6f757320666f726d732063616e6e6f742068617665207375626d60448201526c6974746572206164647265737360981b6064820152608401610643565b6040805160c081018252868152602081018690526001600160a01b03851691810191909152426060820152821515608082015260a0810182905260088054600181018255600091909152815160069091027ff3f7a9fe364faab93b216da50a3214154f22a0a2b415b23a84c8169e8b636ee301908190610c319082613007565b5060208201516001820190610c469082613007565b5060408201516002820180546001600160a01b0319166001600160a01b0390921691909117905560608201516003820155608082015160048201805460ff191691151591909117905560a08201516005820190610ca39082613007565b505060085460009150610cb8906001906130ff565b9050600986604051610cca9190612f38565b908152604051908190036020908101822080546001810182556000918252919020018290556001600160a01b03851690610d05908890612f38565b60405180910390207fb3c8aaabafdb9bbbf465d1bf7e1777793e6ea5663c8c15d26b3ab88f0f112954838842604051610d4093929190613112565b60405180910390a3505050505050565b6000816001600160a01b0316600284604051610d6c9190612f38565b908152604051908190036020019020546001600160a01b03161490505b92915050565b80336001600160a01b0316600282604051610daa9190612f38565b908152604051908190036020019020546001600160a01b031614610de05760405162461bcd60e51b815260040161064390612f54565b6000600283604051610df29190612f38565b90815260200160405180910390206005018054610e0e90612f7e565b905011610e505760405162461bcd60e51b815260206004820152601060248201526f27379031bab9ba37b6903237b6b0b4b760811b6044820152606401610643565b6000600283604051610e629190612f38565b90815260200160405180910390206005018054610e7e90612f7e565b80601f0160208091040260200160405190810160405280929190818152602001828054610eaa90612f7e565b8015610ef75780601f10610ecc57610100808354040283529160200191610ef7565b820191906000526020600020905b815481529060010190602001808311610eda57829003601f168201915b50505050509050600481604051610f0e9190612f38565b90815260200160405180910390206000610f289190612774565b600781604051610f389190612f38565b90815260408051918290036020908101832080546001600160a01b0319169055820181526000825251600290610f6f908690612f38565b90815260200160405180910390206005019081610f8c9190613007565b506000600584604051610f9f9190612f38565b908152604051908190036020018120805492151560ff1990931692909217909155610fcb908490612f38565b60405180910390207ff151a5ad22ef072c645e7fabdbabef05aac2fc8a12c894155f94a39a16b2f100826040516110029190612ac3565b60405180910390a2505050565b80516020818301810180516004825292820191909301209152805461103390612f7e565b80601f016020809104026020016040519081016040528092919081815260200182805461105f90612f7e565b80156110ac5780601f10611081576101008083540402835291602001916110ac565b820191906000526020600020905b81548152906001019060200180831161108f57829003601f168201915b505050505081565b815160208184018101805160098252928201918501919091209190528054829081106110df57600080fd5b90600052602060002001600091509150505481565b6060336001600160a01b03166002836040516111109190612f38565b908152604051908190036020019020546001600160a01b0316146111825760405162461bcd60e51b8152602060048201526024808201527f4f6e6c7920666f726d2063726561746f722063616e207669657720726573706f6044820152636e73657360e01b6064820152608401610643565b60006009836040516111949190612f38565b90815260408051918290036020908101832080548083028501830190935282845291908301828280156111e657602002820191906000526020600020905b8154815260200190600101908083116111d2575b505050505090506000815167ffffffffffffffff8111156112095761120961280b565b60405190808252806020026020018201604052801561124257816020015b61122f6127b1565b8152602001906001900390816112275790505b50905060005b82518110156114ac5760088382815181106112655761126561313b565b60200260200101518154811061127d5761127d61313b565b90600052602060002090600602016040518060c00160405290816000820180546112a690612f7e565b80601f01602080910402602001604051908101604052809291908181526020018280546112d290612f7e565b801561131f5780601f106112f45761010080835404028352916020019161131f565b820191906000526020600020905b81548152906001019060200180831161130257829003601f168201915b5050505050815260200160018201805461133890612f7e565b80601f016020809104026020016040519081016040528092919081815260200182805461136490612f7e565b80156113b15780601f10611386576101008083540402835291602001916113b1565b820191906000526020600020905b81548152906001019060200180831161139457829003601f168201915b505050918352505060028201546001600160a01b0316602082015260038201546040820152600482015460ff16151560608201526005820180546080909201916113fa90612f7e565b80601f016020809104026020016040519081016040528092919081815260200182805461142690612f7e565b80156114735780601f1061144857610100808354040283529160200191611473565b820191906000526020600020905b81548152906001019060200180831161145657829003601f168201915b50505050508152505082828151811061148e5761148e61313b565b602002602001018190525080806114a490613151565b915050611248565b509392505050565b8051602081830181018051600282529282019190930120915280546001820180546001600160a01b0390921692916114eb90612f7e565b80601f016020809104026020016040519081016040528092919081815260200182805461151790612f7e565b80156115645780601f1061153957610100808354040283529160200191611564565b820191906000526020600020905b81548152906001019060200180831161154757829003601f168201915b50505050600283015460038401546004850154600586018054959660ff9485169693955093909116929161159790612f7e565b80601f01602080910402602001604051908101604052809291908181526020018280546115c390612f7e565b80156116105780601f106115e557610100808354040283529160200191611610565b820191906000526020600020905b8154815290600101906020018083116115f357829003601f168201915b5050505050905086565b6001546001600160a01b031633146116445760405162461bcd60e51b81526004016106439061316a565b478061168b5760405162461bcd60e51b81526020600482015260166024820152754e6f2062616c616e636520746f20776974686472617760501b6044820152606401610643565b6001546040516001600160a01b039091169082156108fc029083906000818181858888f193505050501580156116c5573d6000803e3d6000fd5b5050565b600360205281600052604060002081815481106116e557600080fd5b9060005260206000200160009150915050805461103390612f7e565b6117096127b1565b60085482106117505760405162461bcd60e51b8152602060048201526013602482015272125b9d985b1a59081c995cdc1bdb9cd9481251606a1b6044820152606401610643565b600882815481106117635761176361313b565b90600052602060002090600602016040518060c001604052908160008201805461178c90612f7e565b80601f01602080910402602001604051908101604052809291908181526020018280546117b890612f7e565b80156118055780601f106117da57610100808354040283529160200191611805565b820191906000526020600020905b8154815290600101906020018083116117e857829003601f168201915b5050505050815260200160018201805461181e90612f7e565b80601f016020809104026020016040519081016040528092919081815260200182805461184a90612f7e565b80156118975780601f1061186c57610100808354040283529160200191611897565b820191906000526020600020905b81548152906001019060200180831161187a57829003601f168201915b505050918352505060028201546001600160a01b0316602082015260038201546040820152600482015460ff16151560608201526005820180546080909201916118e090612f7e565b80601f016020809104026020016040519081016040528092919081815260200182805461190c90612f7e565b80156119595780601f1061192e57610100808354040283529160200191611959565b820191906000526020600020905b81548152906001019060200180831161193c57829003601f168201915b5050505050815250509050919050565b81336001600160a01b03166002826040516119849190612f38565b908152604051908190036020019020546001600160a01b0316146119ba5760405162461bcd60e51b815260040161064390612f54565b60008251116119f95760405162461bcd60e51b815260206004820152600b60248201526a125b9d985b1a590810d25160aa1b6044820152606401610643565b81600284604051611a0a9190612f38565b90815260200160405180910390206001019081611a279190613007565b5082604051611a369190612f38565b60405180910390207fd28cb7b3a1e7a87156174f07534e2fed5fa92a11735371d20c7b72b21b5387ef836040516110029190612ac3565b81336001600160a01b0316600282604051611a889190612f38565b908152604051908190036020019020546001600160a01b031614611abe5760405162461bcd60e51b815260040161064390612f54565b81600284604051611acf9190612f38565b908152604051908190036020018120600401805492151560ff1990931692909217909155611afe908490612f38565b6040519081900381208315158252907f0531fbaee29f7653d6d9890d997d58b9965642da03275c47c0f6280e12ce958d90602001611002565b6001546001600160a01b03163314611b615760405162461bcd60e51b81526004016106439061316a565b6001600160a01b038116611ba95760405162461bcd60e51b815260206004820152600f60248201526e496e76616c6964206164647265737360881b6044820152606401610643565b600080546001600160a01b0319166001600160a01b0392909216919091179055565b6060600982604051611bdd9190612f38565b9081526040805191829003602090810183208054808302850183019093528284529190830182828015611c2f57602002820191906000526020600020905b815481526020019060010190808311611c1b575b50505050509050919050565b6000546001600160a01b03163314611c8a5760405162461bcd60e51b815260206004820152601260248201527113db9b1e481cd95c9d995c881dd85b1b195d60721b6044820152606401610643565b60006001600160a01b0316600284604051611ca59190612f38565b908152604051908190036020019020546001600160a01b031614611d015760405162461bcd60e51b8152602060048201526013602482015272466f726d20616c72656164792065786973747360681b6044820152606401610643565b6001600160a01b038416611d575760405162461bcd60e51b815260206004820152601760248201527f496e76616c69642063726561746f7220616464726573730000000000000000006044820152606401610643565b6000835111611d9c5760405162461bcd60e51b8152602060048201526011602482015270496e76616c69642049504e53206e616d6560781b6044820152606401610643565b6040518060c00160405280856001600160a01b03168152602001838152602001826001811115611dce57611dce612bfd565b815260200142815260200160011515815260200160405180602001604052806000815250815250600284604051611e059190612f38565b90815260405160209181900382019020825181546001600160a01b0319166001600160a01b03909116178155908201516001820190611e449082613007565b50604082015160028201805460ff191660018381811115611e6757611e67612bfd565b021790555060608201516003820155608082015160048201805460ff191691151591909117905560a08201516005820190611ea29082613007565b5050506001600160a01b038416600090815260036020908152604082208054600181018255908352912001611ed78482613007565b5082604051611ee69190612f38565b6040518091039020846001600160a01b03167fcfc85a8b1c16e20e4bfae35d9ad4a0723a0f70d42ac79a187fe1890ba32bf259848442604051611f2b93929190613197565b60405180910390a350505050565b60088181548110611f4957600080fd5b9060005260206000209060060201600091509050806000018054611f6c90612f7e565b80601f0160208091040260200160405190810160405280929190818152602001828054611f9890612f7e565b8015611fe55780601f10611fba57610100808354040283529160200191611fe5565b820191906000526020600020905b815481529060010190602001808311611fc857829003601f168201915b505050505090806001018054611ffa90612f7e565b80601f016020809104026020016040519081016040528092919081815260200182805461202690612f7e565b80156120735780601f1061204857610100808354040283529160200191612073565b820191906000526020600020905b81548152906001019060200180831161205657829003601f168201915b50505060028401546003850154600486015460058701805496976001600160a01b039094169692955060ff90911693509061159790612f7e565b6001546001600160a01b031633146120d75760405162461bcd60e51b81526004016106439061316a565b600680549082905560408051828152602081018490527fda6ef35e324646a839d51fc31a263b65e8e7920da1676e95c81f1356c9bece0b910160405180910390a15050565b6001600160a01b0381166000908152600360209081526040808320805482518185028101850190935280835260609492939192909184015b8282101561220057838290600052602060002001805461217390612f7e565b80601f016020809104026020016040519081016040528092919081815260200182805461219f90612f7e565b80156121ec5780601f106121c1576101008083540402835291602001916121ec565b820191906000526020600020905b8154815290600101906020018083116121cf57829003601f168201915b505050505081526020019060010190612154565b505050509050919050565b606060006001600160a01b03166002836040516122289190612f38565b908152604051908190036020019020546001600160a01b03161461224a575090565b600060048360405161225c9190612f38565b9081526020016040518091039020805461227590612f7e565b80601f01602080910402602001604051908101604052809291908181526020018280546122a190612f7e565b80156122ee5780601f106122c3576101008083540402835291602001916122ee565b820191906000526020600020905b8154815290600101906020018083116122d157829003601f168201915b505050505090506000815111610d895760405162461bcd60e51b815260206004820152601060248201526f111bdb585a5b881b9bdd08199bdd5b9960821b6044820152606401610643565b6123706040805160c08101825260008082526060602083015290918201908152600060208201819052604082015260609081015290565b60006001600160a01b031660028360405161238b9190612f38565b908152604051908190036020019020546001600160a01b0316146124d3576002826040516123b99190612f38565b90815260408051918290036020908101832060c0840190925281546001600160a01b03168352600182018054918401916123f290612f7e565b80601f016020809104026020016040519081016040528092919081815260200182805461241e90612f7e565b801561246b5780601f106124405761010080835404028352916020019161246b565b820191906000526020600020905b81548152906001019060200180831161244e57829003601f168201915b5050509183525050600282015460209091019060ff16600181111561249257612492612bfd565b60018111156124a3576124a3612bfd565b815260038201546020820152600482015460ff16151560408201526005820180546060909201916118e090612f7e565b60006004836040516124e59190612f38565b908152602001604051809103902080546124fe90612f7e565b80601f016020809104026020016040519081016040528092919081815260200182805461252a90612f7e565b80156125775780601f1061254c57610100808354040283529160200191612577565b820191906000526020600020905b81548152906001019060200180831161255a57829003601f168201915b5050505050905060008151116125c05760405162461bcd60e51b815260206004820152600e60248201526d119bdc9b481b9bdd08199bdd5b9960921b6044820152606401610643565b6002816040516125d09190612f38565b90815260408051918290036020908101832060c0840190925281546001600160a01b031683526001820180549184019161260990612f7e565b80601f016020809104026020016040519081016040528092919081815260200182805461263590612f7e565b80156126825780601f1061265757610100808354040283529160200191612682565b820191906000526020600020905b81548152906001019060200180831161266557829003601f168201915b5050509183525050600282015460209091019060ff1660018111156126a9576126a9612bfd565b60018111156126ba576126ba612bfd565b815260038201546020820152600482015460ff16151560408201526005820180546060909201916126ea90612f7e565b80601f016020809104026020016040519081016040528092919081815260200182805461271690612f7e565b80156127635780601f1061273857610100808354040283529160200191612763565b820191906000526020600020905b81548152906001019060200180831161274657829003601f168201915b505050505081525050915050919050565b50805461278090612f7e565b6000825580601f10612790575050565b601f0160209004906000526020600020908101906127ae91906127f2565b50565b6040518060c00160405280606081526020016060815260200160006001600160a01b0316815260200160008152602001600015158152602001606081525090565b5b8082111561280757600081556001016127f3565b5090565b634e487b7160e01b600052604160045260246000fd5b600082601f83011261283257600080fd5b813567ffffffffffffffff8082111561284d5761284d61280b565b604051601f8301601f19908116603f011681019082821181831017156128755761287561280b565b8160405283815286602085880101111561288e57600080fd5b836020870160208301376000602085830101528094505050505092915050565b6000602082840312156128c057600080fd5b813567ffffffffffffffff8111156128d757600080fd5b6128e384828501612821565b949350505050565b600080604083850312156128fe57600080fd5b823567ffffffffffffffff8082111561291657600080fd5b61292286838701612821565b9350602085013591508082111561293857600080fd5b5061294585828601612821565b9150509250929050565b80356001600160a01b038116811461296657600080fd5b919050565b8035801515811461296657600080fd5b600080600080600060a0868803121561299357600080fd5b853567ffffffffffffffff808211156129ab57600080fd5b6129b789838a01612821565b965060208801359150808211156129cd57600080fd5b6129d989838a01612821565b95506129e76040890161294f565b94506129f56060890161296b565b93506080880135915080821115612a0b57600080fd5b50612a1888828901612821565b9150509295509295909350565b60008060408385031215612a3857600080fd5b823567ffffffffffffffff811115612a4f57600080fd5b612a5b85828601612821565b925050612a6a6020840161294f565b90509250929050565b60005b83811015612a8e578181015183820152602001612a76565b50506000910152565b60008151808452612aaf816020860160208601612a73565b601f01601f19169290920160200192915050565b602081526000612ad66020830184612a97565b9392505050565b60008060408385031215612af057600080fd5b823567ffffffffffffffff811115612b0757600080fd5b612b1385828601612821565b95602094909401359450505050565b6000815160c08452612b3760c0850182612a97565b905060208301518482036020860152612b508282612a97565b91505060018060a01b0360408401511660408501526060830151606085015260808301511515608085015260a083015184820360a0860152612b928282612a97565b95945050505050565b6000602080830181845280855180835260408601915060408160051b870101925083870160005b82811015612bf057603f19888603018452612bde858351612b22565b94509285019290850190600101612bc2565b5092979650505050505050565b634e487b7160e01b600052602160045260246000fd5b60028110612c3157634e487b7160e01b600052602160045260246000fd5b9052565b6001600160a01b038716815260c060208201819052600090612c5990830188612a97565b612c666040840188612c13565b856060840152841515608084015282810360a0840152612c868185612a97565b9998505050505050505050565b60008060408385031215612ca657600080fd5b612caf8361294f565b946020939093013593505050565b600060208284031215612ccf57600080fd5b5035919050565b602081526000612ad66020830184612b22565b60008060408385031215612cfc57600080fd5b823567ffffffffffffffff811115612d1357600080fd5b612d1f85828601612821565b925050612a6a6020840161296b565b600060208284031215612d4057600080fd5b612ad68261294f565b6020808252825182820181905260009190848201906040850190845b81811015612d8157835183529284019291840191600101612d65565b50909695505050505050565b60008060008060808587031215612da357600080fd5b612dac8561294f565b9350602085013567ffffffffffffffff80821115612dc957600080fd5b612dd588838901612821565b94506040870135915080821115612deb57600080fd5b50612df887828801612821565b925050606085013560028110612e0d57600080fd5b939692955090935050565b60c081526000612e2b60c0830189612a97565b8281036020840152612e3d8189612a97565b6001600160a01b038816604085015260608401879052851515608085015283810360a08501529050612c868185612a97565b6000602080830181845280855180835260408601915060408160051b870101925083870160005b82811015612bf057603f19888603018452612eb2858351612a97565b94509285019290850190600101612e96565b602080825282516001600160a01b03168282015282015160c06040830152600090612ef260e0840182612a97565b90506040840151612f066060850182612c13565b50606084015160808401526080840151151560a084015260a0840151601f198483030160c0850152612b928282612a97565b60008251612f4a818460208701612a73565b9190910192915050565b60208082526010908201526f2737ba103337b9369031b932b0ba37b960811b604082015260600190565b600181811c90821680612f9257607f821691505b602082108103612fb257634e487b7160e01b600052602260045260246000fd5b50919050565b601f82111561300257600081815260208120601f850160051c81016020861015612fdf5750805b601f850160051c820191505b81811015612ffe57828155600101612feb565b5050505b505050565b815167ffffffffffffffff8111156130215761302161280b565b6130358161302f8454612f7e565b84612fb8565b602080601f83116001811461306a57600084156130525750858301515b600019600386901b1c1916600185901b178555612ffe565b600085815260208120601f198616915b828110156130995788860151825594840194600190910190840161307a565b50858210156130b75787850151600019600388901b60f8161c191681555b5050505050600190811b01905550565b6040815260006130da6040830185612a97565b90508260208301529392505050565b634e487b7160e01b600052601160045260246000fd5b81810381811115610d8957610d896130e9565b83815260606020820152600061312b6060830185612a97565b9050826040830152949350505050565b634e487b7160e01b600052603260045260246000fd5b600060018201613163576131636130e9565b5060010190565b60208082526013908201527227b7363c9031b7b73a3930b1ba1037bbb732b960691b604082015260600190565b6060815260006131aa6060830186612a97565b90506131b96020830185612c13565b82604083015294935050505056fea2646970667358221220c1d28644f76f80038729cdf6a1e41c24ca49e14a0fc40ee705a415e40ddb939b64736f6c63430008140033","opcodes":"PUSH1 0x80 PUSH1 0x40 MSTORE PUSH7 0x2386F26FC10000 PUSH1 0x6 SSTORE CALLVALUE DUP1 ISZERO PUSH3 0x1C JUMPI PUSH1 0x0 DUP1 REVERT JUMPDEST POP PUSH1 0x40 MLOAD PUSH3 0x32AD CODESIZE SUB DUP1 PUSH3 0x32AD DUP4 CODECOPY DUP2 ADD PUSH1 0x40 DUP2 SWAP1 MSTORE PUSH3 0x3F SWAP2 PUSH3 0x6E JUMP JUMPDEST PUSH1 0x0 DUP1 SLOAD PUSH1 0x1 PUSH1 0x1 PUSH1 0xA0 SHL SUB SWAP1 SWAP3 AND PUSH1 0x1 PUSH1 0x1 PUSH1 0xA0 SHL SUB NOT SWAP3 DUP4 AND OR SWAP1 SSTORE PUSH1 0x1 DUP1 SLOAD SWAP1 SWAP2 AND CALLER OR SWAP1 SSTORE PUSH3 0xA0 JUMP JUMPDEST PUSH1 0x0 PUSH1 0x20 DUP3 DUP5 SUB SLT ISZERO PUSH3 0x81 JUMPI PUSH1 0x0 DUP1 REVERT JUMPDEST DUP2 MLOAD PUSH1 0x1 PUSH1 0x1 PUSH1 0xA0 SHL SUB DUP2 AND DUP2 EQ PUSH3 0x99 JUMPI PUSH1 0x0 DUP1 REVERT JUMPDEST SWAP4 SWAP3 POP POP POP JUMP JUMPDEST PUSH2 0x31FD DUP1 PUSH3 0xB0 PUSH1 0x0 CODECOPY PUSH1 0x0 RETURN INVALID PUSH1 0x80 PUSH1 0x40 MSTORE PUSH1 0x4 CALLDATASIZE LT PUSH2 0x19C JUMPI PUSH1 0x0 CALLDATALOAD PUSH1 0xE0 SHR DUP1 PUSH4 0x70C18199 GT PUSH2 0xEC JUMPI DUP1 PUSH4 0xE3C27D32 GT PUSH2 0x8A JUMPI DUP1 PUSH4 0xF2B49896 GT PUSH2 0x64 JUMPI DUP1 PUSH4 0xF2B49896 EQ PUSH2 0x50F JUMPI DUP1 PUSH4 0xF68E9672 EQ PUSH2 0x550 JUMPI DUP1 PUSH4 0xFCBFEDAE EQ PUSH2 0x57D JUMPI DUP1 PUSH4 0xFCF29873 EQ PUSH2 0x59D JUMPI PUSH1 0x0 DUP1 REVERT JUMPDEST DUP1 PUSH4 0xE3C27D32 EQ PUSH2 0x49D JUMPI DUP1 PUSH4 0xED35D7E5 EQ PUSH2 0x4BD JUMPI DUP1 PUSH4 0xEFAE532D EQ PUSH2 0x4EF JUMPI PUSH1 0x0 DUP1 REVERT JUMPDEST DUP1 PUSH4 0x9C432FEB GT PUSH2 0xC6 JUMPI DUP1 PUSH4 0x9C432FEB EQ PUSH2 0x3F5 JUMPI DUP1 PUSH4 0xA293A996 EQ PUSH2 0x415 JUMPI DUP1 PUSH4 0xB045C572 EQ PUSH2 0x435 JUMPI DUP1 PUSH4 0xB9EB3D4E EQ PUSH2 0x462 JUMPI PUSH1 0x0 DUP1 REVERT JUMPDEST DUP1 PUSH4 0x70C18199 EQ PUSH2 0x388 JUMPI DUP1 PUSH4 0x8DA5CB5B EQ PUSH2 0x3B5 JUMPI DUP1 PUSH4 0x9744C85B EQ PUSH2 0x3D5 JUMPI PUSH1 0x0 DUP1 REVERT JUMPDEST DUP1 PUSH4 0x29D93CFA GT PUSH2 0x159 JUMPI DUP1 PUSH4 0x3C8AEA30 GT PUSH2 0x133 JUMPI DUP1 PUSH4 0x3C8AEA30 EQ PUSH2 0x30B JUMPI DUP1 PUSH4 0x3CCFD60B EQ PUSH2 0x33D JUMPI DUP1 PUSH4 0x5656675A EQ PUSH2 0x352 JUMPI DUP1 PUSH4 0x5C97404A EQ PUSH2 0x372 JUMPI PUSH1 0x0 DUP1 REVERT JUMPDEST DUP1 PUSH4 0x29D93CFA EQ PUSH2 0x291 JUMPI DUP1 PUSH4 0x315AE765 EQ PUSH2 0x2BE JUMPI DUP1 PUSH4 0x366D7103 EQ PUSH2 0x2DE JUMPI PUSH1 0x0 DUP1 REVERT JUMPDEST DUP1 PUSH4 0x23B81F6 EQ PUSH2 0x1A1 JUMPI DUP1 PUSH4 0x2EB092B EQ PUSH2 0x1D4 JUMPI DUP1 PUSH4 0x1A3D767E EQ PUSH2 0x1E9 JUMPI DUP1 PUSH4 0x1A59F0F0 EQ PUSH2 0x209 JUMPI DUP1 PUSH4 0x23813A10 EQ PUSH2 0x241 JUMPI DUP1 PUSH4 0x250553A8 EQ PUSH2 0x271 JUMPI JUMPDEST PUSH1 0x0 DUP1 REVERT JUMPDEST CALLVALUE DUP1 ISZERO PUSH2 0x1AD JUMPI PUSH1 0x0 DUP1 REVERT JUMPDEST POP PUSH2 0x1C1 PUSH2 0x1BC CALLDATASIZE PUSH1 0x4 PUSH2 0x28AE JUMP JUMPDEST PUSH2 0x5CA JUMP JUMPDEST PUSH1 0x40 MLOAD SWAP1 DUP2 MSTORE PUSH1 0x20 ADD JUMPDEST PUSH1 0x40 MLOAD DUP1 SWAP2 SUB SWAP1 RETURN JUMPDEST PUSH2 0x1E7 PUSH2 0x1E2 CALLDATASIZE PUSH1 0x4 PUSH2 0x28EB JUMP JUMPDEST PUSH2 0x5F2 JUMP JUMPDEST STOP JUMPDEST CALLVALUE DUP1 ISZERO PUSH2 0x1F5 JUMPI PUSH1 0x0 DUP1 REVERT JUMPDEST POP PUSH2 0x1E7 PUSH2 0x204 CALLDATASIZE PUSH1 0x4 PUSH2 0x297B JUMP JUMPDEST PUSH2 0xA0B JUMP JUMPDEST CALLVALUE DUP1 ISZERO PUSH2 0x215 JUMPI PUSH1 0x0 DUP1 REVERT JUMPDEST POP PUSH1 0x0 SLOAD PUSH2 0x229 SWAP1 PUSH1 0x1 PUSH1 0x1 PUSH1 0xA0 SHL SUB AND DUP2 JUMP JUMPDEST PUSH1 0x40 MLOAD PUSH1 0x1 PUSH1 0x1 PUSH1 0xA0 SHL SUB SWAP1 SWAP2 AND DUP2 MSTORE PUSH1 0x20 ADD PUSH2 0x1CB JUMP JUMPDEST CALLVALUE DUP1 ISZERO PUSH2 0x24D JUMPI PUSH1 0x0 DUP1 REVERT JUMPDEST POP PUSH2 0x261 PUSH2 0x25C CALLDATASIZE PUSH1 0x4 PUSH2 0x2A25 JUMP JUMPDEST PUSH2 0xD50 JUMP JUMPDEST PUSH1 0x40 MLOAD SWAP1 ISZERO ISZERO DUP2 MSTORE PUSH1 0x20 ADD PUSH2 0x1CB JUMP JUMPDEST CALLVALUE DUP1 ISZERO PUSH2 0x27D JUMPI PUSH1 0x0 DUP1 REVERT JUMPDEST POP PUSH2 0x1E7 PUSH2 0x28C CALLDATASIZE PUSH1 0x4 PUSH2 0x28AE JUMP JUMPDEST PUSH2 0xD8F JUMP JUMPDEST CALLVALUE DUP1 ISZERO PUSH2 0x29D JUMPI PUSH1 0x0 DUP1 REVERT JUMPDEST POP PUSH2 0x2B1 PUSH2 0x2AC CALLDATASIZE PUSH1 0x4 PUSH2 0x28AE JUMP JUMPDEST PUSH2 0x100F JUMP JUMPDEST PUSH1 0x40 MLOAD PUSH2 0x1CB SWAP2 SWAP1 PUSH2 0x2AC3 JUMP JUMPDEST CALLVALUE DUP1 ISZERO PUSH2 0x2CA JUMPI PUSH1 0x0 DUP1 REVERT JUMPDEST POP PUSH2 0x1C1 PUSH2 0x2D9 CALLDATASIZE PUSH1 0x4 PUSH2 0x2ADD JUMP JUMPDEST PUSH2 0x10B4 JUMP JUMPDEST CALLVALUE DUP1 ISZERO PUSH2 0x2EA JUMPI PUSH1 0x0 DUP1 REVERT JUMPDEST POP PUSH2 0x2FE PUSH2 0x2F9 CALLDATASIZE PUSH1 0x4 PUSH2 0x28AE JUMP JUMPDEST PUSH2 0x10F4 JUMP JUMPDEST PUSH1 0x40 MLOAD PUSH2 0x1CB SWAP2 SWAP1 PUSH2 0x2B9B JUMP JUMPDEST CALLVALUE DUP1 ISZERO PUSH2 0x317 JUMPI PUSH1 0x0 DUP1 REVERT JUMPDEST POP PUSH2 0x32B PUSH2 0x326 CALLDATASIZE PUSH1 0x4 PUSH2 0x28AE JUMP JUMPDEST PUSH2 0x14B4 JUMP JUMPDEST PUSH1 0x40 MLOAD PUSH2 0x1CB SWAP7 SWAP6 SWAP5 SWAP4 SWAP3 SWAP2 SWAP1 PUSH2 0x2C35 JUMP JUMPDEST CALLVALUE DUP1 ISZERO PUSH2 0x349 JUMPI PUSH1 0x0 DUP1 REVERT JUMPDEST POP PUSH2 0x1E7 PUSH2 0x161A JUMP JUMPDEST CALLVALUE DUP1 ISZERO PUSH2 0x35E JUMPI PUSH1 0x0 DUP1 REVERT JUMPDEST POP PUSH2 0x2B1 PUSH2 0x36D CALLDATASIZE PUSH1 0x4 PUSH2 0x2C93 JUMP JUMPDEST PUSH2 0x16C9 JUMP JUMPDEST CALLVALUE DUP1 ISZERO PUSH2 0x37E JUMPI PUSH1 0x0 DUP1 REVERT JUMPDEST POP PUSH2 0x1C1 PUSH1 0x6 SLOAD DUP2 JUMP JUMPDEST CALLVALUE DUP1 ISZERO PUSH2 0x394 JUMPI PUSH1 0x0 DUP1 REVERT JUMPDEST POP PUSH2 0x3A8 PUSH2 0x3A3 CALLDATASIZE PUSH1 0x4 PUSH2 0x2CBD JUMP JUMPDEST PUSH2 0x1701 JUMP JUMPDEST PUSH1 0x40 MLOAD PUSH2 0x1CB SWAP2 SWAP1 PUSH2 0x2CD6 JUMP JUMPDEST CALLVALUE DUP1 ISZERO PUSH2 0x3C1 JUMPI PUSH1 0x0 DUP1 REVERT JUMPDEST POP PUSH1 0x1 SLOAD PUSH2 0x229 SWAP1 PUSH1 0x1 PUSH1 0x1 PUSH1 0xA0 SHL SUB AND DUP2 JUMP JUMPDEST CALLVALUE DUP1 ISZERO PUSH2 0x3E1 JUMPI PUSH1 0x0 DUP1 REVERT JUMPDEST POP PUSH2 0x1E7 PUSH2 0x3F0 CALLDATASIZE PUSH1 0x4 PUSH2 0x28EB JUMP JUMPDEST PUSH2 0x1969 JUMP JUMPDEST CALLVALUE DUP1 ISZERO PUSH2 0x401 JUMPI PUSH1 0x0 DUP1 REVERT JUMPDEST POP PUSH2 0x1E7 PUSH2 0x410 CALLDATASIZE PUSH1 0x4 PUSH2 0x2CE9 JUMP JUMPDEST PUSH2 0x1A6D JUMP JUMPDEST CALLVALUE DUP1 ISZERO PUSH2 0x421 JUMPI PUSH1 0x0 DUP1 REVERT JUMPDEST POP PUSH2 0x1E7 PUSH2 0x430 CALLDATASIZE PUSH1 0x4 PUSH2 0x2D2E JUMP JUMPDEST PUSH2 0x1B37 JUMP JUMPDEST CALLVALUE DUP1 ISZERO PUSH2 0x441 JUMPI PUSH1 0x0 DUP1 REVERT JUMPDEST POP PUSH2 0x455 PUSH2 0x450 CALLDATASIZE PUSH1 0x4 PUSH2 0x28AE JUMP JUMPDEST PUSH2 0x1BCB JUMP JUMPDEST PUSH1 0x40 MLOAD PUSH2 0x1CB SWAP2 SWAP1 PUSH2 0x2D49 JUMP JUMPDEST CALLVALUE DUP1 ISZERO PUSH2 0x46E JUMPI PUSH1 0x0 DUP1 REVERT JUMPDEST POP PUSH2 0x261 PUSH2 0x47D CALLDATASIZE PUSH1 0x4 PUSH2 0x28AE JUMP JUMPDEST DUP1 MLOAD PUSH1 0x20 DUP2 DUP4 ADD DUP2 ADD DUP1 MLOAD PUSH1 0x5 DUP3 MSTORE SWAP3 DUP3 ADD SWAP2 SWAP1 SWAP4 ADD KECCAK256 SWAP2 MSTORE SLOAD PUSH1 0xFF AND DUP2 JUMP JUMPDEST CALLVALUE DUP1 ISZERO PUSH2 0x4A9 JUMPI PUSH1 0x0 DUP1 REVERT JUMPDEST POP PUSH2 0x1E7 PUSH2 0x4B8 CALLDATASIZE PUSH1 0x4 PUSH2 0x2D8D JUMP JUMPDEST PUSH2 0x1C3B JUMP JUMPDEST CALLVALUE DUP1 ISZERO PUSH2 0x4C9 JUMPI PUSH1 0x0 DUP1 REVERT JUMPDEST POP PUSH2 0x4DD PUSH2 0x4D8 CALLDATASIZE PUSH1 0x4 PUSH2 0x2CBD JUMP JUMPDEST PUSH2 0x1F39 JUMP JUMPDEST PUSH1 0x40 MLOAD PUSH2 0x1CB SWAP7 SWAP6 SWAP5 SWAP4 SWAP3 SWAP2 SWAP1 PUSH2 0x2E18 JUMP JUMPDEST CALLVALUE DUP1 ISZERO PUSH2 0x4FB JUMPI PUSH1 0x0 DUP1 REVERT JUMPDEST POP PUSH2 0x1E7 PUSH2 0x50A CALLDATASIZE PUSH1 0x4 PUSH2 0x2CBD JUMP JUMPDEST PUSH2 0x20AD JUMP JUMPDEST CALLVALUE DUP1 ISZERO PUSH2 0x51B JUMPI PUSH1 0x0 DUP1 REVERT JUMPDEST POP PUSH2 0x229 PUSH2 0x52A CALLDATASIZE PUSH1 0x4 PUSH2 0x28AE JUMP JUMPDEST DUP1 MLOAD PUSH1 0x20 DUP2 DUP4 ADD DUP2 ADD DUP1 MLOAD PUSH1 0x7 DUP3 MSTORE SWAP3 DUP3 ADD SWAP2 SWAP1 SWAP4 ADD KECCAK256 SWAP2 MSTORE SLOAD PUSH1 0x1 PUSH1 0x1 PUSH1 0xA0 SHL SUB AND DUP2 JUMP JUMPDEST CALLVALUE DUP1 ISZERO PUSH2 0x55C JUMPI PUSH1 0x0 DUP1 REVERT JUMPDEST POP PUSH2 0x570 PUSH2 0x56B CALLDATASIZE PUSH1 0x4 PUSH2 0x2D2E JUMP JUMPDEST PUSH2 0x211C JUMP JUMPDEST PUSH1 0x40 MLOAD PUSH2 0x1CB SWAP2 SWAP1 PUSH2 0x2E6F JUMP JUMPDEST CALLVALUE DUP1 ISZERO PUSH2 0x589 JUMPI PUSH1 0x0 DUP1 REVERT JUMPDEST POP PUSH2 0x2B1 PUSH2 0x598 CALLDATASIZE PUSH1 0x4 PUSH2 0x28AE JUMP JUMPDEST PUSH2 0x220B JUMP JUMPDEST CALLVALUE DUP1 ISZERO PUSH2 0x5A9 JUMPI PUSH1 0x0 DUP1 REVERT JUMPDEST POP PUSH2 0x5BD PUSH2 0x5B8 CALLDATASIZE PUSH1 0x4 PUSH2 0x28AE JUMP JUMPDEST PUSH2 0x2339 JUMP JUMPDEST PUSH1 0x40 MLOAD PUSH2 0x1CB SWAP2 SWAP1 PUSH2 0x2EC4 JUMP JUMPDEST PUSH1 0x0 PUSH1 0x9 DUP3 PUSH1 0x40 MLOAD PUSH2 0x5DC SWAP2 SWAP1 PUSH2 0x2F38 JUMP JUMPDEST SWAP1 DUP2 MSTORE PUSH1 0x40 MLOAD SWAP1 DUP2 SWAP1 SUB PUSH1 0x20 ADD SWAP1 KECCAK256 SLOAD SWAP3 SWAP2 POP POP JUMP JUMPDEST DUP2 CALLER PUSH1 0x1 PUSH1 0x1 PUSH1 0xA0 SHL SUB AND PUSH1 0x2 DUP3 PUSH1 0x40 MLOAD PUSH2 0x60D SWAP2 SWAP1 PUSH2 0x2F38 JUMP JUMPDEST SWAP1 DUP2 MSTORE PUSH1 0x40 MLOAD SWAP1 DUP2 SWAP1 SUB PUSH1 0x20 ADD SWAP1 KECCAK256 SLOAD PUSH1 0x1 PUSH1 0x1 PUSH1 0xA0 SHL SUB AND EQ PUSH2 0x64C JUMPI PUSH1 0x40 MLOAD PUSH3 0x461BCD PUSH1 0xE5 SHL DUP2 MSTORE PUSH1 0x4 ADD PUSH2 0x643 SWAP1 PUSH2 0x2F54 JUMP JUMPDEST PUSH1 0x40 MLOAD DUP1 SWAP2 SUB SWAP1 REVERT JUMPDEST PUSH1 0x2 DUP4 PUSH1 0x40 MLOAD PUSH2 0x65C SWAP2 SWAP1 PUSH2 0x2F38 JUMP JUMPDEST SWAP1 DUP2 MSTORE PUSH1 0x40 MLOAD SWAP1 DUP2 SWAP1 SUB PUSH1 0x20 ADD SWAP1 KECCAK256 PUSH1 0x4 ADD SLOAD PUSH1 0xFF AND PUSH2 0x6B0 JUMPI PUSH1 0x40 MLOAD PUSH3 0x461BCD PUSH1 0xE5 SHL DUP2 MSTORE PUSH1 0x20 PUSH1 0x4 DUP3 ADD MSTORE PUSH1 0xF PUSH1 0x24 DUP3 ADD MSTORE PUSH15 0x466F726D206E6F7420616374697665 PUSH1 0x88 SHL PUSH1 0x44 DUP3 ADD MSTORE PUSH1 0x64 ADD PUSH2 0x643 JUMP JUMPDEST PUSH1 0x0 DUP3 MLOAD GT PUSH2 0x6F2 JUMPI PUSH1 0x40 MLOAD PUSH3 0x461BCD PUSH1 0xE5 SHL DUP2 MSTORE PUSH1 0x20 PUSH1 0x4 DUP3 ADD MSTORE PUSH1 0xE PUSH1 0x24 DUP3 ADD MSTORE PUSH14 0x24B73B30B634B2103237B6B0B4B7 PUSH1 0x91 SHL PUSH1 0x44 DUP3 ADD MSTORE PUSH1 0x64 ADD PUSH2 0x643 JUMP JUMPDEST PUSH1 0x4 DUP3 PUSH1 0x40 MLOAD PUSH2 0x702 SWAP2 SWAP1 PUSH2 0x2F38 JUMP JUMPDEST SWAP1 DUP2 MSTORE PUSH1 0x20 ADD PUSH1 0x40 MLOAD DUP1 SWAP2 SUB SWAP1 KECCAK256 DUP1 SLOAD PUSH2 0x71B SWAP1 PUSH2 0x2F7E JUMP JUMPDEST ISZERO SWAP1 POP PUSH2 0x761 JUMPI PUSH1 0x40 MLOAD PUSH3 0x461BCD PUSH1 0xE5 SHL DUP2 MSTORE PUSH1 0x20 PUSH1 0x4 DUP3 ADD MSTORE PUSH1 0x14 PUSH1 0x24 DUP3 ADD MSTORE PUSH20 0x2237B6B0B4B71030B63932B0B23C903A30B5B2B7 PUSH1 0x61 SHL PUSH1 0x44 DUP3 ADD MSTORE PUSH1 0x64 ADD PUSH2 0x643 JUMP JUMPDEST PUSH1 0x6 SLOAD CALLVALUE LT ISZERO PUSH2 0x7AA JUMPI PUSH1 0x40 MLOAD PUSH3 0x461BCD PUSH1 0xE5 SHL DUP2 MSTORE PUSH1 0x20 PUSH1 0x4 DUP3 ADD MSTORE PUSH1 0x14 PUSH1 0x24 DUP3 ADD MSTORE PUSH20 0x125B9CDD59999A58DA595B9D081C185E5B595B9D PUSH1 0x62 SHL PUSH1 0x44 DUP3 ADD MSTORE PUSH1 0x64 ADD PUSH2 0x643 JUMP JUMPDEST PUSH1 0x0 PUSH1 0x2 DUP5 PUSH1 0x40 MLOAD PUSH2 0x7BC SWAP2 SWAP1 PUSH2 0x2F38 JUMP JUMPDEST SWAP1 DUP2 MSTORE PUSH1 0x20 ADD PUSH1 0x40 MLOAD DUP1 SWAP2 SUB SWAP1 KECCAK256 PUSH1 0x5 ADD DUP1 SLOAD PUSH2 0x7D8 SWAP1 PUSH2 0x2F7E JUMP JUMPDEST SWAP1 POP GT ISZERO PUSH2 0x8E7 JUMPI PUSH1 0x0 PUSH1 0x2 DUP5 PUSH1 0x40 MLOAD PUSH2 0x7F2 SWAP2 SWAP1 PUSH2 0x2F38 JUMP JUMPDEST SWAP1 DUP2 MSTORE PUSH1 0x20 ADD PUSH1 0x40 MLOAD DUP1 SWAP2 SUB SWAP1 KECCAK256 PUSH1 0x5 ADD DUP1 SLOAD PUSH2 0x80E SWAP1 PUSH2 0x2F7E JUMP JUMPDEST DUP1 PUSH1 0x1F ADD PUSH1 0x20 DUP1 SWAP2 DIV MUL PUSH1 0x20 ADD PUSH1 0x40 MLOAD SWAP1 DUP2 ADD PUSH1 0x40 MSTORE DUP1 SWAP3 SWAP2 SWAP1 DUP2 DUP2 MSTORE PUSH1 0x20 ADD DUP3 DUP1 SLOAD PUSH2 0x83A SWAP1 PUSH2 0x2F7E JUMP JUMPDEST DUP1 ISZERO PUSH2 0x887 JUMPI DUP1 PUSH1 0x1F LT PUSH2 0x85C JUMPI PUSH2 0x100 DUP1 DUP4 SLOAD DIV MUL DUP4 MSTORE SWAP2 PUSH1 0x20 ADD SWAP2 PUSH2 0x887 JUMP JUMPDEST DUP3 ADD SWAP2 SWAP1 PUSH1 0x0 MSTORE PUSH1 0x20 PUSH1 0x0 KECCAK256 SWAP1 JUMPDEST DUP2 SLOAD DUP2 MSTORE SWAP1 PUSH1 0x1 ADD SWAP1 PUSH1 0x20 ADD DUP1 DUP4 GT PUSH2 0x86A JUMPI DUP3 SWAP1 SUB PUSH1 0x1F AND DUP3 ADD SWAP2 JUMPDEST POP POP POP POP POP SWAP1 POP PUSH1 0x4 DUP2 PUSH1 0x40 MLOAD PUSH2 0x89E SWAP2 SWAP1 PUSH2 0x2F38 JUMP JUMPDEST SWAP1 DUP2 MSTORE PUSH1 0x20 ADD PUSH1 0x40 MLOAD DUP1 SWAP2 SUB SWAP1 KECCAK256 PUSH1 0x0 PUSH2 0x8B8 SWAP2 SWAP1 PUSH2 0x2774 JUMP JUMPDEST PUSH1 0x7 DUP2 PUSH1 0x40 MLOAD PUSH2 0x8C8 SWAP2 SWAP1 PUSH2 0x2F38 JUMP JUMPDEST SWAP1 DUP2 MSTORE PUSH1 0x40 MLOAD SWAP1 DUP2 SWAP1 SUB PUSH1 0x20 ADD SWAP1 KECCAK256 DUP1 SLOAD PUSH1 0x1 PUSH1 0x1 PUSH1 0xA0 SHL SUB NOT AND SWAP1 SSTORE POP JUMPDEST DUP3 PUSH1 0x4 DUP4 PUSH1 0x40 MLOAD PUSH2 0x8F8 SWAP2 SWAP1 PUSH2 0x2F38 JUMP JUMPDEST SWAP1 DUP2 MSTORE PUSH1 0x20 ADD PUSH1 0x40 MLOAD DUP1 SWAP2 SUB SWAP1 KECCAK256 SWAP1 DUP2 PUSH2 0x912 SWAP2 SWAP1 PUSH2 0x3007 JUMP JUMPDEST POP CALLER PUSH1 0x7 DUP4 PUSH1 0x40 MLOAD PUSH2 0x924 SWAP2 SWAP1 PUSH2 0x2F38 JUMP JUMPDEST SWAP1 DUP2 MSTORE PUSH1 0x20 ADD PUSH1 0x40 MLOAD DUP1 SWAP2 SUB SWAP1 KECCAK256 PUSH1 0x0 PUSH2 0x100 EXP DUP2 SLOAD DUP2 PUSH1 0x1 PUSH1 0x1 PUSH1 0xA0 SHL SUB MUL NOT AND SWAP1 DUP4 PUSH1 0x1 PUSH1 0x1 PUSH1 0xA0 SHL SUB AND MUL OR SWAP1 SSTORE POP DUP2 PUSH1 0x2 DUP5 PUSH1 0x40 MLOAD PUSH2 0x967 SWAP2 SWAP1 PUSH2 0x2F38 JUMP JUMPDEST SWAP1 DUP2 MSTORE PUSH1 0x20 ADD PUSH1 0x40 MLOAD DUP1 SWAP2 SUB SWAP1 KECCAK256 PUSH1 0x5 ADD SWAP1 DUP2 PUSH2 0x984 SWAP2 SWAP1 PUSH2 0x3007 JUMP JUMPDEST POP PUSH1 0x1 PUSH1 0x5 DUP5 PUSH1 0x40 MLOAD PUSH2 0x997 SWAP2 SWAP1 PUSH2 0x2F38 JUMP JUMPDEST SWAP1 DUP2 MSTORE PUSH1 0x40 MLOAD SWAP1 DUP2 SWAP1 SUB PUSH1 0x20 ADD DUP2 KECCAK256 DUP1 SLOAD SWAP3 ISZERO ISZERO PUSH1 0xFF NOT SWAP1 SWAP4 AND SWAP3 SWAP1 SWAP3 OR SWAP1 SWAP2 SSTORE CALLER SWAP1 PUSH2 0x9C5 SWAP1 DUP6 SWAP1 PUSH2 0x2F38 JUMP JUMPDEST PUSH1 0x40 MLOAD DUP1 SWAP2 SUB SWAP1 KECCAK256 PUSH32 0xC5D8736081E77E77A41652D4D7E1FB830023061029D0ECCE188243321840B8C3 DUP5 CALLVALUE PUSH1 0x40 MLOAD PUSH2 0x9FE SWAP3 SWAP2 SWAP1 PUSH2 0x30C7 JUMP JUMPDEST PUSH1 0x40 MLOAD DUP1 SWAP2 SUB SWAP1 LOG3 POP POP POP JUMP JUMPDEST PUSH1 0x0 SLOAD PUSH1 0x1 PUSH1 0x1 PUSH1 0xA0 SHL SUB AND CALLER EQ PUSH2 0xA5A JUMPI PUSH1 0x40 MLOAD PUSH3 0x461BCD PUSH1 0xE5 SHL DUP2 MSTORE PUSH1 0x20 PUSH1 0x4 DUP3 ADD MSTORE PUSH1 0x12 PUSH1 0x24 DUP3 ADD MSTORE PUSH18 0x13DB9B1E481CD95C9D995C881DD85B1B195D PUSH1 0x72 SHL PUSH1 0x44 DUP3 ADD MSTORE PUSH1 0x64 ADD PUSH2 0x643 JUMP JUMPDEST PUSH1 0x2 DUP6 PUSH1 0x40 MLOAD PUSH2 0xA6A SWAP2 SWAP1 PUSH2 0x2F38 JUMP JUMPDEST SWAP1 DUP2 MSTORE PUSH1 0x40 MLOAD SWAP1 DUP2 SWAP1 SUB PUSH1 0x20 ADD SWAP1 KECCAK256 PUSH1 0x4 ADD SLOAD PUSH1 0xFF AND PUSH2 0xABE JUMPI PUSH1 0x40 MLOAD PUSH3 0x461BCD PUSH1 0xE5 SHL DUP2 MSTORE PUSH1 0x20 PUSH1 0x4 DUP3 ADD MSTORE PUSH1 0xF PUSH1 0x24 DUP3 ADD MSTORE PUSH15 0x466F726D206E6F7420616374697665 PUSH1 0x88 SHL PUSH1 0x44 DUP3 ADD MSTORE PUSH1 0x64 ADD PUSH2 0x643 JUMP JUMPDEST PUSH1 0x0 DUP5 MLOAD GT PUSH2 0xB06 JUMPI PUSH1 0x40 MLOAD PUSH3 0x461BCD PUSH1 0xE5 SHL DUP2 MSTORE PUSH1 0x20 PUSH1 0x4 DUP3 ADD MSTORE PUSH1 0x14 PUSH1 0x24 DUP3 ADD MSTORE PUSH20 0x125B9D985B1A59081C995CDC1BDB9CD94810D251 PUSH1 0x62 SHL PUSH1 0x44 DUP3 ADD MSTORE PUSH1 0x64 ADD PUSH2 0x643 JUMP JUMPDEST PUSH1 0x1 PUSH1 0x2 DUP7 PUSH1 0x40 MLOAD PUSH2 0xB18 SWAP2 SWAP1 PUSH2 0x2F38 JUMP JUMPDEST SWAP1 DUP2 MSTORE PUSH1 0x40 MLOAD SWAP1 DUP2 SWAP1 SUB PUSH1 0x20 ADD SWAP1 KECCAK256 PUSH1 0x2 ADD SLOAD PUSH1 0xFF AND PUSH1 0x1 DUP2 GT ISZERO PUSH2 0xB3F JUMPI PUSH2 0xB3F PUSH2 0x2BFD JUMP JUMPDEST SUB PUSH2 0xBB1 JUMPI PUSH1 0x1 PUSH1 0x1 PUSH1 0xA0 SHL SUB DUP4 AND ISZERO PUSH2 0xBB1 JUMPI PUSH1 0x40 MLOAD PUSH3 0x461BCD PUSH1 0xE5 SHL DUP2 MSTORE PUSH1 0x20 PUSH1 0x4 DUP3 ADD MSTORE PUSH1 0x2D PUSH1 0x24 DUP3 ADD MSTORE PUSH32 0x416E6F6E796D6F757320666F726D732063616E6E6F742068617665207375626D PUSH1 0x44 DUP3 ADD MSTORE PUSH13 0x69747465722061646472657373 PUSH1 0x98 SHL PUSH1 0x64 DUP3 ADD MSTORE PUSH1 0x84 ADD PUSH2 0x643 JUMP JUMPDEST PUSH1 0x40 DUP1 MLOAD PUSH1 0xC0 DUP2 ADD DUP3 MSTORE DUP7 DUP2 MSTORE PUSH1 0x20 DUP2 ADD DUP7 SWAP1 MSTORE PUSH1 0x1 PUSH1 0x1 PUSH1 0xA0 SHL SUB DUP6 AND SWAP2 DUP2 ADD SWAP2 SWAP1 SWAP2 MSTORE TIMESTAMP PUSH1 0x60 DUP3 ADD MSTORE DUP3 ISZERO ISZERO PUSH1 0x80 DUP3 ADD MSTORE PUSH1 0xA0 DUP2 ADD DUP3 SWAP1 MSTORE PUSH1 0x8 DUP1 SLOAD PUSH1 0x1 DUP2 ADD DUP3 SSTORE PUSH1 0x0 SWAP2 SWAP1 SWAP2 MSTORE DUP2 MLOAD PUSH1 0x6 SWAP1 SWAP2 MUL PUSH32 0xF3F7A9FE364FAAB93B216DA50A3214154F22A0A2B415B23A84C8169E8B636EE3 ADD SWAP1 DUP2 SWAP1 PUSH2 0xC31 SWAP1 DUP3 PUSH2 0x3007 JUMP JUMPDEST POP PUSH1 0x20 DUP3 ADD MLOAD PUSH1 0x1 DUP3 ADD SWAP1 PUSH2 0xC46 SWAP1 DUP3 PUSH2 0x3007 JUMP JUMPDEST POP PUSH1 0x40 DUP3 ADD MLOAD PUSH1 0x2 DUP3 ADD DUP1 SLOAD PUSH1 0x1 PUSH1 0x1 PUSH1 0xA0 SHL SUB NOT AND PUSH1 0x1 PUSH1 0x1 PUSH1 0xA0 SHL SUB SWAP1 SWAP3 AND SWAP2 SWAP1 SWAP2 OR SWAP1 SSTORE PUSH1 0x60 DUP3 ADD MLOAD PUSH1 0x3 DUP3 ADD SSTORE PUSH1 0x80 DUP3 ADD MLOAD PUSH1 0x4 DUP3 ADD DUP1 SLOAD PUSH1 0xFF NOT AND SWAP2 ISZERO ISZERO SWAP2 SWAP1 SWAP2 OR SWAP1 SSTORE PUSH1 0xA0 DUP3 ADD MLOAD PUSH1 0x5 DUP3 ADD SWAP1 PUSH2 0xCA3 SWAP1 DUP3 PUSH2 0x3007 JUMP JUMPDEST POP POP PUSH1 0x8 SLOAD PUSH1 0x0 SWAP2 POP PUSH2 0xCB8 SWAP1 PUSH1 0x1 SWAP1 PUSH2 0x30FF JUMP JUMPDEST SWAP1 POP PUSH1 0x9 DUP7 PUSH1 0x40 MLOAD PUSH2 0xCCA SWAP2 SWAP1 PUSH2 0x2F38 JUMP JUMPDEST SWAP1 DUP2 MSTORE PUSH1 0x40 MLOAD SWAP1 DUP2 SWAP1 SUB PUSH1 0x20 SWAP1 DUP2 ADD DUP3 KECCAK256 DUP1 SLOAD PUSH1 0x1 DUP2 ADD DUP3 SSTORE PUSH1 0x0 SWAP2 DUP3 MSTORE SWAP2 SWAP1 KECCAK256 ADD DUP3 SWAP1 SSTORE PUSH1 0x1 PUSH1 0x1 PUSH1 0xA0 SHL SUB DUP6 AND SWAP1 PUSH2 0xD05 SWAP1 DUP9 SWAP1 PUSH2 0x2F38 JUMP JUMPDEST PUSH1 0x40 MLOAD DUP1 SWAP2 SUB SWAP1 KECCAK256 PUSH32 0xB3C8AAABAFDB9BBBF465D1BF7E1777793E6EA5663C8C15D26B3AB88F0F112954 DUP4 DUP9 TIMESTAMP PUSH1 0x40 MLOAD PUSH2 0xD40 SWAP4 SWAP3 SWAP2 SWAP1 PUSH2 0x3112 JUMP JUMPDEST PUSH1 0x40 MLOAD DUP1 SWAP2 SUB SWAP1 LOG3 POP POP POP POP POP POP JUMP JUMPDEST PUSH1 0x0 DUP2 PUSH1 0x1 PUSH1 0x1 PUSH1 0xA0 SHL SUB AND PUSH1 0x2 DUP5 PUSH1 0x40 MLOAD PUSH2 0xD6C SWAP2 SWAP1 PUSH2 0x2F38 JUMP JUMPDEST SWAP1 DUP2 MSTORE PUSH1 0x40 MLOAD SWAP1 DUP2 SWAP1 SUB PUSH1 0x20 ADD SWAP1 KECCAK256 SLOAD PUSH1 0x1 PUSH1 0x1 PUSH1 0xA0 SHL SUB AND EQ SWAP1 POP JUMPDEST SWAP3 SWAP2 POP POP JUMP JUMPDEST DUP1 CALLER PUSH1 0x1 PUSH1 0x1 PUSH1 0xA0 SHL SUB AND PUSH1 0x2 DUP3 PUSH1 0x40 MLOAD PUSH2 0xDAA SWAP2 SWAP1 PUSH2 0x2F38 JUMP JUMPDEST SWAP1 DUP2 MSTORE PUSH1 0x40 MLOAD SWAP1 DUP2 SWAP1 SUB PUSH1 0x20 ADD SWAP1 KECCAK256 SLOAD PUSH1 0x1 PUSH1 0x1 PUSH1 0xA0 SHL SUB AND EQ PUSH2 0xDE0 JUMPI PUSH1 0x40 MLOAD PUSH3 0x461BCD PUSH1 0xE5 SHL DUP2 MSTORE PUSH1 0x4 ADD PUSH2 0x643 SWAP1 PUSH2 0x2F54 JUMP JUMPDEST PUSH1 0x0 PUSH1 0x2 DUP4 PUSH1 0x40 MLOAD PUSH2 0xDF2 SWAP2 SWAP1 PUSH2 0x2F38 JUMP JUMPDEST SWAP1 DUP2 MSTORE PUSH1 0x20 ADD PUSH1 0x40 MLOAD DUP1 SWAP2 SUB SWAP1 KECCAK256 PUSH1 0x5 ADD DUP1 SLOAD PUSH2 0xE0E SWAP1 PUSH2 0x2F7E JUMP JUMPDEST SWAP1 POP GT PUSH2 0xE50 JUMPI PUSH1 0x40 MLOAD PUSH3 0x461BCD PUSH1 0xE5 SHL DUP2 MSTORE PUSH1 0x20 PUSH1 0x4 DUP3 ADD MSTORE PUSH1 0x10 PUSH1 0x24 DUP3 ADD MSTORE PUSH16 0x27379031BAB9BA37B6903237B6B0B4B7 PUSH1 0x81 SHL PUSH1 0x44 DUP3 ADD MSTORE PUSH1 0x64 ADD PUSH2 0x643 JUMP JUMPDEST PUSH1 0x0 PUSH1 0x2 DUP4 PUSH1 0x40 MLOAD PUSH2 0xE62 SWAP2 SWAP1 PUSH2 0x2F38 JUMP JUMPDEST SWAP1 DUP2 MSTORE PUSH1 0x20 ADD PUSH1 0x40 MLOAD DUP1 SWAP2 SUB SWAP1 KECCAK256 PUSH1 0x5 ADD DUP1 SLOAD PUSH2 0xE7E SWAP1 PUSH2 0x2F7E JUMP JUMPDEST DUP1 PUSH1 0x1F ADD PUSH1 0x20 DUP1 SWAP2 DIV MUL PUSH1 0x20 ADD PUSH1 0x40 MLOAD SWAP1 DUP2 ADD PUSH1 0x40 MSTORE DUP1 SWAP3 SWAP2 SWAP1 DUP2 DUP2 MSTORE PUSH1 0x20 ADD DUP3 DUP1 SLOAD PUSH2 0xEAA SWAP1 PUSH2 0x2F7E JUMP JUMPDEST DUP1 ISZERO PUSH2 0xEF7 JUMPI DUP1 PUSH1 0x1F LT PUSH2 0xECC JUMPI PUSH2 0x100 DUP1 DUP4 SLOAD DIV MUL DUP4 MSTORE SWAP2 PUSH1 0x20 ADD SWAP2 PUSH2 0xEF7 JUMP JUMPDEST DUP3 ADD SWAP2 SWAP1 PUSH1 0x0 MSTORE PUSH1 0x20 PUSH1 0x0 KECCAK256 SWAP1 JUMPDEST DUP2 SLOAD DUP2 MSTORE SWAP1 PUSH1 0x1 ADD SWAP1 PUSH1 0x20 ADD DUP1 DUP4 GT PUSH2 0xEDA JUMPI DUP3 SWAP1 SUB PUSH1 0x1F AND DUP3 ADD SWAP2 JUMPDEST POP POP POP POP POP SWAP1 POP PUSH1 0x4 DUP2 PUSH1 0x40 MLOAD PUSH2 0xF0E SWAP2 SWAP1 PUSH2 0x2F38 JUMP JUMPDEST SWAP1 DUP2 MSTORE PUSH1 0x20 ADD PUSH1 0x40 MLOAD DUP1 SWAP2 SUB SWAP1 KECCAK256 PUSH1 0x0 PUSH2 0xF28 SWAP2 SWAP1 PUSH2 0x2774 JUMP JUMPDEST PUSH1 0x7 DUP2 PUSH1 0x40 MLOAD PUSH2 0xF38 SWAP2 SWAP1 PUSH2 0x2F38 JUMP JUMPDEST SWAP1 DUP2 MSTORE PUSH1 0x40 DUP1 MLOAD SWAP2 DUP3 SWAP1 SUB PUSH1 0x20 SWAP1 DUP2 ADD DUP4 KECCAK256 DUP1 SLOAD PUSH1 0x1 PUSH1 0x1 PUSH1 0xA0 SHL SUB NOT AND SWAP1 SSTORE DUP3 ADD DUP2 MSTORE PUSH1 0x0 DUP3 MSTORE MLOAD PUSH1 0x2 SWAP1 PUSH2 0xF6F SWAP1 DUP7 SWAP1 PUSH2 0x2F38 JUMP JUMPDEST SWAP1 DUP2 MSTORE PUSH1 0x20 ADD PUSH1 0x40 MLOAD DUP1 SWAP2 SUB SWAP1 KECCAK256 PUSH1 0x5 ADD SWAP1 DUP2 PUSH2 0xF8C SWAP2 SWAP1 PUSH2 0x3007 JUMP JUMPDEST POP PUSH1 0x0 PUSH1 0x5 DUP5 PUSH1 0x40 MLOAD PUSH2 0xF9F SWAP2 SWAP1 PUSH2 0x2F38 JUMP JUMPDEST SWAP1 DUP2 MSTORE PUSH1 0x40 MLOAD SWAP1 DUP2 SWAP1 SUB PUSH1 0x20 ADD DUP2 KECCAK256 DUP1 SLOAD SWAP3 ISZERO ISZERO PUSH1 0xFF NOT SWAP1 SWAP4 AND SWAP3 SWAP1 SWAP3 OR SWAP1 SWAP2 SSTORE PUSH2 0xFCB SWAP1 DUP5 SWAP1 PUSH2 0x2F38 JUMP JUMPDEST PUSH1 0x40 MLOAD DUP1 SWAP2 SUB SWAP1 KECCAK256 PUSH32 0xF151A5AD22EF072C645E7FABDBABEF05AAC2FC8A12C894155F94A39A16B2F100 DUP3 PUSH1 0x40 MLOAD PUSH2 0x1002 SWAP2 SWAP1 PUSH2 0x2AC3 JUMP JUMPDEST PUSH1 0x40 MLOAD DUP1 SWAP2 SUB SWAP1 LOG2 POP POP POP JUMP JUMPDEST DUP1 MLOAD PUSH1 0x20 DUP2 DUP4 ADD DUP2 ADD DUP1 MLOAD PUSH1 0x4 DUP3 MSTORE SWAP3 DUP3 ADD SWAP2 SWAP1 SWAP4 ADD KECCAK256 SWAP2 MSTORE DUP1 SLOAD PUSH2 0x1033 SWAP1 PUSH2 0x2F7E JUMP JUMPDEST DUP1 PUSH1 0x1F ADD PUSH1 0x20 DUP1 SWAP2 DIV MUL PUSH1 0x20 ADD PUSH1 0x40 MLOAD SWAP1 DUP2 ADD PUSH1 0x40 MSTORE DUP1 SWAP3 SWAP2 SWAP1 DUP2 DUP2 MSTORE PUSH1 0x20 ADD DUP3 DUP1 SLOAD PUSH2 0x105F SWAP1 PUSH2 0x2F7E JUMP JUMPDEST DUP1 ISZERO PUSH2 0x10AC JUMPI DUP1 PUSH1 0x1F LT PUSH2 0x1081 JUMPI PUSH2 0x100 DUP1 DUP4 SLOAD DIV MUL DUP4 MSTORE SWAP2 PUSH1 0x20 ADD SWAP2 PUSH2 0x10AC JUMP JUMPDEST DUP3 ADD SWAP2 SWAP1 PUSH1 0x0 MSTORE PUSH1 0x20 PUSH1 0x0 KECCAK256 SWAP1 JUMPDEST DUP2 SLOAD DUP2 MSTORE SWAP1 PUSH1 0x1 ADD SWAP1 PUSH1 0x20 ADD DUP1 DUP4 GT PUSH2 0x108F JUMPI DUP3 SWAP1 SUB PUSH1 0x1F AND DUP3 ADD SWAP2 JUMPDEST POP POP POP POP POP DUP2 JUMP JUMPDEST DUP2 MLOAD PUSH1 0x20 DUP2 DUP5 ADD DUP2 ADD DUP1 MLOAD PUSH1 0x9 DUP3 MSTORE SWAP3 DUP3 ADD SWAP2 DUP6 ADD SWAP2 SWAP1 SWAP2 KECCAK256 SWAP2 SWAP1 MSTORE DUP1 SLOAD DUP3 SWAP1 DUP2 LT PUSH2 0x10DF JUMPI PUSH1 0x0 DUP1 REVERT JUMPDEST SWAP1 PUSH1 0x0 MSTORE PUSH1 0x20 PUSH1 0x0 KECCAK256 ADD PUSH1 0x0 SWAP2 POP SWAP2 POP POP SLOAD DUP2 JUMP JUMPDEST PUSH1 0x60 CALLER PUSH1 0x1 PUSH1 0x1 PUSH1 0xA0 SHL SUB AND PUSH1 0x2 DUP4 PUSH1 0x40 MLOAD PUSH2 0x1110 SWAP2 SWAP1 PUSH2 0x2F38 JUMP JUMPDEST SWAP1 DUP2 MSTORE PUSH1 0x40 MLOAD SWAP1 DUP2 SWAP1 SUB PUSH1 0x20 ADD SWAP1 KECCAK256 SLOAD PUSH1 0x1 PUSH1 0x1 PUSH1 0xA0 SHL SUB AND EQ PUSH2 0x1182 JUMPI PUSH1 0x40 MLOAD PUSH3 0x461BCD PUSH1 0xE5 SHL DUP2 MSTORE PUSH1 0x20 PUSH1 0x4 DUP3 ADD MSTORE PUSH1 0x24 DUP1 DUP3 ADD MSTORE PUSH32 0x4F6E6C7920666F726D2063726561746F722063616E207669657720726573706F PUSH1 0x44 DUP3 ADD MSTORE PUSH4 0x6E736573 PUSH1 0xE0 SHL PUSH1 0x64 DUP3 ADD MSTORE PUSH1 0x84 ADD PUSH2 0x643 JUMP JUMPDEST PUSH1 0x0 PUSH1 0x9 DUP4 PUSH1 0x40 MLOAD PUSH2 0x1194 SWAP2 SWAP1 PUSH2 0x2F38 JUMP JUMPDEST SWAP1 DUP2 MSTORE PUSH1 0x40 DUP1 MLOAD SWAP2 DUP3 SWAP1 SUB PUSH1 0x20 SWAP1 DUP2 ADD DUP4 KECCAK256 DUP1 SLOAD DUP1 DUP4 MUL DUP6 ADD DUP4 ADD SWAP1 SWAP4 MSTORE DUP3 DUP5 MSTORE SWAP2 SWAP1 DUP4 ADD DUP3 DUP3 DUP1 ISZERO PUSH2 0x11E6 JUMPI PUSH1 0x20 MUL DUP3 ADD SWAP2 SWAP1 PUSH1 0x0 MSTORE PUSH1 0x20 PUSH1 0x0 KECCAK256 SWAP1 JUMPDEST DUP2 SLOAD DUP2 MSTORE PUSH1 0x20 ADD SWAP1 PUSH1 0x1 ADD SWAP1 DUP1 DUP4 GT PUSH2 0x11D2 JUMPI JUMPDEST POP POP POP POP POP SWAP1 POP PUSH1 0x0 DUP2 MLOAD PUSH8 0xFFFFFFFFFFFFFFFF DUP2 GT ISZERO PUSH2 0x1209 JUMPI PUSH2 0x1209 PUSH2 0x280B JUMP JUMPDEST PUSH1 0x40 MLOAD SWAP1 DUP1 DUP3 MSTORE DUP1 PUSH1 0x20 MUL PUSH1 0x20 ADD DUP3 ADD PUSH1 0x40 MSTORE DUP1 ISZERO PUSH2 0x1242 JUMPI DUP2 PUSH1 0x20 ADD JUMPDEST PUSH2 0x122F PUSH2 0x27B1 JUMP JUMPDEST DUP2 MSTORE PUSH1 0x20 ADD SWAP1 PUSH1 0x1 SWAP1 SUB SWAP1 DUP2 PUSH2 0x1227 JUMPI SWAP1 POP JUMPDEST POP SWAP1 POP PUSH1 0x0 JUMPDEST DUP3 MLOAD DUP2 LT ISZERO PUSH2 0x14AC JUMPI PUSH1 0x8 DUP4 DUP3 DUP2 MLOAD DUP2 LT PUSH2 0x1265 JUMPI PUSH2 0x1265 PUSH2 0x313B JUMP JUMPDEST PUSH1 0x20 MUL PUSH1 0x20 ADD ADD MLOAD DUP2 SLOAD DUP2 LT PUSH2 0x127D JUMPI PUSH2 0x127D PUSH2 0x313B JUMP JUMPDEST SWAP1 PUSH1 0x0 MSTORE PUSH1 0x20 PUSH1 0x0 KECCAK256 SWAP1 PUSH1 0x6 MUL ADD PUSH1 0x40 MLOAD DUP1 PUSH1 0xC0 ADD PUSH1 0x40 MSTORE SWAP1 DUP2 PUSH1 0x0 DUP3 ADD DUP1 SLOAD PUSH2 0x12A6 SWAP1 PUSH2 0x2F7E JUMP JUMPDEST DUP1 PUSH1 0x1F ADD PUSH1 0x20 DUP1 SWAP2 DIV MUL PUSH1 0x20 ADD PUSH1 0x40 MLOAD SWAP1 DUP2 ADD PUSH1 0x40 MSTORE DUP1 SWAP3 SWAP2 SWAP1 DUP2 DUP2 MSTORE PUSH1 0x20 ADD DUP3 DUP1 SLOAD PUSH2 0x12D2 SWAP1 PUSH2 0x2F7E JUMP JUMPDEST DUP1 ISZERO PUSH2 0x131F JUMPI DUP1 PUSH1 0x1F LT PUSH2 0x12F4 JUMPI PUSH2 0x100 DUP1 DUP4 SLOAD DIV MUL DUP4 MSTORE SWAP2 PUSH1 0x20 ADD SWAP2 PUSH2 0x131F JUMP JUMPDEST DUP3 ADD SWAP2 SWAP1 PUSH1 0x0 MSTORE PUSH1 0x20 PUSH1 0x0 KECCAK256 SWAP1 JUMPDEST DUP2 SLOAD DUP2 MSTORE SWAP1 PUSH1 0x1 ADD SWAP1 PUSH1 0x20 ADD DUP1 DUP4 GT PUSH2 0x1302 JUMPI DUP3 SWAP1 SUB PUSH1 0x1F AND DUP3 ADD SWAP2 JUMPDEST POP POP POP POP POP DUP2 MSTORE PUSH1 0x20 ADD PUSH1 0x1 DUP3 ADD DUP1 SLOAD PUSH2 0x1338 SWAP1 PUSH2 0x2F7E JUMP JUMPDEST DUP1 PUSH1 0x1F ADD PUSH1 0x20 DUP1 SWAP2 DIV MUL PUSH1 0x20 ADD PUSH1 0x40 MLOAD SWAP1 DUP2 ADD PUSH1 0x40 MSTORE DUP1 SWAP3 SWAP2 SWAP1 DUP2 DUP2 MSTORE PUSH1 0x20 ADD DUP3 DUP1 SLOAD PUSH2 0x1364 SWAP1 PUSH2 0x2F7E JUMP JUMPDEST DUP1 ISZERO PUSH2 0x13B1 JUMPI DUP1 PUSH1 0x1F LT PUSH2 0x1386 JUMPI PUSH2 0x100 DUP1 DUP4 SLOAD DIV MUL DUP4 MSTORE SWAP2 PUSH1 0x20 ADD SWAP2 PUSH2 0x13B1 JUMP JUMPDEST DUP3 ADD SWAP2 SWAP1 PUSH1 0x0 MSTORE PUSH1 0x20 PUSH1 0x0 KECCAK256 SWAP1 JUMPDEST DUP2 SLOAD DUP2 MSTORE SWAP1 PUSH1 0x1 ADD SWAP1 PUSH1 0x20 ADD DUP1 DUP4 GT PUSH2 0x1394 JUMPI DUP3 SWAP1 SUB PUSH1 0x1F AND DUP3 ADD SWAP2 JUMPDEST POP POP POP SWAP2 DUP4 MSTORE POP POP PUSH1 0x2 DUP3 ADD SLOAD PUSH1 0x1 PUSH1 0x1 PUSH1 0xA0 SHL SUB AND PUSH1 0x20 DUP3 ADD MSTORE PUSH1 0x3 DUP3 ADD SLOAD PUSH1 0x40 DUP3 ADD MSTORE PUSH1 0x4 DUP3 ADD SLOAD PUSH1 0xFF AND ISZERO ISZERO PUSH1 0x60 DUP3 ADD MSTORE PUSH1 0x5 DUP3 ADD DUP1 SLOAD PUSH1 0x80 SWAP1 SWAP3 ADD SWAP2 PUSH2 0x13FA SWAP1 PUSH2 0x2F7E JUMP JUMPDEST DUP1 PUSH1 0x1F ADD PUSH1 0x20 DUP1 SWAP2 DIV MUL PUSH1 0x20 ADD PUSH1 0x40 MLOAD SWAP1 DUP2 ADD PUSH1 0x40 MSTORE DUP1 SWAP3 SWAP2 SWAP1 DUP2 DUP2 MSTORE PUSH1 0x20 ADD DUP3 DUP1 SLOAD PUSH2 0x1426 SWAP1 PUSH2 0x2F7E JUMP JUMPDEST DUP1 ISZERO PUSH2 0x1473 JUMPI DUP1 PUSH1 0x1F LT PUSH2 0x1448 JUMPI PUSH2 0x100 DUP1 DUP4 SLOAD DIV MUL DUP4 MSTORE SWAP2 PUSH1 0x20 ADD SWAP2 PUSH2 0x1473 JUMP JUMPDEST DUP3 ADD SWAP2 SWAP1 PUSH1 0x0 MSTORE PUSH1 0x20 PUSH1 0x0 KECCAK256 SWAP1 JUMPDEST DUP2 SLOAD DUP2 MSTORE SWAP1 PUSH1 0x1 ADD SWAP1 PUSH1 0x20 ADD DUP1 DUP4 GT PUSH2 0x1456 JUMPI DUP3 SWAP1 SUB PUSH1 0x1F AND DUP3 ADD SWAP2 JUMPDEST POP POP POP POP POP DUP2 MSTORE POP POP DUP3 DUP3 DUP2 MLOAD DUP2 LT PUSH2 0x148E JUMPI PUSH2 0x148E PUSH2 0x313B JUMP JUMPDEST PUSH1 0x20 MUL PUSH1 0x20 ADD ADD DUP2 SWAP1 MSTORE POP DUP1 DUP1 PUSH2 0x14A4 SWAP1 PUSH2 0x3151 JUMP JUMPDEST SWAP2 POP POP PUSH2 0x1248 JUMP JUMPDEST POP SWAP4 SWAP3 POP POP POP JUMP JUMPDEST DUP1 MLOAD PUSH1 0x20 DUP2 DUP4 ADD DUP2 ADD DUP1 MLOAD PUSH1 0x2 DUP3 MSTORE SWAP3 DUP3 ADD SWAP2 SWAP1 SWAP4 ADD KECCAK256 SWAP2 MSTORE DUP1 SLOAD PUSH1 0x1 DUP3 ADD DUP1 SLOAD PUSH1 0x1 PUSH1 0x1 PUSH1 0xA0 SHL SUB SWAP1 SWAP3 AND SWAP3 SWAP2 PUSH2 0x14EB SWAP1 PUSH2 0x2F7E JUMP JUMPDEST DUP1 PUSH1 0x1F ADD PUSH1 0x20 DUP1 SWAP2 DIV MUL PUSH1 0x20 ADD PUSH1 0x40 MLOAD SWAP1 DUP2 ADD PUSH1 0x40 MSTORE DUP1 SWAP3 SWAP2 SWAP1 DUP2 DUP2 MSTORE PUSH1 0x20 ADD DUP3 DUP1 SLOAD PUSH2 0x1517 SWAP1 PUSH2 0x2F7E JUMP JUMPDEST DUP1 ISZERO PUSH2 0x1564 JUMPI DUP1 PUSH1 0x1F LT PUSH2 0x1539 JUMPI PUSH2 0x100 DUP1 DUP4 SLOAD DIV MUL DUP4 MSTORE SWAP2 PUSH1 0x20 ADD SWAP2 PUSH2 0x1564 JUMP JUMPDEST DUP3 ADD SWAP2 SWAP1 PUSH1 0x0 MSTORE PUSH1 0x20 PUSH1 0x0 KECCAK256 SWAP1 JUMPDEST DUP2 SLOAD DUP2 MSTORE SWAP1 PUSH1 0x1 ADD SWAP1 PUSH1 0x20 ADD DUP1 DUP4 GT PUSH2 0x1547 JUMPI DUP3 SWAP1 SUB PUSH1 0x1F AND DUP3 ADD SWAP2 JUMPDEST POP POP POP POP PUSH1 0x2 DUP4 ADD SLOAD PUSH1 0x3 DUP5 ADD SLOAD PUSH1 0x4 DUP6 ADD SLOAD PUSH1 0x5 DUP7 ADD DUP1 SLOAD SWAP6 SWAP7 PUSH1 0xFF SWAP5 DUP6 AND SWAP7 SWAP4 SWAP6 POP SWAP4 SWAP1 SWAP2 AND SWAP3 SWAP2 PUSH2 0x1597 SWAP1 PUSH2 0x2F7E JUMP JUMPDEST DUP1 PUSH1 0x1F ADD PUSH1 0x20 DUP1 SWAP2 DIV MUL PUSH1 0x20 ADD PUSH1 0x40 MLOAD SWAP1 DUP2 ADD PUSH1 0x40 MSTORE DUP1 SWAP3 SWAP2 SWAP1 DUP2 DUP2 MSTORE PUSH1 0x20 ADD DUP3 DUP1 SLOAD PUSH2 0x15C3 SWAP1 PUSH2 0x2F7E JUMP JUMPDEST DUP1 ISZERO PUSH2 0x1610 JUMPI DUP1 PUSH1 0x1F LT PUSH2 0x15E5 JUMPI PUSH2 0x100 DUP1 DUP4 SLOAD DIV MUL DUP4 MSTORE SWAP2 PUSH1 0x20 ADD SWAP2 PUSH2 0x1610 JUMP JUMPDEST DUP3 ADD SWAP2 SWAP1 PUSH1 0x0 MSTORE PUSH1 0x20 PUSH1 0x0 KECCAK256 SWAP1 JUMPDEST DUP2 SLOAD DUP2 MSTORE SWAP1 PUSH1 0x1 ADD SWAP1 PUSH1 0x20 ADD DUP1 DUP4 GT PUSH2 0x15F3 JUMPI DUP3 SWAP1 SUB PUSH1 0x1F AND DUP3 ADD SWAP2 JUMPDEST POP POP POP POP POP SWAP1 POP DUP7 JUMP JUMPDEST PUSH1 0x1 SLOAD PUSH1 0x1 PUSH1 0x1 PUSH1 0xA0 SHL SUB AND CALLER EQ PUSH2 0x1644 JUMPI PUSH1 0x40 MLOAD PUSH3 0x461BCD PUSH1 0xE5 SHL DUP2 MSTORE PUSH1 0x4 ADD PUSH2 0x643 SWAP1 PUSH2 0x316A JUMP JUMPDEST SELFBALANCE DUP1 PUSH2 0x168B JUMPI PUSH1 0x40 MLOAD PUSH3 0x461BCD PUSH1 0xE5 SHL DUP2 MSTORE PUSH1 0x20 PUSH1 0x4 DUP3 ADD MSTORE PUSH1 0x16 PUSH1 0x24 DUP3 ADD MSTORE PUSH22 0x4E6F2062616C616E636520746F207769746864726177 PUSH1 0x50 SHL PUSH1 0x44 DUP3 ADD MSTORE PUSH1 0x64 ADD PUSH2 0x643 JUMP JUMPDEST PUSH1 0x1 SLOAD PUSH1 0x40 MLOAD PUSH1 0x1 PUSH1 0x1 PUSH1 0xA0 SHL SUB SWAP1 SWAP2 AND SWAP1 DUP3 ISZERO PUSH2 0x8FC MUL SWAP1 DUP4 SWAP1 PUSH1 0x0 DUP2 DUP2 DUP2 DUP6 DUP9 DUP9 CALL SWAP4 POP POP POP POP ISZERO DUP1 ISZERO PUSH2 0x16C5 JUMPI RETURNDATASIZE PUSH1 0x0 DUP1 RETURNDATACOPY RETURNDATASIZE PUSH1 0x0 REVERT JUMPDEST POP POP JUMP JUMPDEST PUSH1 0x3 PUSH1 0x20 MSTORE DUP2 PUSH1 0x0 MSTORE PUSH1 0x40 PUSH1 0x0 KECCAK256 DUP2 DUP2 SLOAD DUP2 LT PUSH2 0x16E5 JUMPI PUSH1 0x0 DUP1 REVERT JUMPDEST SWAP1 PUSH1 0x0 MSTORE PUSH1 0x20 PUSH1 0x0 KECCAK256 ADD PUSH1 0x0 SWAP2 POP SWAP2 POP POP DUP1 SLOAD PUSH2 0x1033 SWAP1 PUSH2 0x2F7E JUMP JUMPDEST PUSH2 0x1709 PUSH2 0x27B1 JUMP JUMPDEST PUSH1 0x8 SLOAD DUP3 LT PUSH2 0x1750 JUMPI PUSH1 0x40 MLOAD PUSH3 0x461BCD PUSH1 0xE5 SHL DUP2 MSTORE PUSH1 0x20 PUSH1 0x4 DUP3 ADD MSTORE PUSH1 0x13 PUSH1 0x24 DUP3 ADD MSTORE PUSH19 0x125B9D985B1A59081C995CDC1BDB9CD9481251 PUSH1 0x6A SHL PUSH1 0x44 DUP3 ADD MSTORE PUSH1 0x64 ADD PUSH2 0x643 JUMP JUMPDEST PUSH1 0x8 DUP3 DUP2 SLOAD DUP2 LT PUSH2 0x1763 JUMPI PUSH2 0x1763 PUSH2 0x313B JUMP JUMPDEST SWAP1 PUSH1 0x0 MSTORE PUSH1 0x20 PUSH1 0x0 KECCAK256 SWAP1 PUSH1 0x6 MUL ADD PUSH1 0x40 MLOAD DUP1 PUSH1 0xC0 ADD PUSH1 0x40 MSTORE SWAP1 DUP2 PUSH1 0x0 DUP3 ADD DUP1 SLOAD PUSH2 0x178C SWAP1 PUSH2 0x2F7E JUMP JUMPDEST DUP1 PUSH1 0x1F ADD PUSH1 0x20 DUP1 SWAP2 DIV MUL PUSH1 0x20 ADD PUSH1 0x40 MLOAD SWAP1 DUP2 ADD PUSH1 0x40 MSTORE DUP1 SWAP3 SWAP2 SWAP1 DUP2 DUP2 MSTORE PUSH1 0x20 ADD DUP3 DUP1 SLOAD PUSH2 0x17B8 SWAP1 PUSH2 0x2F7E JUMP JUMPDEST DUP1 ISZERO PUSH2 0x1805 JUMPI DUP1 PUSH1 0x1F LT PUSH2 0x17DA JUMPI PUSH2 0x100 DUP1 DUP4 SLOAD DIV MUL DUP4 MSTORE SWAP2 PUSH1 0x20 ADD SWAP2 PUSH2 0x1805 JUMP JUMPDEST DUP3 ADD SWAP2 SWAP1 PUSH1 0x0 MSTORE PUSH1 0x20 PUSH1 0x0 KECCAK256 SWAP1 JUMPDEST DUP2 SLOAD DUP2 MSTORE SWAP1 PUSH1 0x1 ADD SWAP1 PUSH1 0x20 ADD DUP1 DUP4 GT PUSH2 0x17E8 JUMPI DUP3 SWAP1 SUB PUSH1 0x1F AND DUP3 ADD SWAP2 JUMPDEST POP POP POP POP POP DUP2 MSTORE PUSH1 0x20 ADD PUSH1 0x1 DUP3 ADD DUP1 SLOAD PUSH2 0x181E SWAP1 PUSH2 0x2F7E JUMP JUMPDEST DUP1 PUSH1 0x1F ADD PUSH1 0x20 DUP1 SWAP2 DIV MUL PUSH1 0x20 ADD PUSH1 0x40 MLOAD SWAP1 DUP2 ADD PUSH1 0x40 MSTORE DUP1 SWAP3 SWAP2 SWAP1 DUP2 DUP2 MSTORE PUSH1 0x20 ADD DUP3 DUP1 SLOAD PUSH2 0x184A SWAP1 PUSH2 0x2F7E JUMP JUMPDEST DUP1 ISZERO PUSH2 0x1897 JUMPI DUP1 PUSH1 0x1F LT PUSH2 0x186C JUMPI PUSH2 0x100 DUP1 DUP4 SLOAD DIV MUL DUP4 MSTORE SWAP2 PUSH1 0x20 ADD SWAP2 PUSH2 0x1897 JUMP JUMPDEST DUP3 ADD SWAP2 SWAP1 PUSH1 0x0 MSTORE PUSH1 0x20 PUSH1 0x0 KECCAK256 SWAP1 JUMPDEST DUP2 SLOAD DUP2 MSTORE SWAP1 PUSH1 0x1 ADD SWAP1 PUSH1 0x20 ADD DUP1 DUP4 GT PUSH2 0x187A JUMPI DUP3 SWAP1 SUB PUSH1 0x1F AND DUP3 ADD SWAP2 JUMPDEST POP POP POP SWAP2 DUP4 MSTORE POP POP PUSH1 0x2 DUP3 ADD SLOAD PUSH1 0x1 PUSH1 0x1 PUSH1 0xA0 SHL SUB AND PUSH1 0x20 DUP3 ADD MSTORE PUSH1 0x3 DUP3 ADD SLOAD PUSH1 0x40 DUP3 ADD MSTORE PUSH1 0x4 DUP3 ADD SLOAD PUSH1 0xFF AND ISZERO ISZERO PUSH1 0x60 DUP3 ADD MSTORE PUSH1 0x5 DUP3 ADD DUP1 SLOAD PUSH1 0x80 SWAP1 SWAP3 ADD SWAP2 PUSH2 0x18E0 SWAP1 PUSH2 0x2F7E JUMP JUMPDEST DUP1 PUSH1 0x1F ADD PUSH1 0x20 DUP1 SWAP2 DIV MUL PUSH1 0x20 ADD PUSH1 0x40 MLOAD SWAP1 DUP2 ADD PUSH1 0x40 MSTORE DUP1 SWAP3 SWAP2 SWAP1 DUP2 DUP2 MSTORE PUSH1 0x20 ADD DUP3 DUP1 SLOAD PUSH2 0x190C SWAP1 PUSH2 0x2F7E JUMP JUMPDEST DUP1 ISZERO PUSH2 0x1959 JUMPI DUP1 PUSH1 0x1F LT PUSH2 0x192E JUMPI PUSH2 0x100 DUP1 DUP4 SLOAD DIV MUL DUP4 MSTORE SWAP2 PUSH1 0x20 ADD SWAP2 PUSH2 0x1959 JUMP JUMPDEST DUP3 ADD SWAP2 SWAP1 PUSH1 0x0 MSTORE PUSH1 0x20 PUSH1 0x0 KECCAK256 SWAP1 JUMPDEST DUP2 SLOAD DUP2 MSTORE SWAP1 PUSH1 0x1 ADD SWAP1 PUSH1 0x20 ADD DUP1 DUP4 GT PUSH2 0x193C JUMPI DUP3 SWAP1 SUB PUSH1 0x1F AND DUP3 ADD SWAP2 JUMPDEST POP POP POP POP POP DUP2 MSTORE POP POP SWAP1 POP SWAP2 SWAP1 POP JUMP JUMPDEST DUP2 CALLER PUSH1 0x1 PUSH1 0x1 PUSH1 0xA0 SHL SUB AND PUSH1 0x2 DUP3 PUSH1 0x40 MLOAD PUSH2 0x1984 SWAP2 SWAP1 PUSH2 0x2F38 JUMP JUMPDEST SWAP1 DUP2 MSTORE PUSH1 0x40 MLOAD SWAP1 DUP2 SWAP1 SUB PUSH1 0x20 ADD SWAP1 KECCAK256 SLOAD PUSH1 0x1 PUSH1 0x1 PUSH1 0xA0 SHL SUB AND EQ PUSH2 0x19BA JUMPI PUSH1 0x40 MLOAD PUSH3 0x461BCD PUSH1 0xE5 SHL DUP2 MSTORE PUSH1 0x4 ADD PUSH2 0x643 SWAP1 PUSH2 0x2F54 JUMP JUMPDEST PUSH1 0x0 DUP3 MLOAD GT PUSH2 0x19F9 JUMPI PUSH1 0x40 MLOAD PUSH3 0x461BCD PUSH1 0xE5 SHL DUP2 MSTORE PUSH1 0x20 PUSH1 0x4 DUP3 ADD MSTORE PUSH1 0xB PUSH1 0x24 DUP3 ADD MSTORE PUSH11 0x125B9D985B1A590810D251 PUSH1 0xAA SHL PUSH1 0x44 DUP3 ADD MSTORE PUSH1 0x64 ADD PUSH2 0x643 JUMP JUMPDEST DUP2 PUSH1 0x2 DUP5 PUSH1 0x40 MLOAD PUSH2 0x1A0A SWAP2 SWAP1 PUSH2 0x2F38 JUMP JUMPDEST SWAP1 DUP2 MSTORE PUSH1 0x20 ADD PUSH1 0x40 MLOAD DUP1 SWAP2 SUB SWAP1 KECCAK256 PUSH1 0x1 ADD SWAP1 DUP2 PUSH2 0x1A27 SWAP2 SWAP1 PUSH2 0x3007 JUMP JUMPDEST POP DUP3 PUSH1 0x40 MLOAD PUSH2 0x1A36 SWAP2 SWAP1 PUSH2 0x2F38 JUMP JUMPDEST PUSH1 0x40 MLOAD DUP1 SWAP2 SUB SWAP1 KECCAK256 PUSH32 0xD28CB7B3A1E7A87156174F07534E2FED5FA92A11735371D20C7B72B21B5387EF DUP4 PUSH1 0x40 MLOAD PUSH2 0x1002 SWAP2 SWAP1 PUSH2 0x2AC3 JUMP JUMPDEST DUP2 CALLER PUSH1 0x1 PUSH1 0x1 PUSH1 0xA0 SHL SUB AND PUSH1 0x2 DUP3 PUSH1 0x40 MLOAD PUSH2 0x1A88 SWAP2 SWAP1 PUSH2 0x2F38 JUMP JUMPDEST SWAP1 DUP2 MSTORE PUSH1 0x40 MLOAD SWAP1 DUP2 SWAP1 SUB PUSH1 0x20 ADD SWAP1 KECCAK256 SLOAD PUSH1 0x1 PUSH1 0x1 PUSH1 0xA0 SHL SUB AND EQ PUSH2 0x1ABE JUMPI PUSH1 0x40 MLOAD PUSH3 0x461BCD PUSH1 0xE5 SHL DUP2 MSTORE PUSH1 0x4 ADD PUSH2 0x643 SWAP1 PUSH2 0x2F54 JUMP JUMPDEST DUP2 PUSH1 0x2 DUP5 PUSH1 0x40 MLOAD PUSH2 0x1ACF SWAP2 SWAP1 PUSH2 0x2F38 JUMP JUMPDEST SWAP1 DUP2 MSTORE PUSH1 0x40 MLOAD SWAP1 DUP2 SWAP1 SUB PUSH1 0x20 ADD DUP2 KECCAK256 PUSH1 0x4 ADD DUP1 SLOAD SWAP3 ISZERO ISZERO PUSH1 0xFF NOT SWAP1 SWAP4 AND SWAP3 SWAP1 SWAP3 OR SWAP1 SWAP2 SSTORE PUSH2 0x1AFE SWAP1 DUP5 SWAP1 PUSH2 0x2F38 JUMP JUMPDEST PUSH1 0x40 MLOAD SWAP1 DUP2 SWAP1 SUB DUP2 KECCAK256 DUP4 ISZERO ISZERO DUP3 MSTORE SWAP1 PUSH32 0x531FBAEE29F7653D6D9890D997D58B9965642DA03275C47C0F6280E12CE958D SWAP1 PUSH1 0x20 ADD PUSH2 0x1002 JUMP JUMPDEST PUSH1 0x1 SLOAD PUSH1 0x1 PUSH1 0x1 PUSH1 0xA0 SHL SUB AND CALLER EQ PUSH2 0x1B61 JUMPI PUSH1 0x40 MLOAD PUSH3 0x461BCD PUSH1 0xE5 SHL DUP2 MSTORE PUSH1 0x4 ADD PUSH2 0x643 SWAP1 PUSH2 0x316A JUMP JUMPDEST PUSH1 0x1 PUSH1 0x1 PUSH1 0xA0 SHL SUB DUP2 AND PUSH2 0x1BA9 JUMPI PUSH1 0x40 MLOAD PUSH3 0x461BCD PUSH1 0xE5 SHL DUP2 MSTORE PUSH1 0x20 PUSH1 0x4 DUP3 ADD MSTORE PUSH1 0xF PUSH1 0x24 DUP3 ADD MSTORE PUSH15 0x496E76616C69642061646472657373 PUSH1 0x88 SHL PUSH1 0x44 DUP3 ADD MSTORE PUSH1 0x64 ADD PUSH2 0x643 JUMP JUMPDEST PUSH1 0x0 DUP1 SLOAD PUSH1 0x1 PUSH1 0x1 PUSH1 0xA0 SHL SUB NOT AND PUSH1 0x1 PUSH1 0x1 PUSH1 0xA0 SHL SUB SWAP3 SWAP1 SWAP3 AND SWAP2 SWAP1 SWAP2 OR SWAP1 SSTORE JUMP JUMPDEST PUSH1 0x60 PUSH1 0x9 DUP3 PUSH1 0x40 MLOAD PUSH2 0x1BDD SWAP2 SWAP1 PUSH2 0x2F38 JUMP JUMPDEST SWAP1 DUP2 MSTORE PUSH1 0x40 DUP1 MLOAD SWAP2 DUP3 SWAP1 SUB PUSH1 0x20 SWAP1 DUP2 ADD DUP4 KECCAK256 DUP1 SLOAD DUP1 DUP4 MUL DUP6 ADD DUP4 ADD SWAP1 SWAP4 MSTORE DUP3 DUP5 MSTORE SWAP2 SWAP1 DUP4 ADD DUP3 DUP3 DUP1 ISZERO PUSH2 0x1C2F JUMPI PUSH1 0x20 MUL DUP3 ADD SWAP2 SWAP1 PUSH1 0x0 MSTORE PUSH1 0x20 PUSH1 0x0 KECCAK256 SWAP1 JUMPDEST DUP2 SLOAD DUP2 MSTORE PUSH1 0x20 ADD SWAP1 PUSH1 0x1 ADD SWAP1 DUP1 DUP4 GT PUSH2 0x1C1B JUMPI JUMPDEST POP POP POP POP POP SWAP1 POP SWAP2 SWAP1 POP JUMP JUMPDEST PUSH1 0x0 SLOAD PUSH1 0x1 PUSH1 0x1 PUSH1 0xA0 SHL SUB AND CALLER EQ PUSH2 0x1C8A JUMPI PUSH1 0x40 MLOAD PUSH3 0x461BCD PUSH1 0xE5 SHL DUP2 MSTORE PUSH1 0x20 PUSH1 0x4 DUP3 ADD MSTORE PUSH1 0x12 PUSH1 0x24 DUP3 ADD MSTORE PUSH18 0x13DB9B1E481CD95C9D995C881DD85B1B195D PUSH1 0x72 SHL PUSH1 0x44 DUP3 ADD MSTORE PUSH1 0x64 ADD PUSH2 0x643 JUMP JUMPDEST PUSH1 0x0 PUSH1 0x1 PUSH1 0x1 PUSH1 0xA0 SHL SUB AND PUSH1 0x2 DUP5 PUSH1 0x40 MLOAD PUSH2 0x1CA5 SWAP2 SWAP1 PUSH2 0x2F38 JUMP JUMPDEST SWAP1 DUP2 MSTORE PUSH1 0x40 MLOAD SWAP1 DUP2 SWAP1 SUB PUSH1 0x20 ADD SWAP1 KECCAK256 SLOAD PUSH1 0x1 PUSH1 0x1 PUSH1 0xA0 SHL SUB AND EQ PUSH2 0x1D01 JUMPI PUSH1 0x40 MLOAD PUSH3 0x461BCD PUSH1 0xE5 SHL DUP2 MSTORE PUSH1 0x20 PUSH1 0x4 DUP3 ADD MSTORE PUSH1 0x13 PUSH1 0x24 DUP3 ADD MSTORE PUSH19 0x466F726D20616C726561647920657869737473 PUSH1 0x68 SHL PUSH1 0x44 DUP3 ADD MSTORE PUSH1 0x64 ADD PUSH2 0x643 JUMP JUMPDEST PUSH1 0x1 PUSH1 0x1 PUSH1 0xA0 SHL SUB DUP5 AND PUSH2 0x1D57 JUMPI PUSH1 0x40 MLOAD PUSH3 0x461BCD PUSH1 0xE5 SHL DUP2 MSTORE PUSH1 0x20 PUSH1 0x4 DUP3 ADD MSTORE PUSH1 0x17 PUSH1 0x24 DUP3 ADD MSTORE PUSH32 0x496E76616C69642063726561746F722061646472657373000000000000000000 PUSH1 0x44 DUP3 ADD MSTORE PUSH1 0x64 ADD PUSH2 0x643 JUMP JUMPDEST PUSH1 0x0 DUP4 MLOAD GT PUSH2 0x1D9C JUMPI PUSH1 0x40 MLOAD PUSH3 0x461BCD PUSH1 0xE5 SHL DUP2 MSTORE PUSH1 0x20 PUSH1 0x4 DUP3 ADD MSTORE PUSH1 0x11 PUSH1 0x24 DUP3 ADD MSTORE PUSH17 0x496E76616C69642049504E53206E616D65 PUSH1 0x78 SHL PUSH1 0x44 DUP3 ADD MSTORE PUSH1 0x64 ADD PUSH2 0x643 JUMP JUMPDEST PUSH1 0x40 MLOAD DUP1 PUSH1 0xC0 ADD PUSH1 0x40 MSTORE DUP1 DUP6 PUSH1 0x1 PUSH1 0x1 PUSH1 0xA0 SHL SUB AND DUP2 MSTORE PUSH1 0x20 ADD DUP4 DUP2 MSTORE PUSH1 0x20 ADD DUP3 PUSH1 0x1 DUP2 GT ISZERO PUSH2 0x1DCE JUMPI PUSH2 0x1DCE PUSH2 0x2BFD JUMP JUMPDEST DUP2 MSTORE PUSH1 0x20 ADD TIMESTAMP DUP2 MSTORE PUSH1 0x20 ADD PUSH1 0x1 ISZERO ISZERO DUP2 MSTORE PUSH1 0x20 ADD PUSH1 0x40 MLOAD DUP1 PUSH1 0x20 ADD PUSH1 0x40 MSTORE DUP1 PUSH1 0x0 DUP2 MSTORE POP DUP2 MSTORE POP PUSH1 0x2 DUP5 PUSH1 0x40 MLOAD PUSH2 0x1E05 SWAP2 SWAP1 PUSH2 0x2F38 JUMP JUMPDEST SWAP1 DUP2 MSTORE PUSH1 0x40 MLOAD PUSH1 0x20 SWAP2 DUP2 SWAP1 SUB DUP3 ADD SWAP1 KECCAK256 DUP3 MLOAD DUP2 SLOAD PUSH1 0x1 PUSH1 0x1 PUSH1 0xA0 SHL SUB NOT AND PUSH1 0x1 PUSH1 0x1 PUSH1 0xA0 SHL SUB SWAP1 SWAP2 AND OR DUP2 SSTORE SWAP1 DUP3 ADD MLOAD PUSH1 0x1 DUP3 ADD SWAP1 PUSH2 0x1E44 SWAP1 DUP3 PUSH2 0x3007 JUMP JUMPDEST POP PUSH1 0x40 DUP3 ADD MLOAD PUSH1 0x2 DUP3 ADD DUP1 SLOAD PUSH1 0xFF NOT AND PUSH1 0x1 DUP4 DUP2 DUP2 GT ISZERO PUSH2 0x1E67 JUMPI PUSH2 0x1E67 PUSH2 0x2BFD JUMP JUMPDEST MUL OR SWAP1 SSTORE POP PUSH1 0x60 DUP3 ADD MLOAD PUSH1 0x3 DUP3 ADD SSTORE PUSH1 0x80 DUP3 ADD MLOAD PUSH1 0x4 DUP3 ADD DUP1 SLOAD PUSH1 0xFF NOT AND SWAP2 ISZERO ISZERO SWAP2 SWAP1 SWAP2 OR SWAP1 SSTORE PUSH1 0xA0 DUP3 ADD MLOAD PUSH1 0x5 DUP3 ADD SWAP1 PUSH2 0x1EA2 SWAP1 DUP3 PUSH2 0x3007 JUMP JUMPDEST POP POP POP PUSH1 0x1 PUSH1 0x1 PUSH1 0xA0 SHL SUB DUP5 AND PUSH1 0x0 SWAP1 DUP2 MSTORE PUSH1 0x3 PUSH1 0x20 SWAP1 DUP2 MSTORE PUSH1 0x40 DUP3 KECCAK256 DUP1 SLOAD PUSH1 0x1 DUP2 ADD DUP3 SSTORE SWAP1 DUP4 MSTORE SWAP2 KECCAK256 ADD PUSH2 0x1ED7 DUP5 DUP3 PUSH2 0x3007 JUMP JUMPDEST POP DUP3 PUSH1 0x40 MLOAD PUSH2 0x1EE6 SWAP2 SWAP1 PUSH2 0x2F38 JUMP JUMPDEST PUSH1 0x40 MLOAD DUP1 SWAP2 SUB SWAP1 KECCAK256 DUP5 PUSH1 0x1 PUSH1 0x1 PUSH1 0xA0 SHL SUB AND PUSH32 0xCFC85A8B1C16E20E4BFAE35D9AD4A0723A0F70D42AC79A187FE1890BA32BF259 DUP5 DUP5 TIMESTAMP PUSH1 0x40 MLOAD PUSH2 0x1F2B SWAP4 SWAP3 SWAP2 SWAP1 PUSH2 0x3197 JUMP JUMPDEST PUSH1 0x40 MLOAD DUP1 SWAP2 SUB SWAP1 LOG3 POP POP POP POP JUMP JUMPDEST PUSH1 0x8 DUP2 DUP2 SLOAD DUP2 LT PUSH2 0x1F49 JUMPI PUSH1 0x0 DUP1 REVERT JUMPDEST SWAP1 PUSH1 0x0 MSTORE PUSH1 0x20 PUSH1 0x0 KECCAK256 SWAP1 PUSH1 0x6 MUL ADD PUSH1 0x0 SWAP2 POP SWAP1 POP DUP1 PUSH1 0x0 ADD DUP1 SLOAD PUSH2 0x1F6C SWAP1 PUSH2 0x2F7E JUMP JUMPDEST DUP1 PUSH1 0x1F ADD PUSH1 0x20 DUP1 SWAP2 DIV MUL PUSH1 0x20 ADD PUSH1 0x40 MLOAD SWAP1 DUP2 ADD PUSH1 0x40 MSTORE DUP1 SWAP3 SWAP2 SWAP1 DUP2 DUP2 MSTORE PUSH1 0x20 ADD DUP3 DUP1 SLOAD PUSH2 0x1F98 SWAP1 PUSH2 0x2F7E JUMP JUMPDEST DUP1 ISZERO PUSH2 0x1FE5 JUMPI DUP1 PUSH1 0x1F LT PUSH2 0x1FBA JUMPI PUSH2 0x100 DUP1 DUP4 SLOAD DIV MUL DUP4 MSTORE SWAP2 PUSH1 0x20 ADD SWAP2 PUSH2 0x1FE5 JUMP JUMPDEST DUP3 ADD SWAP2 SWAP1 PUSH1 0x0 MSTORE PUSH1 0x20 PUSH1 0x0 KECCAK256 SWAP1 JUMPDEST DUP2 SLOAD DUP2 MSTORE SWAP1 PUSH1 0x1 ADD SWAP1 PUSH1 0x20 ADD DUP1 DUP4 GT PUSH2 0x1FC8 JUMPI DUP3 SWAP1 SUB PUSH1 0x1F AND DUP3 ADD SWAP2 JUMPDEST POP POP POP POP POP SWAP1 DUP1 PUSH1 0x1 ADD DUP1 SLOAD PUSH2 0x1FFA SWAP1 PUSH2 0x2F7E JUMP JUMPDEST DUP1 PUSH1 0x1F ADD PUSH1 0x20 DUP1 SWAP2 DIV MUL PUSH1 0x20 ADD PUSH1 0x40 MLOAD SWAP1 DUP2 ADD PUSH1 0x40 MSTORE DUP1 SWAP3 SWAP2 SWAP1 DUP2 DUP2 MSTORE PUSH1 0x20 ADD DUP3 DUP1 SLOAD PUSH2 0x2026 SWAP1 PUSH2 0x2F7E JUMP JUMPDEST DUP1 ISZERO PUSH2 0x2073 JUMPI DUP1 PUSH1 0x1F LT PUSH2 0x2048 JUMPI PUSH2 0x100 DUP1 DUP4 SLOAD DIV MUL DUP4 MSTORE SWAP2 PUSH1 0x20 ADD SWAP2 PUSH2 0x2073 JUMP JUMPDEST DUP3 ADD SWAP2 SWAP1 PUSH1 0x0 MSTORE PUSH1 0x20 PUSH1 0x0 KECCAK256 SWAP1 JUMPDEST DUP2 SLOAD DUP2 MSTORE SWAP1 PUSH1 0x1 ADD SWAP1 PUSH1 0x20 ADD DUP1 DUP4 GT PUSH2 0x2056 JUMPI DUP3 SWAP1 SUB PUSH1 0x1F AND DUP3 ADD SWAP2 JUMPDEST POP POP POP PUSH1 0x2 DUP5 ADD SLOAD PUSH1 0x3 DUP6 ADD SLOAD PUSH1 0x4 DUP7 ADD SLOAD PUSH1 0x5 DUP8 ADD DUP1 SLOAD SWAP7 SWAP8 PUSH1 0x1 PUSH1 0x1 PUSH1 0xA0 SHL SUB SWAP1 SWAP5 AND SWAP7 SWAP3 SWAP6 POP PUSH1 0xFF SWAP1 SWAP2 AND SWAP4 POP SWAP1 PUSH2 0x1597 SWAP1 PUSH2 0x2F7E JUMP JUMPDEST PUSH1 0x1 SLOAD PUSH1 0x1 PUSH1 0x1 PUSH1 0xA0 SHL SUB AND CALLER EQ PUSH2 0x20D7 JUMPI PUSH1 0x40 MLOAD PUSH3 0x461BCD PUSH1 0xE5 SHL DUP2 MSTORE PUSH1 0x4 ADD PUSH2 0x643 SWAP1 PUSH2 0x316A JUMP JUMPDEST PUSH1 0x6 DUP1 SLOAD SWAP1 DUP3 SWAP1 SSTORE PUSH1 0x40 DUP1 MLOAD DUP3 DUP2 MSTORE PUSH1 0x20 DUP2 ADD DUP5 SWAP1 MSTORE PUSH32 0xDA6EF35E324646A839D51FC31A263B65E8E7920DA1676E95C81F1356C9BECE0B SWAP2 ADD PUSH1 0x40 MLOAD DUP1 SWAP2 SUB SWAP1 LOG1 POP POP JUMP JUMPDEST PUSH1 0x1 PUSH1 0x1 PUSH1 0xA0 SHL SUB DUP2 AND PUSH1 0x0 SWAP1 DUP2 MSTORE PUSH1 0x3 PUSH1 0x20 SWAP1 DUP2 MSTORE PUSH1 0x40 DUP1 DUP4 KECCAK256 DUP1 SLOAD DUP3 MLOAD DUP2 DUP6 MUL DUP2 ADD DUP6 ADD SWAP1 SWAP4 MSTORE DUP1 DUP4 MSTORE PUSH1 0x60 SWAP5 SWAP3 SWAP4 SWAP2 SWAP3 SWAP1 SWAP2 DUP5 ADD JUMPDEST DUP3 DUP3 LT ISZERO PUSH2 0x2200 JUMPI DUP4 DUP3 SWAP1 PUSH1 0x0 MSTORE PUSH1 0x20 PUSH1 0x0 KECCAK256 ADD DUP1 SLOAD PUSH2 0x2173 SWAP1 PUSH2 0x2F7E JUMP JUMPDEST DUP1 PUSH1 0x1F ADD PUSH1 0x20 DUP1 SWAP2 DIV MUL PUSH1 0x20 ADD PUSH1 0x40 MLOAD SWAP1 DUP2 ADD PUSH1 0x40 MSTORE DUP1 SWAP3 SWAP2 SWAP1 DUP2 DUP2 MSTORE PUSH1 0x20 ADD DUP3 DUP1 SLOAD PUSH2 0x219F SWAP1 PUSH2 0x2F7E JUMP JUMPDEST DUP1 ISZERO PUSH2 0x21EC JUMPI DUP1 PUSH1 0x1F LT PUSH2 0x21C1 JUMPI PUSH2 0x100 DUP1 DUP4 SLOAD DIV MUL DUP4 MSTORE SWAP2 PUSH1 0x20 ADD SWAP2 PUSH2 0x21EC JUMP JUMPDEST DUP3 ADD SWAP2 SWAP1 PUSH1 0x0 MSTORE PUSH1 0x20 PUSH1 0x0 KECCAK256 SWAP1 JUMPDEST DUP2 SLOAD DUP2 MSTORE SWAP1 PUSH1 0x1 ADD SWAP1 PUSH1 0x20 ADD DUP1 DUP4 GT PUSH2 0x21CF JUMPI DUP3 SWAP1 SUB PUSH1 0x1F AND DUP3 ADD SWAP2 JUMPDEST POP POP POP POP POP DUP2 MSTORE PUSH1 0x20 ADD SWAP1 PUSH1 0x1 ADD SWAP1 PUSH2 0x2154 JUMP JUMPDEST POP POP POP POP SWAP1 POP SWAP2 SWAP1 POP JUMP JUMPDEST PUSH1 0x60 PUSH1 0x0 PUSH1 0x1 PUSH1 0x1 PUSH1 0xA0 SHL SUB AND PUSH1 0x2 DUP4 PUSH1 0x40 MLOAD PUSH2 0x2228 SWAP2 SWAP1 PUSH2 0x2F38 JUMP JUMPDEST SWAP1 DUP2 MSTORE PUSH1 0x40 MLOAD SWAP1 DUP2 SWAP1 SUB PUSH1 0x20 ADD SWAP1 KECCAK256 SLOAD PUSH1 0x1 PUSH1 0x1 PUSH1 0xA0 SHL SUB AND EQ PUSH2 0x224A JUMPI POP SWAP1 JUMP JUMPDEST PUSH1 0x0 PUSH1 0x4 DUP4 PUSH1 0x40 MLOAD PUSH2 0x225C SWAP2 SWAP1 PUSH2 0x2F38 JUMP JUMPDEST SWAP1 DUP2 MSTORE PUSH1 0x20 ADD PUSH1 0x40 MLOAD DUP1 SWAP2 SUB SWAP1 KECCAK256 DUP1 SLOAD PUSH2 0x2275 SWAP1 PUSH2 0x2F7E JUMP JUMPDEST DUP1 PUSH1 0x1F ADD PUSH1 0x20 DUP1 SWAP2 DIV MUL PUSH1 0x20 ADD PUSH1 0x40 MLOAD SWAP1 DUP2 ADD PUSH1 0x40 MSTORE DUP1 SWAP3 SWAP2 SWAP1 DUP2 DUP2 MSTORE PUSH1 0x20 ADD DUP3 DUP1 SLOAD PUSH2 0x22A1 SWAP1 PUSH2 0x2F7E JUMP JUMPDEST DUP1 ISZERO PUSH2 0x22EE JUMPI DUP1 PUSH1 0x1F LT PUSH2 0x22C3 JUMPI PUSH2 0x100 DUP1 DUP4 SLOAD DIV MUL DUP4 MSTORE SWAP2 PUSH1 0x20 ADD SWAP2 PUSH2 0x22EE JUMP JUMPDEST DUP3 ADD SWAP2 SWAP1 PUSH1 0x0 MSTORE PUSH1 0x20 PUSH1 0x0 KECCAK256 SWAP1 JUMPDEST DUP2 SLOAD DUP2 MSTORE SWAP1 PUSH1 0x1 ADD SWAP1 PUSH1 0x20 ADD DUP1 DUP4 GT PUSH2 0x22D1 JUMPI DUP3 SWAP1 SUB PUSH1 0x1F AND DUP3 ADD SWAP2 JUMPDEST POP POP POP POP POP SWAP1 POP PUSH1 0x0 DUP2 MLOAD GT PUSH2 0xD89 JUMPI PUSH1 0x40 MLOAD PUSH3 0x461BCD PUSH1 0xE5 SHL DUP2 MSTORE PUSH1 0x20 PUSH1 0x4 DUP3 ADD MSTORE PUSH1 0x10 PUSH1 0x24 DUP3 ADD MSTORE PUSH16 0x111BDB585A5B881B9BDD08199BDD5B99 PUSH1 0x82 SHL PUSH1 0x44 DUP3 ADD MSTORE PUSH1 0x64 ADD PUSH2 0x643 JUMP JUMPDEST PUSH2 0x2370 PUSH1 0x40 DUP1 MLOAD PUSH1 0xC0 DUP2 ADD DUP3 MSTORE PUSH1 0x0 DUP1 DUP3 MSTORE PUSH1 0x60 PUSH1 0x20 DUP4 ADD MSTORE SWAP1 SWAP2 DUP3 ADD SWAP1 DUP2 MSTORE PUSH1 0x0 PUSH1 0x20 DUP3 ADD DUP2 SWAP1 MSTORE PUSH1 0x40 DUP3 ADD MSTORE PUSH1 0x60 SWAP1 DUP2 ADD MSTORE SWAP1 JUMP JUMPDEST PUSH1 0x0 PUSH1 0x1 PUSH1 0x1 PUSH1 0xA0 SHL SUB AND PUSH1 0x2 DUP4 PUSH1 0x40 MLOAD PUSH2 0x238B SWAP2 SWAP1 PUSH2 0x2F38 JUMP JUMPDEST SWAP1 DUP2 MSTORE PUSH1 0x40 MLOAD SWAP1 DUP2 SWAP1 SUB PUSH1 0x20 ADD SWAP1 KECCAK256 SLOAD PUSH1 0x1 PUSH1 0x1 PUSH1 0xA0 SHL SUB AND EQ PUSH2 0x24D3 JUMPI PUSH1 0x2 DUP3 PUSH1 0x40 MLOAD PUSH2 0x23B9 SWAP2 SWAP1 PUSH2 0x2F38 JUMP JUMPDEST SWAP1 DUP2 MSTORE PUSH1 0x40 DUP1 MLOAD SWAP2 DUP3 SWAP1 SUB PUSH1 0x20 SWAP1 DUP2 ADD DUP4 KECCAK256 PUSH1 0xC0 DUP5 ADD SWAP1 SWAP3 MSTORE DUP2 SLOAD PUSH1 0x1 PUSH1 0x1 PUSH1 0xA0 SHL SUB AND DUP4 MSTORE PUSH1 0x1 DUP3 ADD DUP1 SLOAD SWAP2 DUP5 ADD SWAP2 PUSH2 0x23F2 SWAP1 PUSH2 0x2F7E JUMP JUMPDEST DUP1 PUSH1 0x1F ADD PUSH1 0x20 DUP1 SWAP2 DIV MUL PUSH1 0x20 ADD PUSH1 0x40 MLOAD SWAP1 DUP2 ADD PUSH1 0x40 MSTORE DUP1 SWAP3 SWAP2 SWAP1 DUP2 DUP2 MSTORE PUSH1 0x20 ADD DUP3 DUP1 SLOAD PUSH2 0x241E SWAP1 PUSH2 0x2F7E JUMP JUMPDEST DUP1 ISZERO PUSH2 0x246B JUMPI DUP1 PUSH1 0x1F LT PUSH2 0x2440 JUMPI PUSH2 0x100 DUP1 DUP4 SLOAD DIV MUL DUP4 MSTORE SWAP2 PUSH1 0x20 ADD SWAP2 PUSH2 0x246B JUMP JUMPDEST DUP3 ADD SWAP2 SWAP1 PUSH1 0x0 MSTORE PUSH1 0x20 PUSH1 0x0 KECCAK256 SWAP1 JUMPDEST DUP2 SLOAD DUP2 MSTORE SWAP1 PUSH1 0x1 ADD SWAP1 PUSH1 0x20 ADD DUP1 DUP4 GT PUSH2 0x244E JUMPI DUP3 SWAP1 SUB PUSH1 0x1F AND DUP3 ADD SWAP2 JUMPDEST POP POP POP SWAP2 DUP4 MSTORE POP POP PUSH1 0x2 DUP3 ADD SLOAD PUSH1 0x20 SWAP1 SWAP2 ADD SWAP1 PUSH1 0xFF AND PUSH1 0x1 DUP2 GT ISZERO PUSH2 0x2492 JUMPI PUSH2 0x2492 PUSH2 0x2BFD JUMP JUMPDEST PUSH1 0x1 DUP2 GT ISZERO PUSH2 0x24A3 JUMPI PUSH2 0x24A3 PUSH2 0x2BFD JUMP JUMPDEST DUP2 MSTORE PUSH1 0x3 DUP3 ADD SLOAD PUSH1 0x20 DUP3 ADD MSTORE PUSH1 0x4 DUP3 ADD SLOAD PUSH1 0xFF AND ISZERO ISZERO PUSH1 0x40 DUP3 ADD MSTORE PUSH1 0x5 DUP3 ADD DUP1 SLOAD PUSH1 0x60 SWAP1 SWAP3 ADD SWAP2 PUSH2 0x18E0 SWAP1 PUSH2 0x2F7E JUMP JUMPDEST PUSH1 0x0 PUSH1 0x4 DUP4 PUSH1 0x40 MLOAD PUSH2 0x24E5 SWAP2 SWAP1 PUSH2 0x2F38 JUMP JUMPDEST SWAP1 DUP2 MSTORE PUSH1 0x20 ADD PUSH1 0x40 MLOAD DUP1 SWAP2 SUB SWAP1 KECCAK256 DUP1 SLOAD PUSH2 0x24FE SWAP1 PUSH2 0x2F7E JUMP JUMPDEST DUP1 PUSH1 0x1F ADD PUSH1 0x20 DUP1 SWAP2 DIV MUL PUSH1 0x20 ADD PUSH1 0x40 MLOAD SWAP1 DUP2 ADD PUSH1 0x40 MSTORE DUP1 SWAP3 SWAP2 SWAP1 DUP2 DUP2 MSTORE PUSH1 0x20 ADD DUP3 DUP1 SLOAD PUSH2 0x252A SWAP1 PUSH2 0x2F7E JUMP JUMPDEST DUP1 ISZERO PUSH2 0x2577 JUMPI DUP1 PUSH1 0x1F LT PUSH2 0x254C JUMPI PUSH2 0x100 DUP1 DUP4 SLOAD DIV MUL DUP4 MSTORE SWAP2 PUSH1 0x20 ADD SWAP2 PUSH2 0x2577 JUMP JUMPDEST DUP3 ADD SWAP2 SWAP1 PUSH1 0x0 MSTORE PUSH1 0x20 PUSH1 0x0 KECCAK256 SWAP1 JUMPDEST DUP2 SLOAD DUP2 MSTORE SWAP1 PUSH1 0x1 ADD SWAP1 PUSH1 0x20 ADD DUP1 DUP4 GT PUSH2 0x255A JUMPI DUP3 SWAP1 SUB PUSH1 0x1F AND DUP3 ADD SWAP2 JUMPDEST POP POP POP POP POP SWAP1 POP PUSH1 0x0 DUP2 MLOAD GT PUSH2 0x25C0 JUMPI PUSH1 0x40 MLOAD PUSH3 0x461BCD PUSH1 0xE5 SHL DUP2 MSTORE PUSH1 0x20 PUSH1 0x4 DUP3 ADD MSTORE PUSH1 0xE PUSH1 0x24 DUP3 ADD MSTORE PUSH14 0x119BDC9B481B9BDD08199BDD5B99 PUSH1 0x92 SHL PUSH1 0x44 DUP3 ADD MSTORE PUSH1 0x64 ADD PUSH2 0x643 JUMP JUMPDEST PUSH1 0x2 DUP2 PUSH1 0x40 MLOAD PUSH2 0x25D0 SWAP2 SWAP1 PUSH2 0x2F38 JUMP JUMPDEST SWAP1 DUP2 MSTORE PUSH1 0x40 DUP1 MLOAD SWAP2 DUP3 SWAP1 SUB PUSH1 0x20 SWAP1 DUP2 ADD DUP4 KECCAK256 PUSH1 0xC0 DUP5 ADD SWAP1 SWAP3 MSTORE DUP2 SLOAD PUSH1 0x1 PUSH1 0x1 PUSH1 0xA0 SHL SUB AND DUP4 MSTORE PUSH1 0x1 DUP3 ADD DUP1 SLOAD SWAP2 DUP5 ADD SWAP2 PUSH2 0x2609 SWAP1 PUSH2 0x2F7E JUMP JUMPDEST DUP1 PUSH1 0x1F ADD PUSH1 0x20 DUP1 SWAP2 DIV MUL PUSH1 0x20 ADD PUSH1 0x40 MLOAD SWAP1 DUP2 ADD PUSH1 0x40 MSTORE DUP1 SWAP3 SWAP2 SWAP1 DUP2 DUP2 MSTORE PUSH1 0x20 ADD DUP3 DUP1 SLOAD PUSH2 0x2635 SWAP1 PUSH2 0x2F7E JUMP JUMPDEST DUP1 ISZERO PUSH2 0x2682 JUMPI DUP1 PUSH1 0x1F LT PUSH2 0x2657 JUMPI PUSH2 0x100 DUP1 DUP4 SLOAD DIV MUL DUP4 MSTORE SWAP2 PUSH1 0x20 ADD SWAP2 PUSH2 0x2682 JUMP JUMPDEST DUP3 ADD SWAP2 SWAP1 PUSH1 0x0 MSTORE PUSH1 0x20 PUSH1 0x0 KECCAK256 SWAP1 JUMPDEST DUP2 SLOAD DUP2 MSTORE SWAP1 PUSH1 0x1 ADD SWAP1 PUSH1 0x20 ADD DUP1 DUP4 GT PUSH2 0x2665 JUMPI DUP3 SWAP1 SUB PUSH1 0x1F AND DUP3 ADD SWAP2 JUMPDEST POP POP POP SWAP2 DUP4 MSTORE POP POP PUSH1 0x2 DUP3 ADD SLOAD PUSH1 0x20 SWAP1 SWAP2 ADD SWAP1 PUSH1 0xFF AND PUSH1 0x1 DUP2 GT ISZERO PUSH2 0x26A9 JUMPI PUSH2 0x26A9 PUSH2 0x2BFD JUMP JUMPDEST PUSH1 0x1 DUP2 GT ISZERO PUSH2 0x26BA JUMPI PUSH2 0x26BA PUSH2 0x2BFD JUMP JUMPDEST DUP2 MSTORE PUSH1 0x3 DUP3 ADD SLOAD PUSH1 0x20 DUP3 ADD MSTORE PUSH1 0x4 DUP3 ADD SLOAD PUSH1 0xFF AND ISZERO ISZERO PUSH1 0x40 DUP3 ADD MSTORE PUSH1 0x5 DUP3 ADD DUP1 SLOAD PUSH1 0x60 SWAP1 SWAP3 ADD SWAP2 PUSH2 0x26EA SWAP1 PUSH2 0x2F7E JUMP JUMPDEST DUP1 PUSH1 0x1F ADD PUSH1 0x20 DUP1 SWAP2 DIV MUL PUSH1 0x20 ADD PUSH1 0x40 MLOAD SWAP1 DUP2 ADD PUSH1 0x40 MSTORE DUP1 SWAP3 SWAP2 SWAP1 DUP2 DUP2 MSTORE PUSH1 0x20 ADD DUP3 DUP1 SLOAD PUSH2 0x2716 SWAP1 PUSH2 0x2F7E JUMP JUMPDEST DUP1 ISZERO PUSH2 0x2763 JUMPI DUP1 PUSH1 0x1F LT PUSH2 0x2738 JUMPI PUSH2 0x100 DUP1 DUP4 SLOAD DIV MUL DUP4 MSTORE SWAP2 PUSH1 0x20 ADD SWAP2 PUSH2 0x2763 JUMP JUMPDEST DUP3 ADD SWAP2 SWAP1 PUSH1 0x0 MSTORE PUSH1 0x20 PUSH1 0x0 KECCAK256 SWAP1 JUMPDEST DUP2 SLOAD DUP2 MSTORE SWAP1 PUSH1 0x1 ADD SWAP1 PUSH1 0x20 ADD DUP1 DUP4 GT PUSH2 0x2746 JUMPI DUP3 SWAP1 SUB PUSH1 0x1F AND DUP3 ADD SWAP2 JUMPDEST POP POP POP POP POP DUP2 MSTORE POP POP SWAP2 POP POP SWAP2 SWAP1 POP JUMP JUMPDEST POP DUP1 SLOAD PUSH2 0x2780 SWAP1 PUSH2 0x2F7E JUMP JUMPDEST PUSH1 0x0 DUP3 SSTORE DUP1 PUSH1 0x1F LT PUSH2 0x2790 JUMPI POP POP JUMP JUMPDEST PUSH1 0x1F ADD PUSH1 0x20 SWAP1 DIV SWAP1 PUSH1 0x0 MSTORE PUSH1 0x20 PUSH1 0x0 KECCAK256 SWAP1 DUP2 ADD SWAP1 PUSH2 0x27AE SWAP2 SWAP1 PUSH2 0x27F2 JUMP JUMPDEST POP JUMP JUMPDEST PUSH1 0x40 MLOAD DUP1 PUSH1 0xC0 ADD PUSH1 0x40 MSTORE DUP1 PUSH1 0x60 DUP2 MSTORE PUSH1 0x20 ADD PUSH1 0x60 DUP2 MSTORE PUSH1 0x20 ADD PUSH1 0x0 PUSH1 0x1 PUSH1 0x1 PUSH1 0xA0 SHL SUB AND DUP2 MSTORE PUSH1 0x20 ADD PUSH1 0x0 DUP2 MSTORE PUSH1 0x20 ADD PUSH1 0x0 ISZERO ISZERO DUP2 MSTORE PUSH1 0x20 ADD PUSH1 0x60 DUP2 MSTORE POP SWAP1 JUMP JUMPDEST JUMPDEST DUP1 DUP3 GT ISZERO PUSH2 0x2807 JUMPI PUSH1 0x0 DUP2 SSTORE PUSH1 0x1 ADD PUSH2 0x27F3 JUMP JUMPDEST POP SWAP1 JUMP JUMPDEST PUSH4 0x4E487B71 PUSH1 0xE0 SHL PUSH1 0x0 MSTORE PUSH1 0x41 PUSH1 0x4 MSTORE PUSH1 0x24 PUSH1 0x0 REVERT JUMPDEST PUSH1 0x0 DUP3 PUSH1 0x1F DUP4 ADD SLT PUSH2 0x2832 JUMPI PUSH1 0x0 DUP1 REVERT JUMPDEST DUP2 CALLDATALOAD PUSH8 0xFFFFFFFFFFFFFFFF DUP1 DUP3 GT ISZERO PUSH2 0x284D JUMPI PUSH2 0x284D PUSH2 0x280B JUMP JUMPDEST PUSH1 0x40 MLOAD PUSH1 0x1F DUP4 ADD PUSH1 0x1F NOT SWAP1 DUP2 AND PUSH1 0x3F ADD AND DUP2 ADD SWAP1 DUP3 DUP3 GT DUP2 DUP4 LT OR ISZERO PUSH2 0x2875 JUMPI PUSH2 0x2875 PUSH2 0x280B JUMP JUMPDEST DUP2 PUSH1 0x40 MSTORE DUP4 DUP2 MSTORE DUP7 PUSH1 0x20 DUP6 DUP9 ADD ADD GT ISZERO PUSH2 0x288E JUMPI PUSH1 0x0 DUP1 REVERT JUMPDEST DUP4 PUSH1 0x20 DUP8 ADD PUSH1 0x20 DUP4 ADD CALLDATACOPY PUSH1 0x0 PUSH1 0x20 DUP6 DUP4 ADD ADD MSTORE DUP1 SWAP5 POP POP POP POP POP SWAP3 SWAP2 POP POP JUMP JUMPDEST PUSH1 0x0 PUSH1 0x20 DUP3 DUP5 SUB SLT ISZERO PUSH2 0x28C0 JUMPI PUSH1 0x0 DUP1 REVERT JUMPDEST DUP2 CALLDATALOAD PUSH8 0xFFFFFFFFFFFFFFFF DUP2 GT ISZERO PUSH2 0x28D7 JUMPI PUSH1 0x0 DUP1 REVERT JUMPDEST PUSH2 0x28E3 DUP5 DUP3 DUP6 ADD PUSH2 0x2821 JUMP JUMPDEST SWAP5 SWAP4 POP POP POP POP JUMP JUMPDEST PUSH1 0x0 DUP1 PUSH1 0x40 DUP4 DUP6 SUB SLT ISZERO PUSH2 0x28FE JUMPI PUSH1 0x0 DUP1 REVERT JUMPDEST DUP3 CALLDATALOAD PUSH8 0xFFFFFFFFFFFFFFFF DUP1 DUP3 GT ISZERO PUSH2 0x2916 JUMPI PUSH1 0x0 DUP1 REVERT JUMPDEST PUSH2 0x2922 DUP7 DUP4 DUP8 ADD PUSH2 0x2821 JUMP JUMPDEST SWAP4 POP PUSH1 0x20 DUP6 ADD CALLDATALOAD SWAP2 POP DUP1 DUP3 GT ISZERO PUSH2 0x2938 JUMPI PUSH1 0x0 DUP1 REVERT JUMPDEST POP PUSH2 0x2945 DUP6 DUP3 DUP7 ADD PUSH2 0x2821 JUMP JUMPDEST SWAP2 POP POP SWAP3 POP SWAP3 SWAP1 POP JUMP JUMPDEST DUP1 CALLDATALOAD PUSH1 0x1 PUSH1 0x1 PUSH1 0xA0 SHL SUB DUP2 AND DUP2 EQ PUSH2 0x2966 JUMPI PUSH1 0x0 DUP1 REVERT JUMPDEST SWAP2 SWAP1 POP JUMP JUMPDEST DUP1 CALLDATALOAD DUP1 ISZERO ISZERO DUP2 EQ PUSH2 0x2966 JUMPI PUSH1 0x0 DUP1 REVERT JUMPDEST PUSH1 0x0 DUP1 PUSH1 0x0 DUP1 PUSH1 0x0 PUSH1 0xA0 DUP7 DUP9 SUB SLT ISZERO PUSH2 0x2993 JUMPI PUSH1 0x0 DUP1 REVERT JUMPDEST DUP6 CALLDATALOAD PUSH8 0xFFFFFFFFFFFFFFFF DUP1 DUP3 GT ISZERO PUSH2 0x29AB JUMPI PUSH1 0x0 DUP1 REVERT JUMPDEST PUSH2 0x29B7 DUP10 DUP4 DUP11 ADD PUSH2 0x2821 JUMP JUMPDEST SWAP7 POP PUSH1 0x20 DUP9 ADD CALLDATALOAD SWAP2 POP DUP1 DUP3 GT ISZERO PUSH2 0x29CD JUMPI PUSH1 0x0 DUP1 REVERT JUMPDEST PUSH2 0x29D9 DUP10 DUP4 DUP11 ADD PUSH2 0x2821 JUMP JUMPDEST SWAP6 POP PUSH2 0x29E7 PUSH1 0x40 DUP10 ADD PUSH2 0x294F JUMP JUMPDEST SWAP5 POP PUSH2 0x29F5 PUSH1 0x60 DUP10 ADD PUSH2 0x296B JUMP JUMPDEST SWAP4 POP PUSH1 0x80 DUP9 ADD CALLDATALOAD SWAP2 POP DUP1 DUP3 GT ISZERO PUSH2 0x2A0B JUMPI PUSH1 0x0 DUP1 REVERT JUMPDEST POP PUSH2 0x2A18 DUP9 DUP3 DUP10 ADD PUSH2 0x2821 JUMP JUMPDEST SWAP2 POP POP SWAP3 SWAP6 POP SWAP3 SWAP6 SWAP1 SWAP4 POP JUMP JUMPDEST PUSH1 0x0 DUP1 PUSH1 0x40 DUP4 DUP6 SUB SLT ISZERO PUSH2 0x2A38 JUMPI PUSH1 0x0 DUP1 REVERT JUMPDEST DUP3 CALLDATALOAD PUSH8 0xFFFFFFFFFFFFFFFF DUP2 GT ISZERO PUSH2 0x2A4F JUMPI PUSH1 0x0 DUP1 REVERT JUMPDEST PUSH2 0x2A5B DUP6 DUP3 DUP7 ADD PUSH2 0x2821 JUMP JUMPDEST SWAP3 POP POP PUSH2 0x2A6A PUSH1 0x20 DUP5 ADD PUSH2 0x294F JUMP JUMPDEST SWAP1 POP SWAP3 POP SWAP3 SWAP1 POP JUMP JUMPDEST PUSH1 0x0 JUMPDEST DUP4 DUP2 LT ISZERO PUSH2 0x2A8E JUMPI DUP2 DUP2 ADD MLOAD DUP4 DUP3 ADD MSTORE PUSH1 0x20 ADD PUSH2 0x2A76 JUMP JUMPDEST POP POP PUSH1 0x0 SWAP2 ADD MSTORE JUMP JUMPDEST PUSH1 0x0 DUP2 MLOAD DUP1 DUP5 MSTORE PUSH2 0x2AAF DUP2 PUSH1 0x20 DUP7 ADD PUSH1 0x20 DUP7 ADD PUSH2 0x2A73 JUMP JUMPDEST PUSH1 0x1F ADD PUSH1 0x1F NOT AND SWAP3 SWAP1 SWAP3 ADD PUSH1 0x20 ADD SWAP3 SWAP2 POP POP JUMP JUMPDEST PUSH1 0x20 DUP2 MSTORE PUSH1 0x0 PUSH2 0x2AD6 PUSH1 0x20 DUP4 ADD DUP5 PUSH2 0x2A97 JUMP JUMPDEST SWAP4 SWAP3 POP POP POP JUMP JUMPDEST PUSH1 0x0 DUP1 PUSH1 0x40 DUP4 DUP6 SUB SLT ISZERO PUSH2 0x2AF0 JUMPI PUSH1 0x0 DUP1 REVERT JUMPDEST DUP3 CALLDATALOAD PUSH8 0xFFFFFFFFFFFFFFFF DUP2 GT ISZERO PUSH2 0x2B07 JUMPI PUSH1 0x0 DUP1 REVERT JUMPDEST PUSH2 0x2B13 DUP6 DUP3 DUP7 ADD PUSH2 0x2821 JUMP JUMPDEST SWAP6 PUSH1 0x20 SWAP5 SWAP1 SWAP5 ADD CALLDATALOAD SWAP5 POP POP POP POP JUMP JUMPDEST PUSH1 0x0 DUP2 MLOAD PUSH1 0xC0 DUP5 MSTORE PUSH2 0x2B37 PUSH1 0xC0 DUP6 ADD DUP3 PUSH2 0x2A97 JUMP JUMPDEST SWAP1 POP PUSH1 0x20 DUP4 ADD MLOAD DUP5 DUP3 SUB PUSH1 0x20 DUP7 ADD MSTORE PUSH2 0x2B50 DUP3 DUP3 PUSH2 0x2A97 JUMP JUMPDEST SWAP2 POP POP PUSH1 0x1 DUP1 PUSH1 0xA0 SHL SUB PUSH1 0x40 DUP5 ADD MLOAD AND PUSH1 0x40 DUP6 ADD MSTORE PUSH1 0x60 DUP4 ADD MLOAD PUSH1 0x60 DUP6 ADD MSTORE PUSH1 0x80 DUP4 ADD MLOAD ISZERO ISZERO PUSH1 0x80 DUP6 ADD MSTORE PUSH1 0xA0 DUP4 ADD MLOAD DUP5 DUP3 SUB PUSH1 0xA0 DUP7 ADD MSTORE PUSH2 0x2B92 DUP3 DUP3 PUSH2 0x2A97 JUMP JUMPDEST SWAP6 SWAP5 POP POP POP POP POP JUMP JUMPDEST PUSH1 0x0 PUSH1 0x20 DUP1 DUP4 ADD DUP2 DUP5 MSTORE DUP1 DUP6 MLOAD DUP1 DUP4 MSTORE PUSH1 0x40 DUP7 ADD SWAP2 POP PUSH1 0x40 DUP2 PUSH1 0x5 SHL DUP8 ADD ADD SWAP3 POP DUP4 DUP8 ADD PUSH1 0x0 JUMPDEST DUP3 DUP2 LT ISZERO PUSH2 0x2BF0 JUMPI PUSH1 0x3F NOT DUP9 DUP7 SUB ADD DUP5 MSTORE PUSH2 0x2BDE DUP6 DUP4 MLOAD PUSH2 0x2B22 JUMP JUMPDEST SWAP5 POP SWAP3 DUP6 ADD SWAP3 SWAP1 DUP6 ADD SWAP1 PUSH1 0x1 ADD PUSH2 0x2BC2 JUMP JUMPDEST POP SWAP3 SWAP8 SWAP7 POP POP POP POP POP POP POP JUMP JUMPDEST PUSH4 0x4E487B71 PUSH1 0xE0 SHL PUSH1 0x0 MSTORE PUSH1 0x21 PUSH1 0x4 MSTORE PUSH1 0x24 PUSH1 0x0 REVERT JUMPDEST PUSH1 0x2 DUP2 LT PUSH2 0x2C31 JUMPI PUSH4 0x4E487B71 PUSH1 0xE0 SHL PUSH1 0x0 MSTORE PUSH1 0x21 PUSH1 0x4 MSTORE PUSH1 0x24 PUSH1 0x0 REVERT JUMPDEST SWAP1 MSTORE JUMP JUMPDEST PUSH1 0x1 PUSH1 0x1 PUSH1 0xA0 SHL SUB DUP8 AND DUP2 MSTORE PUSH1 0xC0 PUSH1 0x20 DUP3 ADD DUP2 SWAP1 MSTORE PUSH1 0x0 SWAP1 PUSH2 0x2C59 SWAP1 DUP4 ADD DUP9 PUSH2 0x2A97 JUMP JUMPDEST PUSH2 0x2C66 PUSH1 0x40 DUP5 ADD DUP9 PUSH2 0x2C13 JUMP JUMPDEST DUP6 PUSH1 0x60 DUP5 ADD MSTORE DUP5 ISZERO ISZERO PUSH1 0x80 DUP5 ADD MSTORE DUP3 DUP2 SUB PUSH1 0xA0 DUP5 ADD MSTORE PUSH2 0x2C86 DUP2 DUP6 PUSH2 0x2A97 JUMP JUMPDEST SWAP10 SWAP9 POP POP POP POP POP POP POP POP POP JUMP JUMPDEST PUSH1 0x0 DUP1 PUSH1 0x40 DUP4 DUP6 SUB SLT ISZERO PUSH2 0x2CA6 JUMPI PUSH1 0x0 DUP1 REVERT JUMPDEST PUSH2 0x2CAF DUP4 PUSH2 0x294F JUMP JUMPDEST SWAP5 PUSH1 0x20 SWAP4 SWAP1 SWAP4 ADD CALLDATALOAD SWAP4 POP POP POP JUMP JUMPDEST PUSH1 0x0 PUSH1 0x20 DUP3 DUP5 SUB SLT ISZERO PUSH2 0x2CCF JUMPI PUSH1 0x0 DUP1 REVERT JUMPDEST POP CALLDATALOAD SWAP2 SWAP1 POP JUMP JUMPDEST PUSH1 0x20 DUP2 MSTORE PUSH1 0x0 PUSH2 0x2AD6 PUSH1 0x20 DUP4 ADD DUP5 PUSH2 0x2B22 JUMP JUMPDEST PUSH1 0x0 DUP1 PUSH1 0x40 DUP4 DUP6 SUB SLT ISZERO PUSH2 0x2CFC JUMPI PUSH1 0x0 DUP1 REVERT JUMPDEST DUP3 CALLDATALOAD PUSH8 0xFFFFFFFFFFFFFFFF DUP2 GT ISZERO PUSH2 0x2D13 JUMPI PUSH1 0x0 DUP1 REVERT JUMPDEST PUSH2 0x2D1F DUP6 DUP3 DUP7 ADD PUSH2 0x2821 JUMP JUMPDEST SWAP3 POP POP PUSH2 0x2A6A PUSH1 0x20 DUP5 ADD PUSH2 0x296B JUMP JUMPDEST PUSH1 0x0 PUSH1 0x20 DUP3 DUP5 SUB SLT ISZERO PUSH2 0x2D40 JUMPI PUSH1 0x0 DUP1 REVERT JUMPDEST PUSH2 0x2AD6 DUP3 PUSH2 0x294F JUMP JUMPDEST PUSH1 0x20 DUP1 DUP3 MSTORE DUP3 MLOAD DUP3 DUP3 ADD DUP2 SWAP1 MSTORE PUSH1 0x0 SWAP2 SWAP1 DUP5 DUP3 ADD SWAP1 PUSH1 0x40 DUP6 ADD SWAP1 DUP5 JUMPDEST DUP2 DUP2 LT ISZERO PUSH2 0x2D81 JUMPI DUP4 MLOAD DUP4 MSTORE SWAP3 DUP5 ADD SWAP3 SWAP2 DUP5 ADD SWAP2 PUSH1 0x1 ADD PUSH2 0x2D65 JUMP JUMPDEST POP SWAP1 SWAP7 SWAP6 POP POP POP POP POP POP JUMP JUMPDEST PUSH1 0x0 DUP1 PUSH1 0x0 DUP1 PUSH1 0x80 DUP6 DUP8 SUB SLT ISZERO PUSH2 0x2DA3 JUMPI PUSH1 0x0 DUP1 REVERT JUMPDEST PUSH2 0x2DAC DUP6 PUSH2 0x294F JUMP JUMPDEST SWAP4 POP PUSH1 0x20 DUP6 ADD CALLDATALOAD PUSH8 0xFFFFFFFFFFFFFFFF DUP1 DUP3 GT ISZERO PUSH2 0x2DC9 JUMPI PUSH1 0x0 DUP1 REVERT JUMPDEST PUSH2 0x2DD5 DUP9 DUP4 DUP10 ADD PUSH2 0x2821 JUMP JUMPDEST SWAP5 POP PUSH1 0x40 DUP8 ADD CALLDATALOAD SWAP2 POP DUP1 DUP3 GT ISZERO PUSH2 0x2DEB JUMPI PUSH1 0x0 DUP1 REVERT JUMPDEST POP PUSH2 0x2DF8 DUP8 DUP3 DUP9 ADD PUSH2 0x2821 JUMP JUMPDEST SWAP3 POP POP PUSH1 0x60 DUP6 ADD CALLDATALOAD PUSH1 0x2 DUP2 LT PUSH2 0x2E0D JUMPI PUSH1 0x0 DUP1 REVERT JUMPDEST SWAP4 SWAP7 SWAP3 SWAP6 POP SWAP1 SWAP4 POP POP JUMP JUMPDEST PUSH1 0xC0 DUP2 MSTORE PUSH1 0x0 PUSH2 0x2E2B PUSH1 0xC0 DUP4 ADD DUP10 PUSH2 0x2A97 JUMP JUMPDEST DUP3 DUP2 SUB PUSH1 0x20 DUP5 ADD MSTORE PUSH2 0x2E3D DUP2 DUP10 PUSH2 0x2A97 JUMP JUMPDEST PUSH1 0x1 PUSH1 0x1 PUSH1 0xA0 SHL SUB DUP9 AND PUSH1 0x40 DUP6 ADD MSTORE PUSH1 0x60 DUP5 ADD DUP8 SWAP1 MSTORE DUP6 ISZERO ISZERO PUSH1 0x80 DUP6 ADD MSTORE DUP4 DUP2 SUB PUSH1 0xA0 DUP6 ADD MSTORE SWAP1 POP PUSH2 0x2C86 DUP2 DUP6 PUSH2 0x2A97 JUMP JUMPDEST PUSH1 0x0 PUSH1 0x20 DUP1 DUP4 ADD DUP2 DUP5 MSTORE DUP1 DUP6 MLOAD DUP1 DUP4 MSTORE PUSH1 0x40 DUP7 ADD SWAP2 POP PUSH1 0x40 DUP2 PUSH1 0x5 SHL DUP8 ADD ADD SWAP3 POP DUP4 DUP8 ADD PUSH1 0x0 JUMPDEST DUP3 DUP2 LT ISZERO PUSH2 0x2BF0 JUMPI PUSH1 0x3F NOT DUP9 DUP7 SUB ADD DUP5 MSTORE PUSH2 0x2EB2 DUP6 DUP4 MLOAD PUSH2 0x2A97 JUMP JUMPDEST SWAP5 POP SWAP3 DUP6 ADD SWAP3 SWAP1 DUP6 ADD SWAP1 PUSH1 0x1 ADD PUSH2 0x2E96 JUMP JUMPDEST PUSH1 0x20 DUP1 DUP3 MSTORE DUP3 MLOAD PUSH1 0x1 PUSH1 0x1 PUSH1 0xA0 SHL SUB AND DUP3 DUP3 ADD MSTORE DUP3 ADD MLOAD PUSH1 0xC0 PUSH1 0x40 DUP4 ADD MSTORE PUSH1 0x0 SWAP1 PUSH2 0x2EF2 PUSH1 0xE0 DUP5 ADD DUP3 PUSH2 0x2A97 JUMP JUMPDEST SWAP1 POP PUSH1 0x40 DUP5 ADD MLOAD PUSH2 0x2F06 PUSH1 0x60 DUP6 ADD DUP3 PUSH2 0x2C13 JUMP JUMPDEST POP PUSH1 0x60 DUP5 ADD MLOAD PUSH1 0x80 DUP5 ADD MSTORE PUSH1 0x80 DUP5 ADD MLOAD ISZERO ISZERO PUSH1 0xA0 DUP5 ADD MSTORE PUSH1 0xA0 DUP5 ADD MLOAD PUSH1 0x1F NOT DUP5 DUP4 SUB ADD PUSH1 0xC0 DUP6 ADD MSTORE PUSH2 0x2B92 DUP3 DUP3 PUSH2 0x2A97 JUMP JUMPDEST PUSH1 0x0 DUP3 MLOAD PUSH2 0x2F4A DUP2 DUP5 PUSH1 0x20 DUP8 ADD PUSH2 0x2A73 JUMP JUMPDEST SWAP2 SWAP1 SWAP2 ADD SWAP3 SWAP2 POP POP JUMP JUMPDEST PUSH1 0x20 DUP1 DUP3 MSTORE PUSH1 0x10 SWAP1 DUP3 ADD MSTORE PUSH16 0x2737BA103337B9369031B932B0BA37B9 PUSH1 0x81 SHL PUSH1 0x40 DUP3 ADD MSTORE PUSH1 0x60 ADD SWAP1 JUMP JUMPDEST PUSH1 0x1 DUP2 DUP2 SHR SWAP1 DUP3 AND DUP1 PUSH2 0x2F92 JUMPI PUSH1 0x7F DUP3 AND SWAP2 POP JUMPDEST PUSH1 0x20 DUP3 LT DUP2 SUB PUSH2 0x2FB2 JUMPI PUSH4 0x4E487B71 PUSH1 0xE0 SHL PUSH1 0x0 MSTORE PUSH1 0x22 PUSH1 0x4 MSTORE PUSH1 0x24 PUSH1 0x0 REVERT JUMPDEST POP SWAP2 SWAP1 POP JUMP JUMPDEST PUSH1 0x1F DUP3 GT ISZERO PUSH2 0x3002 JUMPI PUSH1 0x0 DUP2 DUP2 MSTORE PUSH1 0x20 DUP2 KECCAK256 PUSH1 0x1F DUP6 ADD PUSH1 0x5 SHR DUP2 ADD PUSH1 0x20 DUP7 LT ISZERO PUSH2 0x2FDF JUMPI POP DUP1 JUMPDEST PUSH1 0x1F DUP6 ADD PUSH1 0x5 SHR DUP3 ADD SWAP2 POP JUMPDEST DUP2 DUP2 LT ISZERO PUSH2 0x2FFE JUMPI DUP3 DUP2 SSTORE PUSH1 0x1 ADD PUSH2 0x2FEB JUMP JUMPDEST POP POP POP JUMPDEST POP POP POP JUMP JUMPDEST DUP2 MLOAD PUSH8 0xFFFFFFFFFFFFFFFF DUP2 GT ISZERO PUSH2 0x3021 JUMPI PUSH2 0x3021 PUSH2 0x280B JUMP JUMPDEST PUSH2 0x3035 DUP2 PUSH2 0x302F DUP5 SLOAD PUSH2 0x2F7E JUMP JUMPDEST DUP5 PUSH2 0x2FB8 JUMP JUMPDEST PUSH1 0x20 DUP1 PUSH1 0x1F DUP4 GT PUSH1 0x1 DUP2 EQ PUSH2 0x306A JUMPI PUSH1 0x0 DUP5 ISZERO PUSH2 0x3052 JUMPI POP DUP6 DUP4 ADD MLOAD JUMPDEST PUSH1 0x0 NOT PUSH1 0x3 DUP7 SWAP1 SHL SHR NOT AND PUSH1 0x1 DUP6 SWAP1 SHL OR DUP6 SSTORE PUSH2 0x2FFE JUMP JUMPDEST PUSH1 0x0 DUP6 DUP2 MSTORE PUSH1 0x20 DUP2 KECCAK256 PUSH1 0x1F NOT DUP7 AND SWAP2 JUMPDEST DUP3 DUP2 LT ISZERO PUSH2 0x3099 JUMPI DUP9 DUP7 ADD MLOAD DUP3 SSTORE SWAP5 DUP5 ADD SWAP5 PUSH1 0x1 SWAP1 SWAP2 ADD SWAP1 DUP5 ADD PUSH2 0x307A JUMP JUMPDEST POP DUP6 DUP3 LT ISZERO PUSH2 0x30B7 JUMPI DUP8 DUP6 ADD MLOAD PUSH1 0x0 NOT PUSH1 0x3 DUP9 SWAP1 SHL PUSH1 0xF8 AND SHR NOT AND DUP2 SSTORE JUMPDEST POP POP POP POP POP PUSH1 0x1 SWAP1 DUP2 SHL ADD SWAP1 SSTORE POP JUMP JUMPDEST PUSH1 0x40 DUP2 MSTORE PUSH1 0x0 PUSH2 0x30DA PUSH1 0x40 DUP4 ADD DUP6 PUSH2 0x2A97 JUMP JUMPDEST SWAP1 POP DUP3 PUSH1 0x20 DUP4 ADD MSTORE SWAP4 SWAP3 POP POP POP JUMP JUMPDEST PUSH4 0x4E487B71 PUSH1 0xE0 SHL PUSH1 0x0 MSTORE PUSH1 0x11 PUSH1 0x4 MSTORE PUSH1 0x24 PUSH1 0x0 REVERT JUMPDEST DUP2 DUP2 SUB DUP2 DUP2 GT ISZERO PUSH2 0xD89 JUMPI PUSH2 0xD89 PUSH2 0x30E9 JUMP JUMPDEST DUP4 DUP2 MSTORE PUSH1 0x60 PUSH1 0x20 DUP3 ADD MSTORE PUSH1 0x0 PUSH2 0x312B PUSH1 0x60 DUP4 ADD DUP6 PUSH2 0x2A97 JUMP JUMPDEST SWAP1 POP DUP3 PUSH1 0x40 DUP4 ADD MSTORE SWAP5 SWAP4 POP POP POP POP JUMP JUMPDEST PUSH4 0x4E487B71 PUSH1 0xE0 SHL PUSH1 0x0 MSTORE PUSH1 0x32 PUSH1 0x4 MSTORE PUSH1 0x24 PUSH1 0x0 REVERT JUMPDEST PUSH1 0x0 PUSH1 0x1 DUP3 ADD PUSH2 0x3163 JUMPI PUSH2 0x3163 PUSH2 0x30E9 JUMP JUMPDEST POP PUSH1 0x1 ADD SWAP1 JUMP JUMPDEST PUSH1 0x20 DUP1 DUP3 MSTORE PUSH1 0x13 SWAP1 DUP3 ADD MSTORE PUSH19 0x27B7363C9031B7B73A3930B1BA1037BBB732B9 PUSH1 0x69 SHL PUSH1 0x40 DUP3 ADD MSTORE PUSH1 0x60 ADD SWAP1 JUMP JUMPDEST PUSH1 0x60 DUP2 MSTORE PUSH1 0x0 PUSH2 0x31AA PUSH1 0x60 DUP4 ADD DUP7 PUSH2 0x2A97 JUMP JUMPDEST SWAP1 POP PUSH2 0x31B9 PUSH1 0x20 DUP4 ADD DUP6 PUSH2 0x2C13 JUMP JUMPDEST DUP3 PUSH1 0x40 DUP4 ADD MSTORE SWAP5 SWAP4 POP POP POP POP JUMP INVALID LOG2 PUSH5 0x6970667358 0x22 SLT KECCAK256 0xC1 0xD2 DUP7 PREVRANDAO 0xF7 PUSH16 0x80038729CDF6A1E41C24CA49E14A0FC4 0xE 0xE7 SDIV LOG4 ISZERO 0xE4 0xD 0xDB SWAP4 SWAP12 PUSH5 0x736F6C6343 STOP ADDMOD EQ STOP CALLER "},"methodIdentifiers":{"creatorForms(address,uint256)":"5656675a","customDomains(string)":"29d93cfa","domainOwners(string)":"f2b49896","domainPrice()":"5c97404a","formResponses(string,uint256)":"315ae765","forms(string)":"3c8aea30","getCreatorForms(address)":"f68e9672","getForm(string)":"fcf29873","getFormResponseCount(string)":"023b81f6","getFormResponseDetails(string)":"366d7103","getFormResponses(string)":"b045c572","getResponse(uint256)":"70c18199","hasCustomDomain(string)":"b9eb3d4e","isFormCreator(string,address)":"23813a10","owner()":"8da5cb5b","registerCustomDomain(string,string)":"02eb092b","registerForm(address,string,string,uint8)":"e3c27d32","releaseCustomDomain(string)":"250553a8","resolveToIPNS(string)":"fcbfedae","responses(uint256)":"ed35d7e5","serverWallet()":"1a59f0f0","setFormStatus(string,bool)":"9c432feb","submitResponse(string,string,address,bool,string)":"1a3d767e","updateDomainPrice(uint256)":"efae532d","updateEncryptedKey(string,string)":"9744c85b","updateServerWallet(address)":"a293a996","withdraw()":"3ccfd60b"}}}}}