{
  "_format": "hh-sol-artifact-1",
  "contractName": "FormRegistry",
  "sourceName": "contracts/FormRegistry.sol",
  "abi": [
    {
      "inputs": [
        {
          "internalType": "address",
          "name": "_serverWallet",
          "type": "address"
        }
      ],
      "stateMutability": "nonpayable",
      "type": "constructor"
    },
    {
      "anonymous": false,
      "inputs": [
        {
          "indexed": true,
          "internalType": "string",
          "name": "formId",
          "type": "string"
        },
        {
          "indexed": false,
          "internalType": "uint256",
          "name": "submissionId",
          "type": "uint256"
        },
        {
          "indexed": false,
          "internalType": "uint256",
          "name": "timestamp",
          "type": "uint256"
        }
      ],
      "name": "AnonymousSubmissionReceived",
      "type": "event"
    },
    {
      "anonymous": false,
      "inputs": [
        {
          "indexed": true,
          "internalType": "string",
          "name": "formId",
          "type": "string"
        },
        {
          "indexed": false,
          "internalType": "string",
          "name": "newEncryptedKeyCID",
          "type": "string"
        }
      ],
      "name": "EncryptedKeyUpdated",
      "type": "event"
    },
    {
      "anonymous": false,
      "inputs": [
        {
          "indexed": true,
          "internalType": "address",
          "name": "creator",
          "type": "address"
        },
        {
          "indexed": true,
          "internalType": "string",
          "name": "formId",
          "type": "string"
        },
        {
          "indexed": false,
          "internalType": "string",
          "name": "ipnsName",
          "type": "string"
        },
        {
          "indexed": false,
          "internalType": "string",
          "name": "encryptedKeyCID",
          "type": "string"
        },
        {
          "indexed": false,
          "internalType": "enum FormRegistry.PrivacyMode",
          "name": "privacyMode",
          "type": "uint8"
        },
        {
          "indexed": false,
          "internalType": "uint256",
          "name": "timestamp",
          "type": "uint256"
        }
      ],
      "name": "FormCreated",
      "type": "event"
    },
    {
      "anonymous": false,
      "inputs": [
        {
          "indexed": true,
          "internalType": "string",
          "name": "formId",
          "type": "string"
        },
        {
          "indexed": false,
          "internalType": "bool",
          "name": "active",
          "type": "bool"
        }
      ],
      "name": "FormStatusChanged",
      "type": "event"
    },
    {
      "anonymous": false,
      "inputs": [
        {
          "indexed": true,
          "internalType": "string",
          "name": "formId",
          "type": "string"
        },
        {
          "indexed": false,
          "internalType": "uint256",
          "name": "submissionId",
          "type": "uint256"
        },
        {
          "indexed": true,
          "internalType": "address",
          "name": "submitter",
          "type": "address"
        },
        {
          "indexed": false,
          "internalType": "bool",
          "name": "verified",
          "type": "bool"
        },
        {
          "indexed": false,
          "internalType": "uint256",
          "name": "timestamp",
          "type": "uint256"
        }
      ],
      "name": "IdentifiedSubmissionReceived",
      "type": "event"
    },
    {
      "inputs": [
        {
          "internalType": "uint256",
          "name": "",
          "type": "uint256"
        }
      ],
      "name": "anonymousSubmissions",
      "outputs": [
        {
          "internalType": "string",
          "name": "formId",
          "type": "string"
        },
        {
          "internalType": "string",
          "name": "encryptedDataCID",
          "type": "string"
        },
        {
          "internalType": "uint256",
          "name": "timestamp",
          "type": "uint256"
        }
      ],
      "stateMutability": "view",
      "type": "function"
    },
    {
      "inputs": [
        {
          "internalType": "address",
          "name": "",
          "type": "address"
        },
        {
          "internalType": "uint256",
          "name": "",
          "type": "uint256"
        }
      ],
      "name": "creatorForms",
      "outputs": [
        {
          "internalType": "string",
          "name": "",
          "type": "string"
        }
      ],
      "stateMutability": "view",
      "type": "function"
    },
    {
      "inputs": [
        {
          "internalType": "string",
          "name": "",
          "type": "string"
        },
        {
          "internalType": "uint256",
          "name": "",
          "type": "uint256"
        }
      ],
      "name": "formAnonymousSubmissions",
      "outputs": [
        {
          "internalType": "uint256",
          "name": "",
          "type": "uint256"
        }
      ],
      "stateMutability": "view",
      "type": "function"
    },
    {
      "inputs": [
        {
          "internalType": "string",
          "name": "",
          "type": "string"
        },
        {
          "internalType": "uint256",
          "name": "",
          "type": "uint256"
        }
      ],
      "name": "formIdentifiedSubmissions",
      "outputs": [
        {
          "internalType": "uint256",
          "name": "",
          "type": "uint256"
        }
      ],
      "stateMutability": "view",
      "type": "function"
    },
    {
      "inputs": [
        {
          "internalType": "string",
          "name": "",
          "type": "string"
        }
      ],
      "name": "forms",
      "outputs": [
        {
          "internalType": "address",
          "name": "creator",
          "type": "address"
        },
        {
          "internalType": "string",
          "name": "ipnsName",
          "type": "string"
        },
        {
          "internalType": "string",
          "name": "encryptedKeyCID",
          "type": "string"
        },
        {
          "internalType": "enum FormRegistry.PrivacyMode",
          "name": "privacyMode",
          "type": "uint8"
        },
        {
          "internalType": "uint256",
          "name": "createdAt",
          "type": "uint256"
        },
        {
          "internalType": "bool",
          "name": "active",
          "type": "bool"
        }
      ],
      "stateMutability": "view",
      "type": "function"
    },
    {
      "inputs": [
        {
          "internalType": "string",
          "name": "formId",
          "type": "string"
        }
      ],
      "name": "getAnonymousSubmissions",
      "outputs": [
        {
          "internalType": "uint256[]",
          "name": "",
          "type": "uint256[]"
        }
      ],
      "stateMutability": "view",
      "type": "function"
    },
    {
      "inputs": [
        {
          "internalType": "address",
          "name": "creator",
          "type": "address"
        }
      ],
      "name": "getCreatorForms",
      "outputs": [
        {
          "internalType": "string[]",
          "name": "",
          "type": "string[]"
        }
      ],
      "stateMutability": "view",
      "type": "function"
    },
    {
      "inputs": [
        {
          "internalType": "string",
          "name": "formId",
          "type": "string"
        }
      ],
      "name": "getForm",
      "outputs": [
        {
          "components": [
            {
              "internalType": "address",
              "name": "creator",
              "type": "address"
            },
            {
              "internalType": "string",
              "name": "ipnsName",
              "type": "string"
            },
            {
              "internalType": "string",
              "name": "encryptedKeyCID",
              "type": "string"
            },
            {
              "internalType": "enum FormRegistry.PrivacyMode",
              "name": "privacyMode",
              "type": "uint8"
            },
            {
              "internalType": "uint256",
              "name": "createdAt",
              "type": "uint256"
            },
            {
              "internalType": "bool",
              "name": "active",
              "type": "bool"
            }
          ],
          "internalType": "struct FormRegistry.Form",
          "name": "",
          "type": "tuple"
        }
      ],
      "stateMutability": "view",
      "type": "function"
    },
    {
      "inputs": [
        {
          "internalType": "string",
          "name": "formId",
          "type": "string"
        }
      ],
      "name": "getFormPrivacyMode",
      "outputs": [
        {
          "internalType": "enum FormRegistry.PrivacyMode",
          "name": "",
          "type": "uint8"
        }
      ],
      "stateMutability": "view",
      "type": "function"
    },
    {
      "inputs": [
        {
          "internalType": "string",
          "name": "formId",
          "type": "string"
        }
      ],
      "name": "getFormSubmissionCount",
      "outputs": [
        {
          "internalType": "uint256",
          "name": "",
          "type": "uint256"
        }
      ],
      "stateMutability": "view",
      "type": "function"
    },
    {
      "inputs": [
        {
          "internalType": "string",
          "name": "formId",
          "type": "string"
        }
      ],
      "name": "getIdentifiedSubmissions",
      "outputs": [
        {
          "internalType": "uint256[]",
          "name": "",
          "type": "uint256[]"
        }
      ],
      "stateMutability": "view",
      "type": "function"
    },
    {
      "inputs": [],
      "name": "getTotalFormsCount",
      "outputs": [
        {
          "internalType": "uint256",
          "name": "",
          "type": "uint256"
        }
      ],
      "stateMutability": "view",
      "type": "function"
    },
    {
      "inputs": [
        {
          "internalType": "uint256",
          "name": "",
          "type": "uint256"
        }
      ],
      "name": "identifiedSubmissions",
      "outputs": [
        {
          "internalType": "string",
          "name": "formId",
          "type": "string"
        },
        {
          "internalType": "string",
          "name": "encryptedDataCID",
          "type": "string"
        },
        {
          "internalType": "address",
          "name": "submitter",
          "type": "address"
        },
        {
          "internalType": "uint256",
          "name": "timestamp",
          "type": "uint256"
        },
        {
          "internalType": "bool",
          "name": "verified",
          "type": "bool"
        },
        {
          "internalType": "string",
          "name": "identityType",
          "type": "string"
        }
      ],
      "stateMutability": "view",
      "type": "function"
    },
    {
      "inputs": [
        {
          "internalType": "string",
          "name": "formId",
          "type": "string"
        },
        {
          "internalType": "address",
          "name": "user",
          "type": "address"
        }
      ],
      "name": "isFormCreator",
      "outputs": [
        {
          "internalType": "bool",
          "name": "",
          "type": "bool"
        }
      ],
      "stateMutability": "view",
      "type": "function"
    },
    {
      "inputs": [],
      "name": "owner",
      "outputs": [
        {
          "internalType": "address",
          "name": "",
          "type": "address"
        }
      ],
      "stateMutability": "view",
      "type": "function"
    },
    {
      "inputs": [
        {
          "internalType": "address",
          "name": "creator",
          "type": "address"
        },
        {
          "internalType": "string",
          "name": "formId",
          "type": "string"
        },
        {
          "internalType": "string",
          "name": "ipnsName",
          "type": "string"
        },
        {
          "internalType": "string",
          "name": "encryptedKeyCID",
          "type": "string"
        },
        {
          "internalType": "enum FormRegistry.PrivacyMode",
          "name": "privacyMode",
          "type": "uint8"
        }
      ],
      "name": "registerForm",
      "outputs": [],
      "stateMutability": "nonpayable",
      "type": "function"
    },
    {
      "inputs": [],
      "name": "serverWallet",
      "outputs": [
        {
          "internalType": "address",
          "name": "",
          "type": "address"
        }
      ],
      "stateMutability": "view",
      "type": "function"
    },
    {
      "inputs": [
        {
          "internalType": "string",
          "name": "formId",
          "type": "string"
        },
        {
          "internalType": "bool",
          "name": "active",
          "type": "bool"
        }
      ],
      "name": "setFormStatus",
      "outputs": [],
      "stateMutability": "nonpayable",
      "type": "function"
    },
    {
      "inputs": [
        {
          "internalType": "string",
          "name": "formId",
          "type": "string"
        },
        {
          "internalType": "string",
          "name": "encryptedDataCID",
          "type": "string"
        }
      ],
      "name": "submitAnonymousResponse",
      "outputs": [],
      "stateMutability": "nonpayable",
      "type": "function"
    },
    {
      "inputs": [
        {
          "internalType": "string",
          "name": "formId",
          "type": "string"
        },
        {
          "internalType": "string",
          "name": "encryptedDataCID",
          "type": "string"
        },
        {
          "internalType": "address",
          "name": "submitter",
          "type": "address"
        },
        {
          "internalType": "bool",
          "name": "verified",
          "type": "bool"
        },
        {
          "internalType": "string",
          "name": "identityType",
          "type": "string"
        }
      ],
      "name": "submitIdentifiedResponse",
      "outputs": [],
      "stateMutability": "nonpayable",
      "type": "function"
    },
    {
      "inputs": [
        {
          "internalType": "string",
          "name": "formId",
          "type": "string"
        },
        {
          "internalType": "string",
          "name": "newEncryptedKeyCID",
          "type": "string"
        }
      ],
      "name": "updateEncryptedKey",
      "outputs": [],
      "stateMutability": "nonpayable",
      "type": "function"
    },
    {
      "inputs": [
        {
          "internalType": "address",
          "name": "newServerWallet",
          "type": "address"
        }
      ],
      "name": "updateServerWallet",
      "outputs": [],
      "stateMutability": "nonpayable",
      "type": "function"
    }
  ],
  "bytecode": "0x608060405234801561001057600080fd5b50604051620022c0380380620022c08339810160408190526100319161005f565b600080546001600160a01b039092166001600160a01b0319928316179055600180549091163317905561008f565b60006020828403121561007157600080fd5b81516001600160a01b038116811461008857600080fd5b9392505050565b612221806200009f6000396000f3fe608060405234801561001057600080fd5b50600436106101425760003560e01c8063a293a996116100b8578063bec8f84c1161007c578063bec8f84c146102eb578063dcde5c73146102fe578063f127b8c01461031e578063f68e967214610340578063fcd2005014610360578063fcf298731461037357600080fd5b8063a293a9961461028c578063a42504911461029f578063ad7b5034146102b2578063aee5d5cf146102c5578063be73ecd9146102d857600080fd5b806372cee4a51161010a57806372cee4a51461020357806376d35f401461021857806384d7f28a1461022e5780638da5cb5b146102535780639744c85b146102665780639c432feb1461027957600080fd5b806319dc869b146101475780631a59f0f01461017057806323813a101461019b5780633c8aea30146101be5780635656675a146101e3575b600080fd5b61015a6101553660046119b0565b610393565b60405161016791906119ed565b60405180910390f35b600054610183906001600160a01b031681565b6040516001600160a01b039091168152602001610167565b6101ae6101a9366004611a48565b610487565b6040519015158152602001610167565b6101d16101cc3660046119b0565b6104c6565b60405161016796959493929190611b1e565b6101f66101f1366004611b7d565b610627565b6040516101679190611ba7565b610216610211366004611bd1565b6106e0565b005b610220610992565b604051908152602001610167565b61024161023c366004611c7b565b6109a9565b60405161016796959493929190611c94565b600154610183906001600160a01b031681565b610216610274366004611cf8565b610ba0565b610216610287366004611d5c565b610cd4565b61021661029a366004611da1565b610dc1565b6102166102ad366004611cf8565b610e7b565b6102166102c0366004611dbc565b61109d565b61015a6102d33660046119b0565b611322565b6102206102e6366004611e6e565b6113ba565b6102206102f9366004611e6e565b6113fa565b61031161030c3660046119b0565b611425565b6040516101679190611eb3565b61033161032c366004611c7b565b611453565b60405161016793929190611ec1565b61035361034e366004611da1565b61159d565b6040516101679190611ef7565b61022061036e3660046119b0565b61168c565b6103866103813660046119b0565b611706565b6040516101679190611f59565b606060006002836040516103a79190611fda565b9081526040519081900360200190206003015460ff1660018111156103ce576103ce611ae6565b146104195760405162461bcd60e51b8152602060048201526016602482015275466f726d20697320616e6f6e796d6f7573206d6f646560501b60448201526064015b60405180910390fd5b6006826040516104299190611fda565b908152604080519182900360209081018320805480830285018301909352828452919083018282801561047b57602002820191906000526020600020905b815481526020019060010190808311610467575b50505050509050919050565b6000816001600160a01b03166002846040516104a39190611fda565b908152604051908190036020019020546001600160a01b03161490505b92915050565b8051602081830181018051600282529282019190930120915280546001820180546001600160a01b0390921692916104fd90611ff6565b80601f016020809104026020016040519081016040528092919081815260200182805461052990611ff6565b80156105765780601f1061054b57610100808354040283529160200191610576565b820191906000526020600020905b81548152906001019060200180831161055957829003601f168201915b50505050509080600201805461058b90611ff6565b80601f01602080910402602001604051908101604052809291908181526020018280546105b790611ff6565b80156106045780601f106105d957610100808354040283529160200191610604565b820191906000526020600020905b8154815290600101906020018083116105e757829003601f168201915b5050505060038301546004840154600590940154929360ff918216939092501686565b6003602052816000526040600020818154811061064357600080fd5b9060005260206000200160009150915050805461065f90611ff6565b80601f016020809104026020016040519081016040528092919081815260200182805461068b90611ff6565b80156106d85780601f106106ad576101008083540402835291602001916106d8565b820191906000526020600020905b8154815290600101906020018083116106bb57829003601f168201915b505050505081565b6000546001600160a01b0316331461070a5760405162461bcd60e51b815260040161041090612030565b60028560405161071a9190611fda565b9081526040519081900360200190206005015460ff1661076e5760405162461bcd60e51b815260206004820152600f60248201526e466f726d206e6f742061637469766560881b6044820152606401610410565b60006002866040516107809190611fda565b9081526040519081900360200190206003015460ff1660018111156107a7576107a7611ae6565b146107ed5760405162461bcd60e51b8152602060048201526016602482015275466f726d20697320616e6f6e796d6f7573206d6f646560501b6044820152606401610410565b6040805160c081018252868152602081018690526001600160a01b03851691810191909152426060820152821515608082015260a0810182905260048054600181018255600091909152815160069091027f8a35acfbc15ff81a39ae7d344fd709f28e8600b4aa8c65c6b64bfe7fe36bd19b0190819061086d90826120ab565b506020820151600182019061088290826120ab565b5060408201516002820180546001600160a01b0319166001600160a01b0390921691909117905560608201516003820155608082015160048201805460ff191691151591909117905560a082015160058201906108df90826120ab565b5050600454600091506108f490600190612181565b90506006866040516109069190611fda565b908152604051908190036020908101822080546001810182556000918252919020018290556001600160a01b03851690610941908890611fda565b6040805191829003822084835286151560208401524283830152905190917f539db8747c39e7f4ae827d099e57e48b7e68e635d662d86e6e13aae42ebbf2b2919081900360600190a3505050505050565b6005546004546000916109a491612194565b905090565b600481815481106109b957600080fd5b90600052602060002090600602016000915090508060000180546109dc90611ff6565b80601f0160208091040260200160405190810160405280929190818152602001828054610a0890611ff6565b8015610a555780601f10610a2a57610100808354040283529160200191610a55565b820191906000526020600020905b815481529060010190602001808311610a3857829003601f168201915b505050505090806001018054610a6a90611ff6565b80601f0160208091040260200160405190810160405280929190818152602001828054610a9690611ff6565b8015610ae35780601f10610ab857610100808354040283529160200191610ae3565b820191906000526020600020905b815481529060010190602001808311610ac657829003601f168201915b50505060028401546003850154600486015460058701805496976001600160a01b039094169692955060ff909116935090610b1d90611ff6565b80601f0160208091040260200160405190810160405280929190818152602001828054610b4990611ff6565b8015610b965780601f10610b6b57610100808354040283529160200191610b96565b820191906000526020600020905b815481529060010190602001808311610b7957829003601f168201915b5050505050905086565b81336001600160a01b0316600282604051610bbb9190611fda565b908152604051908190036020019020546001600160a01b031614610c145760405162461bcd60e51b815260206004820152601060248201526f2737ba103337b9369031b932b0ba37b960811b6044820152606401610410565b6000825111610c535760405162461bcd60e51b815260206004820152600b60248201526a125b9d985b1a590810d25160aa1b6044820152606401610410565b81600284604051610c649190611fda565b90815260200160405180910390206002019081610c8191906120ab565b5082604051610c909190611fda565b60405180910390207fd28cb7b3a1e7a87156174f07534e2fed5fa92a11735371d20c7b72b21b5387ef83604051610cc79190611ba7565b60405180910390a2505050565b81336001600160a01b0316600282604051610cef9190611fda565b908152604051908190036020019020546001600160a01b031614610d485760405162461bcd60e51b815260206004820152601060248201526f2737ba103337b9369031b932b0ba37b960811b6044820152606401610410565b81600284604051610d599190611fda565b908152604051908190036020018120600501805492151560ff1990931692909217909155610d88908490611fda565b6040519081900381208315158252907f0531fbaee29f7653d6d9890d997d58b9965642da03275c47c0f6280e12ce958d90602001610cc7565b6001546001600160a01b03163314610e115760405162461bcd60e51b815260206004820152601360248201527227b7363c9031b7b73a3930b1ba1037bbb732b960691b6044820152606401610410565b6001600160a01b038116610e595760405162461bcd60e51b815260206004820152600f60248201526e496e76616c6964206164647265737360881b6044820152606401610410565b600080546001600160a01b0319166001600160a01b0392909216919091179055565b6000546001600160a01b03163314610ea55760405162461bcd60e51b815260040161041090612030565b600282604051610eb59190611fda565b9081526040519081900360200190206005015460ff16610f095760405162461bcd60e51b815260206004820152600f60248201526e466f726d206e6f742061637469766560881b6044820152606401610410565b6001600283604051610f1b9190611fda565b9081526040519081900360200190206003015460ff166001811115610f4257610f42611ae6565b14610f885760405162461bcd60e51b8152602060048201526016602482015275466f726d207265717569726573206964656e7469747960501b6044820152606401610410565b6040805160608101825283815260208101839052429181019190915260058054600181018255600091909152815160039091027f036b6384b5eca791c62761152d0c79bb0604c104a5fb6f4eb0703f3154bb3db001908190610fea90826120ab565b5060208201516001820190610fff90826120ab565b506040919091015160029091015560055460009061101f90600190612181565b90506007836040516110319190611fda565b90815260405190819003602090810182208054600181018255600091825291902001829055611061908490611fda565b60408051918290038220838352426020840152917fcdde0fbe34d846225bc898c018db21b7b38d11fc174b31fa695917d7676fcbe19101610cc7565b6000546001600160a01b031633146110c75760405162461bcd60e51b815260040161041090612030565b60006001600160a01b03166002856040516110e29190611fda565b908152604051908190036020019020546001600160a01b03161461113e5760405162461bcd60e51b8152602060048201526013602482015272466f726d20616c72656164792065786973747360681b6044820152606401610410565b6001600160a01b0385166111945760405162461bcd60e51b815260206004820152601760248201527f496e76616c69642063726561746f7220616464726573730000000000000000006044820152606401610410565b6040518060c00160405280866001600160a01b031681526020018481526020018381526020018260018111156111cc576111cc611ae6565b81524260208201526001604091820152516002906111eb908790611fda565b90815260405160209181900382019020825181546001600160a01b0319166001600160a01b0390911617815590820151600182019061122a90826120ab565b506040820151600282019061123f90826120ab565b50606082015160038201805460ff19166001838181111561126257611262611ae6565b02179055506080820151600482015560a0909101516005909101805460ff19169115159190911790556001600160a01b0385166000908152600360209081526040822080546001810182559083529120016112bd85826120ab565b50836040516112cc9190611fda565b6040518091039020856001600160a01b03167f7414b21c0833a6f18fb8f2b30698a608b3b92c4988966cc58cfd66b4fa93f8858585854260405161131394939291906121a7565b60405180910390a35050505050565b606060016002836040516113369190611fda565b9081526040519081900360200190206003015460ff16600181111561135d5761135d611ae6565b146113aa5760405162461bcd60e51b815260206004820152601760248201527f466f726d206973206964656e746966696564206d6f64650000000000000000006044820152606401610410565b6007826040516104299190611fda565b815160208184018101805160068252928201918501919091209190528054829081106113e557600080fd5b90600052602060002001600091509150505481565b815160208184018101805160078252928201918501919091209190528054829081106113e557600080fd5b60006002826040516114379190611fda565b9081526040519081900360200190206003015460ff1692915050565b6005818154811061146357600080fd5b906000526020600020906003020160009150905080600001805461148690611ff6565b80601f01602080910402602001604051908101604052809291908181526020018280546114b290611ff6565b80156114ff5780601f106114d4576101008083540402835291602001916114ff565b820191906000526020600020905b8154815290600101906020018083116114e257829003601f168201915b50505050509080600101805461151490611ff6565b80601f016020809104026020016040519081016040528092919081815260200182805461154090611ff6565b801561158d5780601f106115625761010080835404028352916020019161158d565b820191906000526020600020905b81548152906001019060200180831161157057829003601f168201915b5050505050908060020154905083565b6001600160a01b0381166000908152600360209081526040808320805482518185028101850190935280835260609492939192909184015b828210156116815783829060005260206000200180546115f490611ff6565b80601f016020809104026020016040519081016040528092919081815260200182805461162090611ff6565b801561166d5780601f106116425761010080835404028352916020019161166d565b820191906000526020600020905b81548152906001019060200180831161165057829003601f168201915b5050505050815260200190600101906115d5565b505050509050919050565b60008060028360405161169f9190611fda565b9081526040519081900360200190206003015460ff1660018111156116c6576116c6611ae6565b036116f1576006826040516116db9190611fda565b9081526040519081900360200190205492915050565b6007826040516116db9190611fda565b919050565b61170e6118bd565b60028260405161171e9190611fda565b90815260408051918290036020908101832060c0840190925281546001600160a01b031683526001820180549184019161175790611ff6565b80601f016020809104026020016040519081016040528092919081815260200182805461178390611ff6565b80156117d05780601f106117a5576101008083540402835291602001916117d0565b820191906000526020600020905b8154815290600101906020018083116117b357829003601f168201915b505050505081526020016002820180546117e990611ff6565b80601f016020809104026020016040519081016040528092919081815260200182805461181590611ff6565b80156118625780601f1061183757610100808354040283529160200191611862565b820191906000526020600020905b81548152906001019060200180831161184557829003601f168201915b5050509183525050600382015460209091019060ff16600181111561188957611889611ae6565b600181111561189a5761189a611ae6565b81526004820154602082015260059091015460ff16151560409091015292915050565b6040518060c0016040528060006001600160a01b031681526020016060815260200160608152602001600060018111156118f9576118f9611ae6565b815260006020820181905260409091015290565b634e487b7160e01b600052604160045260246000fd5b600082601f83011261193457600080fd5b813567ffffffffffffffff8082111561194f5761194f61190d565b604051601f8301601f19908116603f011681019082821181831017156119775761197761190d565b8160405283815286602085880101111561199057600080fd5b836020870160208301376000602085830101528094505050505092915050565b6000602082840312156119c257600080fd5b813567ffffffffffffffff8111156119d957600080fd5b6119e584828501611923565b949350505050565b6020808252825182820181905260009190848201906040850190845b81811015611a2557835183529284019291840191600101611a09565b50909695505050505050565b80356001600160a01b038116811461170157600080fd5b60008060408385031215611a5b57600080fd5b823567ffffffffffffffff811115611a7257600080fd5b611a7e85828601611923565b925050611a8d60208401611a31565b90509250929050565b60005b83811015611ab1578181015183820152602001611a99565b50506000910152565b60008151808452611ad2816020860160208601611a96565b601f01601f19169290920160200192915050565b634e487b7160e01b600052602160045260246000fd5b60028110611b1a57634e487b7160e01b600052602160045260246000fd5b9052565b6001600160a01b038716815260c060208201819052600090611b4290830188611aba565b8281036040840152611b548188611aba565b915050611b646060830186611afc565b83608083015282151560a0830152979650505050505050565b60008060408385031215611b9057600080fd5b611b9983611a31565b946020939093013593505050565b602081526000611bba6020830184611aba565b9392505050565b8035801515811461170157600080fd5b600080600080600060a08688031215611be957600080fd5b853567ffffffffffffffff80821115611c0157600080fd5b611c0d89838a01611923565b96506020880135915080821115611c2357600080fd5b611c2f89838a01611923565b9550611c3d60408901611a31565b9450611c4b60608901611bc1565b93506080880135915080821115611c6157600080fd5b50611c6e88828901611923565b9150509295509295909350565b600060208284031215611c8d57600080fd5b5035919050565b60c081526000611ca760c0830189611aba565b8281036020840152611cb98189611aba565b6001600160a01b038816604085015260608401879052851515608085015283810360a08501529050611ceb8185611aba565b9998505050505050505050565b60008060408385031215611d0b57600080fd5b823567ffffffffffffffff80821115611d2357600080fd5b611d2f86838701611923565b93506020850135915080821115611d4557600080fd5b50611d5285828601611923565b9150509250929050565b60008060408385031215611d6f57600080fd5b823567ffffffffffffffff811115611d8657600080fd5b611d9285828601611923565b925050611a8d60208401611bc1565b600060208284031215611db357600080fd5b611bba82611a31565b600080600080600060a08688031215611dd457600080fd5b611ddd86611a31565b9450602086013567ffffffffffffffff80821115611dfa57600080fd5b611e0689838a01611923565b95506040880135915080821115611e1c57600080fd5b611e2889838a01611923565b94506060880135915080821115611e3e57600080fd5b50611e4b88828901611923565b925050608086013560028110611e6057600080fd5b809150509295509295909350565b60008060408385031215611e8157600080fd5b823567ffffffffffffffff811115611e9857600080fd5b611ea485828601611923565b95602094909401359450505050565b602081016104c08284611afc565b606081526000611ed46060830186611aba565b8281036020840152611ee68186611aba565b915050826040830152949350505050565b6000602080830181845280855180835260408601915060408160051b870101925083870160005b82811015611f4c57603f19888603018452611f3a858351611aba565b94509285019290850190600101611f1e565b5092979650505050505050565b602080825282516001600160a01b03168282015282015160c06040830152600090611f8760e0840182611aba565b90506040840151601f19848303016060850152611fa48282611aba565b9150506060840151611fb96080850182611afc565b50608084015160a084015260a0840151151560c08401528091505092915050565b60008251611fec818460208701611a96565b9190910192915050565b600181811c9082168061200a57607f821691505b60208210810361202a57634e487b7160e01b600052602260045260246000fd5b50919050565b60208082526012908201527113db9b1e481cd95c9d995c881dd85b1b195d60721b604082015260600190565b601f8211156120a657600081815260208120601f850160051c810160208610156120835750805b601f850160051c820191505b818110156120a25782815560010161208f565b5050505b505050565b815167ffffffffffffffff8111156120c5576120c561190d565b6120d9816120d38454611ff6565b8461205c565b602080601f83116001811461210e57600084156120f65750858301515b600019600386901b1c1916600185901b1785556120a2565b600085815260208120601f198616915b8281101561213d5788860151825594840194600190910190840161211e565b508582101561215b5787850151600019600388901b60f8161c191681555b5050505050600190811b01905550565b634e487b7160e01b600052601160045260246000fd5b818103818111156104c0576104c061216b565b808201808211156104c0576104c061216b565b6080815260006121ba6080830187611aba565b82810360208401526121cc8187611aba565b9150506121dc6040830185611afc565b8260608301529594505050505056fea264697066735822122000b908bb4823e0d7e764325bb14df4d72c806e9acb76dc31413a8be57c3fba7664736f6c63430008140033",
  "linkReferences": {},
  "deployedLinkReferences": {}
}