{
  "_format": "hh-sol-artifact-1",
  "contractName": "FormRegistry",
  "sourceName": "contracts/FormRegistry.sol",
  "abi": [
    {
      "inputs": [
        {
          "internalType": "address",
          "name": "_serverWallet",
          "type": "address"
        }
      ],
      "stateMutability": "nonpayable",
      "type": "constructor"
    },
    {
      "anonymous": false,
      "inputs": [
        {
          "indexed": true,
          "internalType": "string",
          "name": "formId",
          "type": "string"
        },
        {
          "indexed": false,
          "internalType": "uint256",
          "name": "submissionId",
          "type": "uint256"
        },
        {
          "indexed": false,
          "internalType": "uint256",
          "name": "timestamp",
          "type": "uint256"
        }
      ],
      "name": "AnonymousSubmissionReceived",
      "type": "event"
    },
    {
      "anonymous": false,
      "inputs": [
        {
          "indexed": true,
          "internalType": "address",
          "name": "creator",
          "type": "address"
        },
        {
          "indexed": true,
          "internalType": "string",
          "name": "formId",
          "type": "string"
        },
        {
          "indexed": false,
          "internalType": "string",
          "name": "ipnsName",
          "type": "string"
        },
        {
          "indexed": false,
          "internalType": "string",
          "name": "encryptedKeyCID",
          "type": "string"
        },
        {
          "indexed": false,
          "internalType": "enum FormRegistry.PrivacyMode",
          "name": "privacyMode",
          "type": "uint8"
        },
        {
          "indexed": false,
          "internalType": "uint256",
          "name": "timestamp",
          "type": "uint256"
        }
      ],
      "name": "FormCreated",
      "type": "event"
    },
    {
      "anonymous": false,
      "inputs": [
        {
          "indexed": true,
          "internalType": "string",
          "name": "formId",
          "type": "string"
        },
        {
          "indexed": false,
          "internalType": "bool",
          "name": "active",
          "type": "bool"
        }
      ],
      "name": "FormStatusChanged",
      "type": "event"
    },
    {
      "anonymous": false,
      "inputs": [
        {
          "indexed": true,
          "internalType": "string",
          "name": "formId",
          "type": "string"
        },
        {
          "indexed": false,
          "internalType": "uint256",
          "name": "submissionId",
          "type": "uint256"
        },
        {
          "indexed": true,
          "internalType": "address",
          "name": "submitter",
          "type": "address"
        },
        {
          "indexed": false,
          "internalType": "bool",
          "name": "verified",
          "type": "bool"
        },
        {
          "indexed": false,
          "internalType": "uint256",
          "name": "timestamp",
          "type": "uint256"
        }
      ],
      "name": "IdentifiedSubmissionReceived",
      "type": "event"
    },
    {
      "inputs": [
        {
          "internalType": "uint256",
          "name": "",
          "type": "uint256"
        }
      ],
      "name": "anonymousSubmissions",
      "outputs": [
        {
          "internalType": "string",
          "name": "formId",
          "type": "string"
        },
        {
          "internalType": "string",
          "name": "encryptedDataCID",
          "type": "string"
        },
        {
          "internalType": "uint256",
          "name": "timestamp",
          "type": "uint256"
        }
      ],
      "stateMutability": "view",
      "type": "function"
    },
    {
      "inputs": [
        {
          "internalType": "address",
          "name": "",
          "type": "address"
        },
        {
          "internalType": "uint256",
          "name": "",
          "type": "uint256"
        }
      ],
      "name": "creatorForms",
      "outputs": [
        {
          "internalType": "string",
          "name": "",
          "type": "string"
        }
      ],
      "stateMutability": "view",
      "type": "function"
    },
    {
      "inputs": [
        {
          "internalType": "string",
          "name": "",
          "type": "string"
        },
        {
          "internalType": "uint256",
          "name": "",
          "type": "uint256"
        }
      ],
      "name": "formAnonymousSubmissions",
      "outputs": [
        {
          "internalType": "uint256",
          "name": "",
          "type": "uint256"
        }
      ],
      "stateMutability": "view",
      "type": "function"
    },
    {
      "inputs": [
        {
          "internalType": "string",
          "name": "",
          "type": "string"
        },
        {
          "internalType": "uint256",
          "name": "",
          "type": "uint256"
        }
      ],
      "name": "formIdentifiedSubmissions",
      "outputs": [
        {
          "internalType": "uint256",
          "name": "",
          "type": "uint256"
        }
      ],
      "stateMutability": "view",
      "type": "function"
    },
    {
      "inputs": [
        {
          "internalType": "string",
          "name": "",
          "type": "string"
        }
      ],
      "name": "forms",
      "outputs": [
        {
          "internalType": "address",
          "name": "creator",
          "type": "address"
        },
        {
          "internalType": "string",
          "name": "ipnsName",
          "type": "string"
        },
        {
          "internalType": "string",
          "name": "encryptedKeyCID",
          "type": "string"
        },
        {
          "internalType": "enum FormRegistry.PrivacyMode",
          "name": "privacyMode",
          "type": "uint8"
        },
        {
          "internalType": "uint256",
          "name": "createdAt",
          "type": "uint256"
        },
        {
          "internalType": "bool",
          "name": "active",
          "type": "bool"
        }
      ],
      "stateMutability": "view",
      "type": "function"
    },
    {
      "inputs": [
        {
          "internalType": "string",
          "name": "formId",
          "type": "string"
        }
      ],
      "name": "getAnonymousSubmissions",
      "outputs": [
        {
          "internalType": "uint256[]",
          "name": "",
          "type": "uint256[]"
        }
      ],
      "stateMutability": "view",
      "type": "function"
    },
    {
      "inputs": [
        {
          "internalType": "address",
          "name": "creator",
          "type": "address"
        }
      ],
      "name": "getCreatorForms",
      "outputs": [
        {
          "internalType": "string[]",
          "name": "",
          "type": "string[]"
        }
      ],
      "stateMutability": "view",
      "type": "function"
    },
    {
      "inputs": [
        {
          "internalType": "string",
          "name": "formId",
          "type": "string"
        }
      ],
      "name": "getForm",
      "outputs": [
        {
          "components": [
            {
              "internalType": "address",
              "name": "creator",
              "type": "address"
            },
            {
              "internalType": "string",
              "name": "ipnsName",
              "type": "string"
            },
            {
              "internalType": "string",
              "name": "encryptedKeyCID",
              "type": "string"
            },
            {
              "internalType": "enum FormRegistry.PrivacyMode",
              "name": "privacyMode",
              "type": "uint8"
            },
            {
              "internalType": "uint256",
              "name": "createdAt",
              "type": "uint256"
            },
            {
              "internalType": "bool",
              "name": "active",
              "type": "bool"
            }
          ],
          "internalType": "struct FormRegistry.Form",
          "name": "",
          "type": "tuple"
        }
      ],
      "stateMutability": "view",
      "type": "function"
    },
    {
      "inputs": [
        {
          "internalType": "string",
          "name": "formId",
          "type": "string"
        }
      ],
      "name": "getFormPrivacyMode",
      "outputs": [
        {
          "internalType": "enum FormRegistry.PrivacyMode",
          "name": "",
          "type": "uint8"
        }
      ],
      "stateMutability": "view",
      "type": "function"
    },
    {
      "inputs": [
        {
          "internalType": "string",
          "name": "formId",
          "type": "string"
        }
      ],
      "name": "getFormSubmissionCount",
      "outputs": [
        {
          "internalType": "uint256",
          "name": "",
          "type": "uint256"
        }
      ],
      "stateMutability": "view",
      "type": "function"
    },
    {
      "inputs": [
        {
          "internalType": "string",
          "name": "formId",
          "type": "string"
        }
      ],
      "name": "getIdentifiedSubmissions",
      "outputs": [
        {
          "internalType": "uint256[]",
          "name": "",
          "type": "uint256[]"
        }
      ],
      "stateMutability": "view",
      "type": "function"
    },
    {
      "inputs": [],
      "name": "getTotalFormsCount",
      "outputs": [
        {
          "internalType": "uint256",
          "name": "",
          "type": "uint256"
        }
      ],
      "stateMutability": "view",
      "type": "function"
    },
    {
      "inputs": [
        {
          "internalType": "uint256",
          "name": "",
          "type": "uint256"
        }
      ],
      "name": "identifiedSubmissions",
      "outputs": [
        {
          "internalType": "string",
          "name": "formId",
          "type": "string"
        },
        {
          "internalType": "string",
          "name": "encryptedDataCID",
          "type": "string"
        },
        {
          "internalType": "address",
          "name": "submitter",
          "type": "address"
        },
        {
          "internalType": "uint256",
          "name": "timestamp",
          "type": "uint256"
        },
        {
          "internalType": "bool",
          "name": "verified",
          "type": "bool"
        },
        {
          "internalType": "string",
          "name": "identityType",
          "type": "string"
        }
      ],
      "stateMutability": "view",
      "type": "function"
    },
    {
      "inputs": [
        {
          "internalType": "string",
          "name": "formId",
          "type": "string"
        },
        {
          "internalType": "address",
          "name": "user",
          "type": "address"
        }
      ],
      "name": "isFormCreator",
      "outputs": [
        {
          "internalType": "bool",
          "name": "",
          "type": "bool"
        }
      ],
      "stateMutability": "view",
      "type": "function"
    },
    {
      "inputs": [],
      "name": "owner",
      "outputs": [
        {
          "internalType": "address",
          "name": "",
          "type": "address"
        }
      ],
      "stateMutability": "view",
      "type": "function"
    },
    {
      "inputs": [
        {
          "internalType": "address",
          "name": "creator",
          "type": "address"
        },
        {
          "internalType": "string",
          "name": "formId",
          "type": "string"
        },
        {
          "internalType": "string",
          "name": "ipnsName",
          "type": "string"
        },
        {
          "internalType": "string",
          "name": "encryptedKeyCID",
          "type": "string"
        },
        {
          "internalType": "enum FormRegistry.PrivacyMode",
          "name": "privacyMode",
          "type": "uint8"
        }
      ],
      "name": "registerForm",
      "outputs": [],
      "stateMutability": "nonpayable",
      "type": "function"
    },
    {
      "inputs": [],
      "name": "serverWallet",
      "outputs": [
        {
          "internalType": "address",
          "name": "",
          "type": "address"
        }
      ],
      "stateMutability": "view",
      "type": "function"
    },
    {
      "inputs": [
        {
          "internalType": "string",
          "name": "formId",
          "type": "string"
        },
        {
          "internalType": "bool",
          "name": "active",
          "type": "bool"
        }
      ],
      "name": "setFormStatus",
      "outputs": [],
      "stateMutability": "nonpayable",
      "type": "function"
    },
    {
      "inputs": [
        {
          "internalType": "string",
          "name": "formId",
          "type": "string"
        },
        {
          "internalType": "string",
          "name": "encryptedDataCID",
          "type": "string"
        }
      ],
      "name": "submitAnonymousResponse",
      "outputs": [],
      "stateMutability": "nonpayable",
      "type": "function"
    },
    {
      "inputs": [
        {
          "internalType": "string",
          "name": "formId",
          "type": "string"
        },
        {
          "internalType": "string",
          "name": "encryptedDataCID",
          "type": "string"
        },
        {
          "internalType": "address",
          "name": "submitter",
          "type": "address"
        },
        {
          "internalType": "bool",
          "name": "verified",
          "type": "bool"
        },
        {
          "internalType": "string",
          "name": "identityType",
          "type": "string"
        }
      ],
      "name": "submitIdentifiedResponse",
      "outputs": [],
      "stateMutability": "nonpayable",
      "type": "function"
    },
    {
      "inputs": [
        {
          "internalType": "address",
          "name": "newServerWallet",
          "type": "address"
        }
      ],
      "name": "updateServerWallet",
      "outputs": [],
      "stateMutability": "nonpayable",
      "type": "function"
    }
  ],
  "bytecode": "0x608060405234801561001057600080fd5b5060405162002177380380620021778339810160408190526100319161005f565b600080546001600160a01b039092166001600160a01b0319928316179055600180549091163317905561008f565b60006020828403121561007157600080fd5b81516001600160a01b038116811461008857600080fd5b9392505050565b6120d8806200009f6000396000f3fe608060405234801561001057600080fd5b50600436106101375760003560e01c8063a293a996116100b8578063bec8f84c1161007c578063bec8f84c146102cd578063dcde5c73146102e0578063f127b8c014610300578063f68e967214610322578063fcd2005014610342578063fcf298731461035557600080fd5b8063a293a9961461026e578063a425049114610281578063ad7b503414610294578063aee5d5cf146102a7578063be73ecd9146102ba57600080fd5b806372cee4a5116100ff57806372cee4a5146101f857806376d35f401461020d57806384d7f28a146102235780638da5cb5b146102485780639c432feb1461025b57600080fd5b806319dc869b1461013c5780631a59f0f01461016557806323813a10146101905780633c8aea30146101b35780635656675a146101d8575b600080fd5b61014f61014a366004611867565b610375565b60405161015c91906118a4565b60405180910390f35b600054610178906001600160a01b031681565b6040516001600160a01b03909116815260200161015c565b6101a361019e3660046118ff565b610469565b604051901515815260200161015c565b6101c66101c1366004611867565b6104a8565b60405161015c969594939291906119d5565b6101eb6101e6366004611a34565b610609565b60405161015c9190611a5e565b61020b610206366004611a88565b6106c2565b005b610215610974565b60405190815260200161015c565b610236610231366004611b32565b61098b565b60405161015c96959493929190611b4b565b600154610178906001600160a01b031681565b61020b610269366004611baf565b610b82565b61020b61027c366004611bf4565b610c78565b61020b61028f366004611c0f565b610d32565b61020b6102a2366004611c73565b610f54565b61014f6102b5366004611867565b6111d9565b6102156102c8366004611d25565b611271565b6102156102db366004611d25565b6112b1565b6102f36102ee366004611867565b6112dc565b60405161015c9190611d6a565b61031361030e366004611b32565b61130a565b60405161015c93929190611d78565b610335610330366004611bf4565b611454565b60405161015c9190611dae565b610215610350366004611867565b611543565b610368610363366004611867565b6115bd565b60405161015c9190611e10565b606060006002836040516103899190611e91565b9081526040519081900360200190206003015460ff1660018111156103b0576103b061199d565b146103fb5760405162461bcd60e51b8152602060048201526016602482015275466f726d20697320616e6f6e796d6f7573206d6f646560501b60448201526064015b60405180910390fd5b60068260405161040b9190611e91565b908152604080519182900360209081018320805480830285018301909352828452919083018282801561045d57602002820191906000526020600020905b815481526020019060010190808311610449575b50505050509050919050565b6000816001600160a01b03166002846040516104859190611e91565b908152604051908190036020019020546001600160a01b03161490505b92915050565b8051602081830181018051600282529282019190930120915280546001820180546001600160a01b0390921692916104df90611ead565b80601f016020809104026020016040519081016040528092919081815260200182805461050b90611ead565b80156105585780601f1061052d57610100808354040283529160200191610558565b820191906000526020600020905b81548152906001019060200180831161053b57829003601f168201915b50505050509080600201805461056d90611ead565b80601f016020809104026020016040519081016040528092919081815260200182805461059990611ead565b80156105e65780601f106105bb576101008083540402835291602001916105e6565b820191906000526020600020905b8154815290600101906020018083116105c957829003601f168201915b5050505060038301546004840154600590940154929360ff918216939092501686565b6003602052816000526040600020818154811061062557600080fd5b9060005260206000200160009150915050805461064190611ead565b80601f016020809104026020016040519081016040528092919081815260200182805461066d90611ead565b80156106ba5780601f1061068f576101008083540402835291602001916106ba565b820191906000526020600020905b81548152906001019060200180831161069d57829003601f168201915b505050505081565b6000546001600160a01b031633146106ec5760405162461bcd60e51b81526004016103f290611ee7565b6002856040516106fc9190611e91565b9081526040519081900360200190206005015460ff166107505760405162461bcd60e51b815260206004820152600f60248201526e466f726d206e6f742061637469766560881b60448201526064016103f2565b60006002866040516107629190611e91565b9081526040519081900360200190206003015460ff1660018111156107895761078961199d565b146107cf5760405162461bcd60e51b8152602060048201526016602482015275466f726d20697320616e6f6e796d6f7573206d6f646560501b60448201526064016103f2565b6040805160c081018252868152602081018690526001600160a01b03851691810191909152426060820152821515608082015260a0810182905260048054600181018255600091909152815160069091027f8a35acfbc15ff81a39ae7d344fd709f28e8600b4aa8c65c6b64bfe7fe36bd19b0190819061084f9082611f62565b50602082015160018201906108649082611f62565b5060408201516002820180546001600160a01b0319166001600160a01b0390921691909117905560608201516003820155608082015160048201805460ff191691151591909117905560a082015160058201906108c19082611f62565b5050600454600091506108d690600190612038565b90506006866040516108e89190611e91565b908152604051908190036020908101822080546001810182556000918252919020018290556001600160a01b03851690610923908890611e91565b6040805191829003822084835286151560208401524283830152905190917f539db8747c39e7f4ae827d099e57e48b7e68e635d662d86e6e13aae42ebbf2b2919081900360600190a3505050505050565b6005546004546000916109869161204b565b905090565b6004818154811061099b57600080fd5b90600052602060002090600602016000915090508060000180546109be90611ead565b80601f01602080910402602001604051908101604052809291908181526020018280546109ea90611ead565b8015610a375780601f10610a0c57610100808354040283529160200191610a37565b820191906000526020600020905b815481529060010190602001808311610a1a57829003601f168201915b505050505090806001018054610a4c90611ead565b80601f0160208091040260200160405190810160405280929190818152602001828054610a7890611ead565b8015610ac55780601f10610a9a57610100808354040283529160200191610ac5565b820191906000526020600020905b815481529060010190602001808311610aa857829003601f168201915b50505060028401546003850154600486015460058701805496976001600160a01b039094169692955060ff909116935090610aff90611ead565b80601f0160208091040260200160405190810160405280929190818152602001828054610b2b90611ead565b8015610b785780601f10610b4d57610100808354040283529160200191610b78565b820191906000526020600020905b815481529060010190602001808311610b5b57829003601f168201915b5050505050905086565b81336001600160a01b0316600282604051610b9d9190611e91565b908152604051908190036020019020546001600160a01b031614610bf65760405162461bcd60e51b815260206004820152601060248201526f2737ba103337b9369031b932b0ba37b960811b60448201526064016103f2565b81600284604051610c079190611e91565b908152604051908190036020018120600501805492151560ff1990931692909217909155610c36908490611e91565b6040519081900381208315158252907f0531fbaee29f7653d6d9890d997d58b9965642da03275c47c0f6280e12ce958d906020015b60405180910390a2505050565b6001546001600160a01b03163314610cc85760405162461bcd60e51b815260206004820152601360248201527227b7363c9031b7b73a3930b1ba1037bbb732b960691b60448201526064016103f2565b6001600160a01b038116610d105760405162461bcd60e51b815260206004820152600f60248201526e496e76616c6964206164647265737360881b60448201526064016103f2565b600080546001600160a01b0319166001600160a01b0392909216919091179055565b6000546001600160a01b03163314610d5c5760405162461bcd60e51b81526004016103f290611ee7565b600282604051610d6c9190611e91565b9081526040519081900360200190206005015460ff16610dc05760405162461bcd60e51b815260206004820152600f60248201526e466f726d206e6f742061637469766560881b60448201526064016103f2565b6001600283604051610dd29190611e91565b9081526040519081900360200190206003015460ff166001811115610df957610df961199d565b14610e3f5760405162461bcd60e51b8152602060048201526016602482015275466f726d207265717569726573206964656e7469747960501b60448201526064016103f2565b6040805160608101825283815260208101839052429181019190915260058054600181018255600091909152815160039091027f036b6384b5eca791c62761152d0c79bb0604c104a5fb6f4eb0703f3154bb3db001908190610ea19082611f62565b5060208201516001820190610eb69082611f62565b5060409190910151600290910155600554600090610ed690600190612038565b9050600783604051610ee89190611e91565b90815260405190819003602090810182208054600181018255600091825291902001829055610f18908490611e91565b60408051918290038220838352426020840152917fcdde0fbe34d846225bc898c018db21b7b38d11fc174b31fa695917d7676fcbe19101610c6b565b6000546001600160a01b03163314610f7e5760405162461bcd60e51b81526004016103f290611ee7565b60006001600160a01b0316600285604051610f999190611e91565b908152604051908190036020019020546001600160a01b031614610ff55760405162461bcd60e51b8152602060048201526013602482015272466f726d20616c72656164792065786973747360681b60448201526064016103f2565b6001600160a01b03851661104b5760405162461bcd60e51b815260206004820152601760248201527f496e76616c69642063726561746f72206164647265737300000000000000000060448201526064016103f2565b6040518060c00160405280866001600160a01b031681526020018481526020018381526020018260018111156110835761108361199d565b81524260208201526001604091820152516002906110a2908790611e91565b90815260405160209181900382019020825181546001600160a01b0319166001600160a01b039091161781559082015160018201906110e19082611f62565b50604082015160028201906110f69082611f62565b50606082015160038201805460ff1916600183818111156111195761111961199d565b02179055506080820151600482015560a0909101516005909101805460ff19169115159190911790556001600160a01b0385166000908152600360209081526040822080546001810182559083529120016111748582611f62565b50836040516111839190611e91565b6040518091039020856001600160a01b03167f7414b21c0833a6f18fb8f2b30698a608b3b92c4988966cc58cfd66b4fa93f885858585426040516111ca949392919061205e565b60405180910390a35050505050565b606060016002836040516111ed9190611e91565b9081526040519081900360200190206003015460ff1660018111156112145761121461199d565b146112615760405162461bcd60e51b815260206004820152601760248201527f466f726d206973206964656e746966696564206d6f646500000000000000000060448201526064016103f2565b60078260405161040b9190611e91565b8151602081840181018051600682529282019185019190912091905280548290811061129c57600080fd5b90600052602060002001600091509150505481565b8151602081840181018051600782529282019185019190912091905280548290811061129c57600080fd5b60006002826040516112ee9190611e91565b9081526040519081900360200190206003015460ff1692915050565b6005818154811061131a57600080fd5b906000526020600020906003020160009150905080600001805461133d90611ead565b80601f016020809104026020016040519081016040528092919081815260200182805461136990611ead565b80156113b65780601f1061138b576101008083540402835291602001916113b6565b820191906000526020600020905b81548152906001019060200180831161139957829003601f168201915b5050505050908060010180546113cb90611ead565b80601f01602080910402602001604051908101604052809291908181526020018280546113f790611ead565b80156114445780601f1061141957610100808354040283529160200191611444565b820191906000526020600020905b81548152906001019060200180831161142757829003601f168201915b5050505050908060020154905083565b6001600160a01b0381166000908152600360209081526040808320805482518185028101850190935280835260609492939192909184015b828210156115385783829060005260206000200180546114ab90611ead565b80601f01602080910402602001604051908101604052809291908181526020018280546114d790611ead565b80156115245780601f106114f957610100808354040283529160200191611524565b820191906000526020600020905b81548152906001019060200180831161150757829003601f168201915b50505050508152602001906001019061148c565b505050509050919050565b6000806002836040516115569190611e91565b9081526040519081900360200190206003015460ff16600181111561157d5761157d61199d565b036115a8576006826040516115929190611e91565b9081526040519081900360200190205492915050565b6007826040516115929190611e91565b919050565b6115c5611774565b6002826040516115d59190611e91565b90815260408051918290036020908101832060c0840190925281546001600160a01b031683526001820180549184019161160e90611ead565b80601f016020809104026020016040519081016040528092919081815260200182805461163a90611ead565b80156116875780601f1061165c57610100808354040283529160200191611687565b820191906000526020600020905b81548152906001019060200180831161166a57829003601f168201915b505050505081526020016002820180546116a090611ead565b80601f01602080910402602001604051908101604052809291908181526020018280546116cc90611ead565b80156117195780601f106116ee57610100808354040283529160200191611719565b820191906000526020600020905b8154815290600101906020018083116116fc57829003601f168201915b5050509183525050600382015460209091019060ff1660018111156117405761174061199d565b60018111156117515761175161199d565b81526004820154602082015260059091015460ff16151560409091015292915050565b6040518060c0016040528060006001600160a01b031681526020016060815260200160608152602001600060018111156117b0576117b061199d565b815260006020820181905260409091015290565b634e487b7160e01b600052604160045260246000fd5b600082601f8301126117eb57600080fd5b813567ffffffffffffffff80821115611806576118066117c4565b604051601f8301601f19908116603f0116810190828211818310171561182e5761182e6117c4565b8160405283815286602085880101111561184757600080fd5b836020870160208301376000602085830101528094505050505092915050565b60006020828403121561187957600080fd5b813567ffffffffffffffff81111561189057600080fd5b61189c848285016117da565b949350505050565b6020808252825182820181905260009190848201906040850190845b818110156118dc578351835292840192918401916001016118c0565b50909695505050505050565b80356001600160a01b03811681146115b857600080fd5b6000806040838503121561191257600080fd5b823567ffffffffffffffff81111561192957600080fd5b611935858286016117da565b925050611944602084016118e8565b90509250929050565b60005b83811015611968578181015183820152602001611950565b50506000910152565b6000815180845261198981602086016020860161194d565b601f01601f19169290920160200192915050565b634e487b7160e01b600052602160045260246000fd5b600281106119d157634e487b7160e01b600052602160045260246000fd5b9052565b6001600160a01b038716815260c0602082018190526000906119f990830188611971565b8281036040840152611a0b8188611971565b915050611a1b60608301866119b3565b83608083015282151560a0830152979650505050505050565b60008060408385031215611a4757600080fd5b611a50836118e8565b946020939093013593505050565b602081526000611a716020830184611971565b9392505050565b803580151581146115b857600080fd5b600080600080600060a08688031215611aa057600080fd5b853567ffffffffffffffff80821115611ab857600080fd5b611ac489838a016117da565b96506020880135915080821115611ada57600080fd5b611ae689838a016117da565b9550611af4604089016118e8565b9450611b0260608901611a78565b93506080880135915080821115611b1857600080fd5b50611b25888289016117da565b9150509295509295909350565b600060208284031215611b4457600080fd5b5035919050565b60c081526000611b5e60c0830189611971565b8281036020840152611b708189611971565b6001600160a01b038816604085015260608401879052851515608085015283810360a08501529050611ba28185611971565b9998505050505050505050565b60008060408385031215611bc257600080fd5b823567ffffffffffffffff811115611bd957600080fd5b611be5858286016117da565b92505061194460208401611a78565b600060208284031215611c0657600080fd5b611a71826118e8565b60008060408385031215611c2257600080fd5b823567ffffffffffffffff80821115611c3a57600080fd5b611c46868387016117da565b93506020850135915080821115611c5c57600080fd5b50611c69858286016117da565b9150509250929050565b600080600080600060a08688031215611c8b57600080fd5b611c94866118e8565b9450602086013567ffffffffffffffff80821115611cb157600080fd5b611cbd89838a016117da565b95506040880135915080821115611cd357600080fd5b611cdf89838a016117da565b94506060880135915080821115611cf557600080fd5b50611d02888289016117da565b925050608086013560028110611d1757600080fd5b809150509295509295909350565b60008060408385031215611d3857600080fd5b823567ffffffffffffffff811115611d4f57600080fd5b611d5b858286016117da565b95602094909401359450505050565b602081016104a282846119b3565b606081526000611d8b6060830186611971565b8281036020840152611d9d8186611971565b915050826040830152949350505050565b6000602080830181845280855180835260408601915060408160051b870101925083870160005b82811015611e0357603f19888603018452611df1858351611971565b94509285019290850190600101611dd5565b5092979650505050505050565b602080825282516001600160a01b03168282015282015160c06040830152600090611e3e60e0840182611971565b90506040840151601f19848303016060850152611e5b8282611971565b9150506060840151611e7060808501826119b3565b50608084015160a084015260a0840151151560c08401528091505092915050565b60008251611ea381846020870161194d565b9190910192915050565b600181811c90821680611ec157607f821691505b602082108103611ee157634e487b7160e01b600052602260045260246000fd5b50919050565b60208082526012908201527113db9b1e481cd95c9d995c881dd85b1b195d60721b604082015260600190565b601f821115611f5d57600081815260208120601f850160051c81016020861015611f3a5750805b601f850160051c820191505b81811015611f5957828155600101611f46565b5050505b505050565b815167ffffffffffffffff811115611f7c57611f7c6117c4565b611f9081611f8a8454611ead565b84611f13565b602080601f831160018114611fc55760008415611fad5750858301515b600019600386901b1c1916600185901b178555611f59565b600085815260208120601f198616915b82811015611ff457888601518255948401946001909101908401611fd5565b50858210156120125787850151600019600388901b60f8161c191681555b5050505050600190811b01905550565b634e487b7160e01b600052601160045260246000fd5b818103818111156104a2576104a2612022565b808201808211156104a2576104a2612022565b6080815260006120716080830187611971565b82810360208401526120838187611971565b91505061209360408301856119b3565b8260608301529594505050505056fea2646970667358221220f037dd3526d349ae6990cc9ba0ac3ae932f7d39697823327dd127caa2556f1d964736f6c63430008140033",
  "linkReferences": {},
  "deployedLinkReferences": {}
}